{
  "_format": "hh-sol-artifact-1",
  "contractName": "NFTMinter",
  "sourceName": "contracts/NFTMinter.sol",
  "abi": [
    {
      "inputs": [
        {
          "internalType": "string",
          "name": "tokenName",
          "type": "string"
        },
        {
          "internalType": "string",
          "name": "symbol",
          "type": "string"
        }
      ],
      "stateMutability": "nonpayable",
      "type": "constructor"
    },
    {
      "anonymous": false,
      "inputs": [
        {
          "indexed": true,
          "internalType": "address",
          "name": "owner",
          "type": "address"
        },
        {
          "indexed": true,
          "internalType": "address",
          "name": "approved",
          "type": "address"
        },
        {
          "indexed": true,
          "internalType": "uint256",
          "name": "tokenId",
          "type": "uint256"
        }
      ],
      "name": "Approval",
      "type": "event"
    },
    {
      "anonymous": false,
      "inputs": [
        {
          "indexed": true,
          "internalType": "address",
          "name": "owner",
          "type": "address"
        },
        {
          "indexed": true,
          "internalType": "address",
          "name": "operator",
          "type": "address"
        },
        {
          "indexed": false,
          "internalType": "bool",
          "name": "approved",
          "type": "bool"
        }
      ],
      "name": "ApprovalForAll",
      "type": "event"
    },
    {
      "anonymous": false,
      "inputs": [
        {
          "indexed": false,
          "internalType": "uint256",
          "name": "_id",
          "type": "uint256"
        },
        {
          "indexed": false,
          "internalType": "string",
          "name": "_metadataURI",
          "type": "string"
        }
      ],
      "name": "ChangedMetadata",
      "type": "event"
    },
    {
      "anonymous": false,
      "inputs": [
        {
          "indexed": false,
          "internalType": "uint256",
          "name": "_id",
          "type": "uint256"
        },
        {
          "indexed": true,
          "internalType": "address",
          "name": "_recipient",
          "type": "address"
        },
        {
          "indexed": false,
          "internalType": "string",
          "name": "_metadataURI",
          "type": "string"
        }
      ],
      "name": "Minted",
      "type": "event"
    },
    {
      "anonymous": false,
      "inputs": [
        {
          "indexed": true,
          "internalType": "address",
          "name": "previousOwner",
          "type": "address"
        },
        {
          "indexed": true,
          "internalType": "address",
          "name": "newOwner",
          "type": "address"
        }
      ],
      "name": "OwnershipTransferred",
      "type": "event"
    },
    {
      "anonymous": false,
      "inputs": [
        {
          "indexed": true,
          "internalType": "address",
          "name": "from",
          "type": "address"
        },
        {
          "indexed": true,
          "internalType": "address",
          "name": "to",
          "type": "address"
        },
        {
          "indexed": true,
          "internalType": "uint256",
          "name": "tokenId",
          "type": "uint256"
        }
      ],
      "name": "Transfer",
      "type": "event"
    },
    {
      "inputs": [
        {
          "internalType": "address",
          "name": "to",
          "type": "address"
        },
        {
          "internalType": "uint256",
          "name": "tokenId",
          "type": "uint256"
        }
      ],
      "name": "approve",
      "outputs": [],
      "stateMutability": "nonpayable",
      "type": "function"
    },
    {
      "inputs": [
        {
          "internalType": "address",
          "name": "owner",
          "type": "address"
        }
      ],
      "name": "balanceOf",
      "outputs": [
        {
          "internalType": "uint256",
          "name": "",
          "type": "uint256"
        }
      ],
      "stateMutability": "view",
      "type": "function"
    },
    {
      "inputs": [
        {
          "internalType": "uint256[]",
          "name": "ids",
          "type": "uint256[]"
        },
        {
          "internalType": "uint256[]",
          "name": "attributeMultipliers",
          "type": "uint256[]"
        },
        {
          "internalType": "string[]",
          "name": "metadataURIs",
          "type": "string[]"
        }
      ],
      "name": "changeMetadata",
      "outputs": [],
      "stateMutability": "nonpayable",
      "type": "function"
    },
    {
      "inputs": [
        {
          "internalType": "uint256",
          "name": "tokenId",
          "type": "uint256"
        }
      ],
      "name": "getApproved",
      "outputs": [
        {
          "internalType": "address",
          "name": "",
          "type": "address"
        }
      ],
      "stateMutability": "view",
      "type": "function"
    },
    {
      "inputs": [
        {
          "internalType": "address",
          "name": "owner",
          "type": "address"
        },
        {
          "internalType": "address",
          "name": "operator",
          "type": "address"
        }
      ],
      "name": "isApprovedForAll",
      "outputs": [
        {
          "internalType": "bool",
          "name": "",
          "type": "bool"
        }
      ],
      "stateMutability": "view",
      "type": "function"
    },
    {
      "inputs": [
        {
          "internalType": "address",
          "name": "owner",
          "type": "address"
        },
        {
          "internalType": "uint256[]",
          "name": "ids",
          "type": "uint256[]"
        },
        {
          "internalType": "uint256[]",
          "name": "attributeMultipliers",
          "type": "uint256[]"
        },
        {
          "internalType": "string[]",
          "name": "metadataURIs",
          "type": "string[]"
        }
      ],
      "name": "mintTokens",
      "outputs": [],
      "stateMutability": "nonpayable",
      "type": "function"
    },
    {
      "inputs": [],
      "name": "name",
      "outputs": [
        {
          "internalType": "string",
          "name": "",
          "type": "string"
        }
      ],
      "stateMutability": "view",
      "type": "function"
    },
    {
      "inputs": [],
      "name": "owner",
      "outputs": [
        {
          "internalType": "address",
          "name": "",
          "type": "address"
        }
      ],
      "stateMutability": "view",
      "type": "function"
    },
    {
      "inputs": [
        {
          "internalType": "uint256",
          "name": "tokenId",
          "type": "uint256"
        }
      ],
      "name": "ownerOf",
      "outputs": [
        {
          "internalType": "address",
          "name": "",
          "type": "address"
        }
      ],
      "stateMutability": "view",
      "type": "function"
    },
    {
      "inputs": [],
      "name": "renounceOwnership",
      "outputs": [],
      "stateMutability": "nonpayable",
      "type": "function"
    },
    {
      "inputs": [
        {
          "internalType": "address",
          "name": "from",
          "type": "address"
        },
        {
          "internalType": "address",
          "name": "to",
          "type": "address"
        },
        {
          "internalType": "uint256",
          "name": "tokenId",
          "type": "uint256"
        }
      ],
      "name": "safeTransferFrom",
      "outputs": [],
      "stateMutability": "nonpayable",
      "type": "function"
    },
    {
      "inputs": [
        {
          "internalType": "address",
          "name": "from",
          "type": "address"
        },
        {
          "internalType": "address",
          "name": "to",
          "type": "address"
        },
        {
          "internalType": "uint256",
          "name": "tokenId",
          "type": "uint256"
        },
        {
          "internalType": "bytes",
          "name": "_data",
          "type": "bytes"
        }
      ],
      "name": "safeTransferFrom",
      "outputs": [],
      "stateMutability": "nonpayable",
      "type": "function"
    },
    {
      "inputs": [
        {
          "internalType": "address",
          "name": "operator",
          "type": "address"
        },
        {
          "internalType": "bool",
          "name": "approved",
          "type": "bool"
        }
      ],
      "name": "setApprovalForAll",
      "outputs": [],
      "stateMutability": "nonpayable",
      "type": "function"
    },
    {
      "inputs": [
        {
          "internalType": "bytes4",
          "name": "interfaceId",
          "type": "bytes4"
        }
      ],
      "name": "supportsInterface",
      "outputs": [
        {
          "internalType": "bool",
          "name": "",
          "type": "bool"
        }
      ],
      "stateMutability": "view",
      "type": "function"
    },
    {
      "inputs": [],
      "name": "symbol",
      "outputs": [
        {
          "internalType": "string",
          "name": "",
          "type": "string"
        }
      ],
      "stateMutability": "view",
      "type": "function"
    },
    {
      "inputs": [
        {
          "internalType": "uint256",
          "name": "index",
          "type": "uint256"
        }
      ],
      "name": "tokenByIndex",
      "outputs": [
        {
          "internalType": "uint256",
          "name": "",
          "type": "uint256"
        }
      ],
      "stateMutability": "view",
      "type": "function"
    },
    {
      "inputs": [
        {
          "internalType": "uint256",
          "name": "",
          "type": "uint256"
        }
      ],
      "name": "tokenIdToMultiplier",
      "outputs": [
        {
          "internalType": "uint256",
          "name": "",
          "type": "uint256"
        }
      ],
      "stateMutability": "view",
      "type": "function"
    },
    {
      "inputs": [
        {
          "internalType": "address",
          "name": "owner",
          "type": "address"
        },
        {
          "internalType": "uint256",
          "name": "index",
          "type": "uint256"
        }
      ],
      "name": "tokenOfOwnerByIndex",
      "outputs": [
        {
          "internalType": "uint256",
          "name": "",
          "type": "uint256"
        }
      ],
      "stateMutability": "view",
      "type": "function"
    },
    {
      "inputs": [
        {
          "internalType": "uint256",
          "name": "tokenId",
          "type": "uint256"
        }
      ],
      "name": "tokenURI",
      "outputs": [
        {
          "internalType": "string",
          "name": "",
          "type": "string"
        }
      ],
      "stateMutability": "view",
      "type": "function"
    },
    {
      "inputs": [],
      "name": "totalSupply",
      "outputs": [
        {
          "internalType": "uint256",
          "name": "",
          "type": "uint256"
        }
      ],
      "stateMutability": "view",
      "type": "function"
    },
    {
      "inputs": [
        {
          "internalType": "address",
          "name": "from",
          "type": "address"
        },
        {
          "internalType": "address",
          "name": "to",
          "type": "address"
        },
        {
          "internalType": "uint256",
          "name": "tokenId",
          "type": "uint256"
        }
      ],
      "name": "transferFrom",
      "outputs": [],
      "stateMutability": "nonpayable",
      "type": "function"
    },
    {
      "inputs": [
        {
          "internalType": "address",
          "name": "newOwner",
          "type": "address"
        }
      ],
      "name": "transferOwnership",
      "outputs": [],
      "stateMutability": "nonpayable",
      "type": "function"
    }
  ],
  "bytecode": "0x60806040523480156200001157600080fd5b50604051620048e0380380620048e0833981810160405281019062000037919062000285565b818181600090805190602001906200005192919062000163565b5080600190805190602001906200006a92919062000163565b5050506200008d620000816200009560201b60201c565b6200009d60201b60201c565b505062000468565b600033905090565b6000600b60009054906101000a900473ffffffffffffffffffffffffffffffffffffffff16905081600b60006101000a81548173ffffffffffffffffffffffffffffffffffffffff021916908373ffffffffffffffffffffffffffffffffffffffff1602179055508173ffffffffffffffffffffffffffffffffffffffff168173ffffffffffffffffffffffffffffffffffffffff167f8be0079c531659141344cd1fd0a4f28419497f9722a3daafe3b4186f6b6457e060405160405180910390a35050565b82805462000171906200038d565b90600052602060002090601f016020900481019282620001955760008555620001e1565b82601f10620001b057805160ff1916838001178555620001e1565b82800160010185558215620001e1579182015b82811115620001e0578251825591602001919060010190620001c3565b5b509050620001f09190620001f4565b5090565b5b808211156200020f576000816000905550600101620001f5565b5090565b60006200022a620002248462000321565b620002f8565b9050828152602081018484840111156200024357600080fd5b6200025084828562000357565b509392505050565b600082601f8301126200026a57600080fd5b81516200027c84826020860162000213565b91505092915050565b600080604083850312156200029957600080fd5b600083015167ffffffffffffffff811115620002b457600080fd5b620002c28582860162000258565b925050602083015167ffffffffffffffff811115620002e057600080fd5b620002ee8582860162000258565b9150509250929050565b60006200030462000317565b9050620003128282620003c3565b919050565b6000604051905090565b600067ffffffffffffffff8211156200033f576200033e62000428565b5b6200034a8262000457565b9050602081019050919050565b60005b83811015620003775780820151818401526020810190506200035a565b8381111562000387576000848401525b50505050565b60006002820490506001821680620003a657607f821691505b60208210811415620003bd57620003bc620003f9565b5b50919050565b620003ce8262000457565b810181811067ffffffffffffffff82111715620003f057620003ef62000428565b5b80604052505050565b7f4e487b7100000000000000000000000000000000000000000000000000000000600052602260045260246000fd5b7f4e487b7100000000000000000000000000000000000000000000000000000000600052604160045260246000fd5b6000601f19601f8301169050919050565b61446880620004786000396000f3fe608060405234801561001057600080fd5b50600436106101425760003560e01c80636352211e116100b8578063a22cb4651161007c578063a22cb46514610389578063b88d4fde146103a5578063c87b56dd146103c1578063dc3b23d4146103f1578063e985e9c51461040d578063f2fde38b1461043d57610142565b80636352211e146102e357806370a0823114610313578063715018a6146103435780638da5cb5b1461034d57806395d89b411461036b57610142565b806320d95dd91161010a57806320d95dd9146101ff57806323b872dd1461021b5780632d5af540146102375780632f745c591461026757806342842e0e146102975780634f6ccce7146102b357610142565b806301ffc9a71461014757806306fdde0314610177578063081812fc14610195578063095ea7b3146101c557806318160ddd146101e1575b600080fd5b610161600480360381019061015c9190612fdc565b610459565b60405161016e91906134d7565b60405180910390f35b61017f61046b565b60405161018c91906134f2565b60405180910390f35b6101af60048036038101906101aa919061302e565b6104fd565b6040516101bc9190613470565b60405180910390f35b6101df60048036038101906101da9190612f09565b610582565b005b6101e961069a565b6040516101f69190613862565b60405180910390f35b61021960048036038101906102149190612e22565b6106a7565b005b61023560048036038101906102309190612d58565b610947565b005b610251600480360381019061024c919061302e565b6109a7565b60405161025e9190613862565b60405180910390f35b610281600480360381019061027c9190612f09565b6109bf565b60405161028e9190613862565b60405180910390f35b6102b160048036038101906102ac9190612d58565b610a64565b005b6102cd60048036038101906102c8919061302e565b610a84565b6040516102da9190613862565b60405180910390f35b6102fd60048036038101906102f8919061302e565b610b1b565b60405161030a9190613470565b60405180910390f35b61032d60048036038101906103289190612cf3565b610bcd565b60405161033a9190613862565b60405180910390f35b61034b610c85565b005b610355610d0d565b6040516103629190613470565b60405180910390f35b610373610d37565b60405161038091906134f2565b60405180910390f35b6103a3600480360381019061039e9190612ecd565b610dc9565b005b6103bf60048036038101906103ba9190612da7565b610ddf565b005b6103db60048036038101906103d6919061302e565b610e41565b6040516103e891906134f2565b60405180910390f35b61040b60048036038101906104069190612f45565b610e53565b005b61042760048036038101906104229190612d1c565b611112565b60405161043491906134d7565b60405180910390f35b61045760048036038101906104529190612cf3565b6111a6565b005b60006104648261129e565b9050919050565b60606000805461047a90613b40565b80601f01602080910402602001604051908101604052809291908181526020018280546104a690613b40565b80156104f35780601f106104c8576101008083540402835291602001916104f3565b820191906000526020600020905b8154815290600101906020018083116104d657829003601f168201915b5050505050905090565b600061050882611318565b610547576040517f08c379a000000000000000000000000000000000000000000000000000000000815260040161053e90613762565b60405180910390fd5b6004600083815260200190815260200160002060009054906101000a900473ffffffffffffffffffffffffffffffffffffffff169050919050565b600061058d82610b1b565b90508073ffffffffffffffffffffffffffffffffffffffff168373ffffffffffffffffffffffffffffffffffffffff1614156105fe576040517f08c379a00000000000000000000000000000000000000000000000000000000081526004016105f5906137e2565b60405180910390fd5b8073ffffffffffffffffffffffffffffffffffffffff1661061d611384565b73ffffffffffffffffffffffffffffffffffffffff16148061064c575061064b81610646611384565b611112565b5b61068b576040517f08c379a0000000000000000000000000000000000000000000000000000000008152600401610682906136a2565b60405180910390fd5b610695838361138c565b505050565b6000600880549050905090565b6106af611384565b73ffffffffffffffffffffffffffffffffffffffff166106cd610d0d565b73ffffffffffffffffffffffffffffffffffffffff1614610723576040517f08c379a000000000000000000000000000000000000000000000000000000000815260040161071a90613782565b60405180910390fd5b8051835114610767576040517f08c379a000000000000000000000000000000000000000000000000000000000815260040161075e90613682565b60405180910390fd5b81518351146107ab576040517f08c379a00000000000000000000000000000000000000000000000000000000081526004016107a2906137c2565b60405180910390fd5b6107cf6040518060600160405280603b81526020016143f8603b9139858551611445565b60005b8351811015610940576107e5600c6114e4565b6000848281518110610820577f4e487b7100000000000000000000000000000000000000000000000000000000600052603260045260246000fd5b602002602001015190506000838381518110610865577f4e487b7100000000000000000000000000000000000000000000000000000000600052603260045260246000fd5b602002602001015190508483815181106108a8577f4e487b7100000000000000000000000000000000000000000000000000000000600052603260045260246000fd5b6020026020010151600d6000848152602001908152602001600020819055506108d187836114fa565b6108db8282611518565b8673ffffffffffffffffffffffffffffffffffffffff167f3b8a974a6971dbe70c8718ec80406b2790d2aa5477b6a5bed3d94fa19e06d60d838360405161092392919061387d565b60405180910390a25050808061093890613ba3565b9150506107d2565b5050505050565b610958610952611384565b8261158c565b610997576040517f08c379a000000000000000000000000000000000000000000000000000000000815260040161098e90613802565b60405180910390fd5b6109a283838361166a565b505050565b600d6020528060005260406000206000915090505481565b60006109ca83610bcd565b8210610a0b576040517f08c379a0000000000000000000000000000000000000000000000000000000008152600401610a0290613582565b60405180910390fd5b600660008473ffffffffffffffffffffffffffffffffffffffff1673ffffffffffffffffffffffffffffffffffffffff168152602001908152602001600020600083815260200190815260200160002054905092915050565b610a7f83838360405180602001604052806000815250610ddf565b505050565b6000610a8e61069a565b8210610acf576040517f08c379a0000000000000000000000000000000000000000000000000000000008152600401610ac690613822565b60405180910390fd5b60088281548110610b09577f4e487b7100000000000000000000000000000000000000000000000000000000600052603260045260246000fd5b90600052602060002001549050919050565b6000806002600084815260200190815260200160002060009054906101000a900473ffffffffffffffffffffffffffffffffffffffff169050600073ffffffffffffffffffffffffffffffffffffffff168173ffffffffffffffffffffffffffffffffffffffff161415610bc4576040517f08c379a0000000000000000000000000000000000000000000000000000000008152600401610bbb906136e2565b60405180910390fd5b80915050919050565b60008073ffffffffffffffffffffffffffffffffffffffff168273ffffffffffffffffffffffffffffffffffffffff161415610c3e576040517f08c379a0000000000000000000000000000000000000000000000000000000008152600401610c35906136c2565b60405180910390fd5b600360008373ffffffffffffffffffffffffffffffffffffffff1673ffffffffffffffffffffffffffffffffffffffff168152602001908152602001600020549050919050565b610c8d611384565b73ffffffffffffffffffffffffffffffffffffffff16610cab610d0d565b73ffffffffffffffffffffffffffffffffffffffff1614610d01576040517f08c379a0000000000000000000000000000000000000000000000000000000008152600401610cf890613782565b60405180910390fd5b610d0b60006118d1565b565b6000600b60009054906101000a900473ffffffffffffffffffffffffffffffffffffffff16905090565b606060018054610d4690613b40565b80601f0160208091040260200160405190810160405280929190818152602001828054610d7290613b40565b8015610dbf5780601f10610d9457610100808354040283529160200191610dbf565b820191906000526020600020905b815481529060010190602001808311610da257829003601f168201915b5050505050905090565b610ddb610dd4611384565b8383611997565b5050565b610df0610dea611384565b8361158c565b610e2f576040517f08c379a0000000000000000000000000000000000000000000000000000000008152600401610e2690613802565b60405180910390fd5b610e3b84848484611b04565b50505050565b6060610e4c82611b60565b9050919050565b610e5b611384565b73ffffffffffffffffffffffffffffffffffffffff16610e79610d0d565b73ffffffffffffffffffffffffffffffffffffffff1614610ecf576040517f08c379a0000000000000000000000000000000000000000000000000000000008152600401610ec690613782565b60405180910390fd5b8051835114610f13576040517f08c379a0000000000000000000000000000000000000000000000000000000008152600401610f0a90613682565b60405180910390fd5b8151835114610f57576040517f08c379a0000000000000000000000000000000000000000000000000000000008152600401610f4e906137c2565b60405180910390fd5b610f61600c611cb2565b835114610fa3576040517f08c379a0000000000000000000000000000000000000000000000000000000008152600401610f9a90613842565b60405180910390fd5b610fc66040518060600160405280603081526020016143c8603091398451611cc0565b60005b835181101561110c57600084828151811061100d577f4e487b7100000000000000000000000000000000000000000000000000000000600052603260045260246000fd5b602002602001015190506000838381518110611052577f4e487b7100000000000000000000000000000000000000000000000000000000600052603260045260246000fd5b60200260200101519050848381518110611095577f4e487b7100000000000000000000000000000000000000000000000000000000600052603260045260246000fd5b6020026020010151600d6000848152602001908152602001600020819055506110be8282611518565b7f4d94d4affb979a60a2e3d4c124aa66d9a0cbe06512c55be44ed71848bade454d82826040516110ef92919061387d565b60405180910390a15050808061110490613ba3565b915050610fc9565b50505050565b6000600560008473ffffffffffffffffffffffffffffffffffffffff1673ffffffffffffffffffffffffffffffffffffffff16815260200190815260200160002060008373ffffffffffffffffffffffffffffffffffffffff1673ffffffffffffffffffffffffffffffffffffffff16815260200190815260200160002060009054906101000a900460ff16905092915050565b6111ae611384565b73ffffffffffffffffffffffffffffffffffffffff166111cc610d0d565b73ffffffffffffffffffffffffffffffffffffffff1614611222576040517f08c379a000000000000000000000000000000000000000000000000000000000815260040161121990613782565b60405180910390fd5b600073ffffffffffffffffffffffffffffffffffffffff168173ffffffffffffffffffffffffffffffffffffffff161415611292576040517f08c379a0000000000000000000000000000000000000000000000000000000008152600401611289906135c2565b60405180910390fd5b61129b816118d1565b50565b60007f780e9d63000000000000000000000000000000000000000000000000000000007bffffffffffffffffffffffffffffffffffffffffffffffffffffffff1916827bffffffffffffffffffffffffffffffffffffffffffffffffffffffff19161480611311575061131082611d5c565b5b9050919050565b60008073ffffffffffffffffffffffffffffffffffffffff166002600084815260200190815260200160002060009054906101000a900473ffffffffffffffffffffffffffffffffffffffff1673ffffffffffffffffffffffffffffffffffffffff1614159050919050565b600033905090565b816004600083815260200190815260200160002060006101000a81548173ffffffffffffffffffffffffffffffffffffffff021916908373ffffffffffffffffffffffffffffffffffffffff160217905550808273ffffffffffffffffffffffffffffffffffffffff166113ff83610b1b565b73ffffffffffffffffffffffffffffffffffffffff167f8c5be1e5ebec7d5bd14f71427d1e84f3dd0314c0f7b2291e5b200ac8c7c3b92560405160405180910390a45050565b6114df83838360405160240161145d93929190613514565b6040516020818303038152906040527f07c81217000000000000000000000000000000000000000000000000000000007bffffffffffffffffffffffffffffffffffffffffffffffffffffffff19166020820180517bffffffffffffffffffffffffffffffffffffffffffffffffffffffff8381831617835250505050611e3e565b505050565b6001816000016000828254019250508190555050565b611514828260405180602001604052806000815250611e67565b5050565b61152182611318565b611560576040517f08c379a000000000000000000000000000000000000000000000000000000000815260040161155790613702565b60405180910390fd5b80600a600084815260200190815260200160002090805190602001906115879291906129d1565b505050565b600061159782611318565b6115d6576040517f08c379a00000000000000000000000000000000000000000000000000000000081526004016115cd90613662565b60405180910390fd5b60006115e183610b1b565b90508073ffffffffffffffffffffffffffffffffffffffff168473ffffffffffffffffffffffffffffffffffffffff16148061165057508373ffffffffffffffffffffffffffffffffffffffff16611638846104fd565b73ffffffffffffffffffffffffffffffffffffffff16145b8061166157506116608185611112565b5b91505092915050565b8273ffffffffffffffffffffffffffffffffffffffff1661168a82610b1b565b73ffffffffffffffffffffffffffffffffffffffff16146116e0576040517f08c379a00000000000000000000000000000000000000000000000000000000081526004016116d7906135e2565b60405180910390fd5b600073ffffffffffffffffffffffffffffffffffffffff168273ffffffffffffffffffffffffffffffffffffffff161415611750576040517f08c379a000000000000000000000000000000000000000000000000000000000815260040161174790613622565b60405180910390fd5b61175b838383611ec2565b61176660008261138c565b6001600360008573ffffffffffffffffffffffffffffffffffffffff1673ffffffffffffffffffffffffffffffffffffffff16815260200190815260200160002060008282546117b69190613a56565b925050819055506001600360008473ffffffffffffffffffffffffffffffffffffffff1673ffffffffffffffffffffffffffffffffffffffff168152602001908152602001600020600082825461180d91906139cf565b92505081905550816002600083815260200190815260200160002060006101000a81548173ffffffffffffffffffffffffffffffffffffffff021916908373ffffffffffffffffffffffffffffffffffffffff160217905550808273ffffffffffffffffffffffffffffffffffffffff168473ffffffffffffffffffffffffffffffffffffffff167fddf252ad1be2c89b69c2b068fc378daa952ba7f163c4a11628f55a4df523b3ef60405160405180910390a46118cc838383611ed2565b505050565b6000600b60009054906101000a900473ffffffffffffffffffffffffffffffffffffffff16905081600b60006101000a81548173ffffffffffffffffffffffffffffffffffffffff021916908373ffffffffffffffffffffffffffffffffffffffff1602179055508173ffffffffffffffffffffffffffffffffffffffff168173ffffffffffffffffffffffffffffffffffffffff167f8be0079c531659141344cd1fd0a4f28419497f9722a3daafe3b4186f6b6457e060405160405180910390a35050565b8173ffffffffffffffffffffffffffffffffffffffff168373ffffffffffffffffffffffffffffffffffffffff161415611a06576040517f08c379a00000000000000000000000000000000000000000000000000000000081526004016119fd90613642565b60405180910390fd5b80600560008573ffffffffffffffffffffffffffffffffffffffff1673ffffffffffffffffffffffffffffffffffffffff16815260200190815260200160002060008473ffffffffffffffffffffffffffffffffffffffff1673ffffffffffffffffffffffffffffffffffffffff16815260200190815260200160002060006101000a81548160ff0219169083151502179055508173ffffffffffffffffffffffffffffffffffffffff168373ffffffffffffffffffffffffffffffffffffffff167f17307eab39ab6107e8899845ad3d59bd9653f200f220920489ca2b5937696c3183604051611af791906134d7565b60405180910390a3505050565b611b0f84848461166a565b611b1b84848484611ed7565b611b5a576040517f08c379a0000000000000000000000000000000000000000000000000000000008152600401611b51906135a2565b60405180910390fd5b50505050565b6060611b6b82611318565b611baa576040517f08c379a0000000000000000000000000000000000000000000000000000000008152600401611ba190613742565b60405180910390fd5b6000600a60008481526020019081526020016000208054611bca90613b40565b80601f0160208091040260200160405190810160405280929190818152602001828054611bf690613b40565b8015611c435780601f10611c1857610100808354040283529160200191611c43565b820191906000526020600020905b815481529060010190602001808311611c2657829003601f168201915b505050505090506000611c5461206e565b9050600081511415611c6a578192505050611cad565b600082511115611c9f578082604051602001611c8792919061344c565b60405160208183030381529060405292505050611cad565b611ca884612085565b925050505b919050565b600081600001549050919050565b611d588282604051602401611cd6929190613552565b6040516020818303038152906040527f9710a9d0000000000000000000000000000000000000000000000000000000007bffffffffffffffffffffffffffffffffffffffffffffffffffffffff19166020820180517bffffffffffffffffffffffffffffffffffffffffffffffffffffffff8381831617835250505050611e3e565b5050565b60007f80ac58cd000000000000000000000000000000000000000000000000000000007bffffffffffffffffffffffffffffffffffffffffffffffffffffffff1916827bffffffffffffffffffffffffffffffffffffffffffffffffffffffff19161480611e2757507f5b5e139f000000000000000000000000000000000000000000000000000000007bffffffffffffffffffffffffffffffffffffffffffffffffffffffff1916827bffffffffffffffffffffffffffffffffffffffffffffffffffffffff1916145b80611e375750611e368261212c565b5b9050919050565b60008151905060006a636f6e736f6c652e6c6f679050602083016000808483855afa5050505050565b611e718383612196565b611e7e6000848484611ed7565b611ebd576040517f08c379a0000000000000000000000000000000000000000000000000000000008152600401611eb4906135a2565b60405180910390fd5b505050565b611ecd838383612370565b505050565b505050565b6000611ef88473ffffffffffffffffffffffffffffffffffffffff16612484565b15612061578373ffffffffffffffffffffffffffffffffffffffff1663150b7a02611f21611384565b8786866040518563ffffffff1660e01b8152600401611f43949392919061348b565b602060405180830381600087803b158015611f5d57600080fd5b505af1925050508015611f8e57506040513d601f19601f82011682018060405250810190611f8b9190613005565b60015b612011573d8060008114611fbe576040519150601f19603f3d011682016040523d82523d6000602084013e611fc3565b606091505b50600081511415612009576040517f08c379a0000000000000000000000000000000000000000000000000000000008152600401612000906135a2565b60405180910390fd5b805181602001fd5b63150b7a0260e01b7bffffffffffffffffffffffffffffffffffffffffffffffffffffffff1916817bffffffffffffffffffffffffffffffffffffffffffffffffffffffff191614915050612066565b600190505b949350505050565b606060405180602001604052806000815250905090565b606061209082611318565b6120cf576040517f08c379a00000000000000000000000000000000000000000000000000000000081526004016120c6906137a2565b60405180910390fd5b60006120d961206e565b905060008151116120f95760405180602001604052806000815250612124565b80612103846124a7565b60405160200161211492919061344c565b6040516020818303038152906040525b915050919050565b60007f01ffc9a7000000000000000000000000000000000000000000000000000000007bffffffffffffffffffffffffffffffffffffffffffffffffffffffff1916827bffffffffffffffffffffffffffffffffffffffffffffffffffffffff1916149050919050565b600073ffffffffffffffffffffffffffffffffffffffff168273ffffffffffffffffffffffffffffffffffffffff161415612206576040517f08c379a00000000000000000000000000000000000000000000000000000000081526004016121fd90613722565b60405180910390fd5b61220f81611318565b1561224f576040517f08c379a000000000000000000000000000000000000000000000000000000000815260040161224690613602565b60405180910390fd5b61225b60008383611ec2565b6001600360008473ffffffffffffffffffffffffffffffffffffffff1673ffffffffffffffffffffffffffffffffffffffff16815260200190815260200160002060008282546122ab91906139cf565b92505081905550816002600083815260200190815260200160002060006101000a81548173ffffffffffffffffffffffffffffffffffffffff021916908373ffffffffffffffffffffffffffffffffffffffff160217905550808273ffffffffffffffffffffffffffffffffffffffff16600073ffffffffffffffffffffffffffffffffffffffff167fddf252ad1be2c89b69c2b068fc378daa952ba7f163c4a11628f55a4df523b3ef60405160405180910390a461236c60008383611ed2565b5050565b61237b838383612654565b600073ffffffffffffffffffffffffffffffffffffffff168373ffffffffffffffffffffffffffffffffffffffff1614156123be576123b981612659565b6123fd565b8173ffffffffffffffffffffffffffffffffffffffff168373ffffffffffffffffffffffffffffffffffffffff16146123fc576123fb83826126a2565b5b5b600073ffffffffffffffffffffffffffffffffffffffff168273ffffffffffffffffffffffffffffffffffffffff1614156124405761243b8161280f565b61247f565b8273ffffffffffffffffffffffffffffffffffffffff168273ffffffffffffffffffffffffffffffffffffffff161461247e5761247d8282612952565b5b5b505050565b6000808273ffffffffffffffffffffffffffffffffffffffff163b119050919050565b606060008214156124ef576040518060400160405280600181526020017f3000000000000000000000000000000000000000000000000000000000000000815250905061264f565b600082905060005b6000821461252157808061250a90613ba3565b915050600a8261251a9190613a25565b91506124f7565b60008167ffffffffffffffff811115612563577f4e487b7100000000000000000000000000000000000000000000000000000000600052604160045260246000fd5b6040519080825280601f01601f1916602001820160405280156125955781602001600182028036833780820191505090505b5090505b60008514612648576001826125ae9190613a56565b9150600a856125bd9190613bec565b60306125c991906139cf565b60f81b818381518110612605577f4e487b7100000000000000000000000000000000000000000000000000000000600052603260045260246000fd5b60200101907effffffffffffffffffffffffffffffffffffffffffffffffffffffffffffff1916908160001a905350600a856126419190613a25565b9450612599565b8093505050505b919050565b505050565b6008805490506009600083815260200190815260200160002081905550600881908060018154018082558091505060019003906000526020600020016000909190919091505550565b600060016126af84610bcd565b6126b99190613a56565b905060006007600084815260200190815260200160002054905081811461279e576000600660008673ffffffffffffffffffffffffffffffffffffffff1673ffffffffffffffffffffffffffffffffffffffff168152602001908152602001600020600084815260200190815260200160002054905080600660008773ffffffffffffffffffffffffffffffffffffffff1673ffffffffffffffffffffffffffffffffffffffff168152602001908152602001600020600084815260200190815260200160002081905550816007600083815260200190815260200160002081905550505b6007600084815260200190815260200160002060009055600660008573ffffffffffffffffffffffffffffffffffffffff1673ffffffffffffffffffffffffffffffffffffffff16815260200190815260200160002060008381526020019081526020016000206000905550505050565b600060016008805490506128239190613a56565b9050600060096000848152602001908152602001600020549050600060088381548110612879577f4e487b7100000000000000000000000000000000000000000000000000000000600052603260045260246000fd5b9060005260206000200154905080600883815481106128c1577f4e487b7100000000000000000000000000000000000000000000000000000000600052603260045260246000fd5b906000526020600020018190555081600960008381526020019081526020016000208190555060096000858152602001908152602001600020600090556008805480612936577f4e487b7100000000000000000000000000000000000000000000000000000000600052603160045260246000fd5b6001900381819060005260206000200160009055905550505050565b600061295d83610bcd565b905081600660008573ffffffffffffffffffffffffffffffffffffffff1673ffffffffffffffffffffffffffffffffffffffff168152602001908152602001600020600083815260200190815260200160002081905550806007600084815260200190815260200160002081905550505050565b8280546129dd90613b40565b90600052602060002090601f0160209004810192826129ff5760008555612a46565b82601f10612a1857805160ff1916838001178555612a46565b82800160010185558215612a46579182015b82811115612a45578251825591602001919060010190612a2a565b5b509050612a539190612a57565b5090565b5b80821115612a70576000816000905550600101612a58565b5090565b6000612a87612a82846138d2565b6138ad565b90508083825260208201905082856020860282011115612aa657600080fd5b60005b85811015612af057813567ffffffffffffffff811115612ac857600080fd5b808601612ad58982612cb4565b85526020850194506020840193505050600181019050612aa9565b5050509392505050565b6000612b0d612b08846138fe565b6138ad565b90508083825260208201905082856020860282011115612b2c57600080fd5b60005b85811015612b5c5781612b428882612cde565b845260208401935060208301925050600181019050612b2f565b5050509392505050565b6000612b79612b748461392a565b6138ad565b905082815260208101848484011115612b9157600080fd5b612b9c848285613afe565b509392505050565b6000612bb7612bb28461395b565b6138ad565b905082815260208101848484011115612bcf57600080fd5b612bda848285613afe565b509392505050565b600081359050612bf18161436b565b92915050565b600082601f830112612c0857600080fd5b8135612c18848260208601612a74565b91505092915050565b600082601f830112612c3257600080fd5b8135612c42848260208601612afa565b91505092915050565b600081359050612c5a81614382565b92915050565b600081359050612c6f81614399565b92915050565b600081519050612c8481614399565b92915050565b600082601f830112612c9b57600080fd5b8135612cab848260208601612b66565b91505092915050565b600082601f830112612cc557600080fd5b8135612cd5848260208601612ba4565b91505092915050565b600081359050612ced816143b0565b92915050565b600060208284031215612d0557600080fd5b6000612d1384828501612be2565b91505092915050565b60008060408385031215612d2f57600080fd5b6000612d3d85828601612be2565b9250506020612d4e85828601612be2565b9150509250929050565b600080600060608486031215612d6d57600080fd5b6000612d7b86828701612be2565b9350506020612d8c86828701612be2565b9250506040612d9d86828701612cde565b9150509250925092565b60008060008060808587031215612dbd57600080fd5b6000612dcb87828801612be2565b9450506020612ddc87828801612be2565b9350506040612ded87828801612cde565b925050606085013567ffffffffffffffff811115612e0a57600080fd5b612e1687828801612c8a565b91505092959194509250565b60008060008060808587031215612e3857600080fd5b6000612e4687828801612be2565b945050602085013567ffffffffffffffff811115612e6357600080fd5b612e6f87828801612c21565b935050604085013567ffffffffffffffff811115612e8c57600080fd5b612e9887828801612c21565b925050606085013567ffffffffffffffff811115612eb557600080fd5b612ec187828801612bf7565b91505092959194509250565b60008060408385031215612ee057600080fd5b6000612eee85828601612be2565b9250506020612eff85828601612c4b565b9150509250929050565b60008060408385031215612f1c57600080fd5b6000612f2a85828601612be2565b9250506020612f3b85828601612cde565b9150509250929050565b600080600060608486031215612f5a57600080fd5b600084013567ffffffffffffffff811115612f7457600080fd5b612f8086828701612c21565b935050602084013567ffffffffffffffff811115612f9d57600080fd5b612fa986828701612c21565b925050604084013567ffffffffffffffff811115612fc657600080fd5b612fd286828701612bf7565b9150509250925092565b600060208284031215612fee57600080fd5b6000612ffc84828501612c60565b91505092915050565b60006020828403121561301757600080fd5b600061302584828501612c75565b91505092915050565b60006020828403121561304057600080fd5b600061304e84828501612cde565b91505092915050565b61306081613a8a565b82525050565b61306f81613a9c565b82525050565b60006130808261398c565b61308a81856139a2565b935061309a818560208601613b0d565b6130a381613cd9565b840191505092915050565b60006130b982613997565b6130c381856139b3565b93506130d3818560208601613b0d565b6130dc81613cd9565b840191505092915050565b60006130f282613997565b6130fc81856139c4565b935061310c818560208601613b0d565b80840191505092915050565b6000613125602b836139b3565b915061313082613cea565b604082019050919050565b60006131486032836139b3565b915061315382613d39565b604082019050919050565b600061316b6026836139b3565b915061317682613d88565b604082019050919050565b600061318e6025836139b3565b915061319982613dd7565b604082019050919050565b60006131b1601c836139b3565b91506131bc82613e26565b602082019050919050565b60006131d46024836139b3565b91506131df82613e4f565b604082019050919050565b60006131f76019836139b3565b915061320282613e9e565b602082019050919050565b600061321a602c836139b3565b915061322582613ec7565b604082019050919050565b600061323d6037836139b3565b915061324882613f16565b604082019050919050565b60006132606038836139b3565b915061326b82613f65565b604082019050919050565b6000613283602a836139b3565b915061328e82613fb4565b604082019050919050565b60006132a66029836139b3565b91506132b182614003565b604082019050919050565b60006132c9602e836139b3565b91506132d482614052565b604082019050919050565b60006132ec6020836139b3565b91506132f7826140a1565b602082019050919050565b600061330f6031836139b3565b915061331a826140ca565b604082019050919050565b6000613332602c836139b3565b915061333d82614119565b604082019050919050565b60006133556020836139b3565b915061336082614168565b602082019050919050565b6000613378602f836139b3565b915061338382614191565b604082019050919050565b600061339b603f836139b3565b91506133a6826141e0565b604082019050919050565b60006133be6021836139b3565b91506133c98261422f565b604082019050919050565b60006133e16031836139b3565b91506133ec8261427e565b604082019050919050565b6000613404602c836139b3565b915061340f826142cd565b604082019050919050565b6000613427603e836139b3565b91506134328261431c565b604082019050919050565b61344681613af4565b82525050565b600061345882856130e7565b915061346482846130e7565b91508190509392505050565b60006020820190506134856000830184613057565b92915050565b60006080820190506134a06000830187613057565b6134ad6020830186613057565b6134ba604083018561343d565b81810360608301526134cc8184613075565b905095945050505050565b60006020820190506134ec6000830184613066565b92915050565b6000602082019050818103600083015261350c81846130ae565b905092915050565b6000606082019050818103600083015261352e81866130ae565b905061353d6020830185613057565b61354a604083018461343d565b949350505050565b6000604082019050818103600083015261356c81856130ae565b905061357b602083018461343d565b9392505050565b6000602082019050818103600083015261359b81613118565b9050919050565b600060208201905081810360008301526135bb8161313b565b9050919050565b600060208201905081810360008301526135db8161315e565b9050919050565b600060208201905081810360008301526135fb81613181565b9050919050565b6000602082019050818103600083015261361b816131a4565b9050919050565b6000602082019050818103600083015261363b816131c7565b9050919050565b6000602082019050818103600083015261365b816131ea565b9050919050565b6000602082019050818103600083015261367b8161320d565b9050919050565b6000602082019050818103600083015261369b81613230565b9050919050565b600060208201905081810360008301526136bb81613253565b9050919050565b600060208201905081810360008301526136db81613276565b9050919050565b600060208201905081810360008301526136fb81613299565b9050919050565b6000602082019050818103600083015261371b816132bc565b9050919050565b6000602082019050818103600083015261373b816132df565b9050919050565b6000602082019050818103600083015261375b81613302565b9050919050565b6000602082019050818103600083015261377b81613325565b9050919050565b6000602082019050818103600083015261379b81613348565b9050919050565b600060208201905081810360008301526137bb8161336b565b9050919050565b600060208201905081810360008301526137db8161338e565b9050919050565b600060208201905081810360008301526137fb816133b1565b9050919050565b6000602082019050818103600083015261381b816133d4565b9050919050565b6000602082019050818103600083015261383b816133f7565b9050919050565b6000602082019050818103600083015261385b8161341a565b9050919050565b6000602082019050613877600083018461343d565b92915050565b6000604082019050613892600083018561343d565b81810360208301526138a481846130ae565b90509392505050565b60006138b76138c8565b90506138c38282613b72565b919050565b6000604051905090565b600067ffffffffffffffff8211156138ed576138ec613caa565b5b602082029050602081019050919050565b600067ffffffffffffffff82111561391957613918613caa565b5b602082029050602081019050919050565b600067ffffffffffffffff82111561394557613944613caa565b5b61394e82613cd9565b9050602081019050919050565b600067ffffffffffffffff82111561397657613975613caa565b5b61397f82613cd9565b9050602081019050919050565b600081519050919050565b600081519050919050565b600082825260208201905092915050565b600082825260208201905092915050565b600081905092915050565b60006139da82613af4565b91506139e583613af4565b9250827fffffffffffffffffffffffffffffffffffffffffffffffffffffffffffffffff03821115613a1a57613a19613c1d565b5b828201905092915050565b6000613a3082613af4565b9150613a3b83613af4565b925082613a4b57613a4a613c4c565b5b828204905092915050565b6000613a6182613af4565b9150613a6c83613af4565b925082821015613a7f57613a7e613c1d565b5b828203905092915050565b6000613a9582613ad4565b9050919050565b60008115159050919050565b60007fffffffff0000000000000000000000000000000000000000000000000000000082169050919050565b600073ffffffffffffffffffffffffffffffffffffffff82169050919050565b6000819050919050565b82818337600083830152505050565b60005b83811015613b2b578082015181840152602081019050613b10565b83811115613b3a576000848401525b50505050565b60006002820490506001821680613b5857607f821691505b60208210811415613b6c57613b6b613c7b565b5b50919050565b613b7b82613cd9565b810181811067ffffffffffffffff82111715613b9a57613b99613caa565b5b80604052505050565b6000613bae82613af4565b91507fffffffffffffffffffffffffffffffffffffffffffffffffffffffffffffffff821415613be157613be0613c1d565b5b600182019050919050565b6000613bf782613af4565b9150613c0283613af4565b925082613c1257613c11613c4c565b5b828206905092915050565b7f4e487b7100000000000000000000000000000000000000000000000000000000600052601160045260246000fd5b7f4e487b7100000000000000000000000000000000000000000000000000000000600052601260045260246000fd5b7f4e487b7100000000000000000000000000000000000000000000000000000000600052602260045260246000fd5b7f4e487b7100000000000000000000000000000000000000000000000000000000600052604160045260246000fd5b6000601f19601f8301169050919050565b7f455243373231456e756d657261626c653a206f776e657220696e646578206f7560008201527f74206f6620626f756e6473000000000000000000000000000000000000000000602082015250565b7f4552433732313a207472616e7366657220746f206e6f6e20455243373231526560008201527f63656976657220696d706c656d656e7465720000000000000000000000000000602082015250565b7f4f776e61626c653a206e6577206f776e657220697320746865207a65726f206160008201527f6464726573730000000000000000000000000000000000000000000000000000602082015250565b7f4552433732313a207472616e736665722066726f6d20696e636f72726563742060008201527f6f776e6572000000000000000000000000000000000000000000000000000000602082015250565b7f4552433732313a20746f6b656e20616c7265616479206d696e74656400000000600082015250565b7f4552433732313a207472616e7366657220746f20746865207a65726f2061646460008201527f7265737300000000000000000000000000000000000000000000000000000000602082015250565b7f4552433732313a20617070726f766520746f2063616c6c657200000000000000600082015250565b7f4552433732313a206f70657261746f7220717565727920666f72206e6f6e657860008201527f697374656e7420746f6b656e0000000000000000000000000000000000000000602082015250565b7f4e756d626572206f66206964732073686f756c6420626520657175616c20746f60008201527f206e756d626572206f66206d6574616461746155524973000000000000000000602082015250565b7f4552433732313a20617070726f76652063616c6c6572206973206e6f74206f7760008201527f6e6572206e6f7220617070726f76656420666f7220616c6c0000000000000000602082015250565b7f4552433732313a2062616c616e636520717565727920666f7220746865207a6560008201527f726f206164647265737300000000000000000000000000000000000000000000602082015250565b7f4552433732313a206f776e657220717565727920666f72206e6f6e657869737460008201527f656e7420746f6b656e0000000000000000000000000000000000000000000000602082015250565b7f45524337323155524953746f726167653a2055524920736574206f66206e6f6e60008201527f6578697374656e7420746f6b656e000000000000000000000000000000000000602082015250565b7f4552433732313a206d696e7420746f20746865207a65726f2061646472657373600082015250565b7f45524337323155524953746f726167653a2055524920717565727920666f722060008201527f6e6f6e6578697374656e7420746f6b656e000000000000000000000000000000602082015250565b7f4552433732313a20617070726f76656420717565727920666f72206e6f6e657860008201527f697374656e7420746f6b656e0000000000000000000000000000000000000000602082015250565b7f4f776e61626c653a2063616c6c6572206973206e6f7420746865206f776e6572600082015250565b7f4552433732314d657461646174613a2055524920717565727920666f72206e6f60008201527f6e6578697374656e7420746f6b656e0000000000000000000000000000000000602082015250565b7f4e756d626572206f66206964732073686f756c6420626520657175616c20746f60008201527f206e756d626572206f66206174747269627574654d756c7469706c6965727300602082015250565b7f4552433732313a20617070726f76616c20746f2063757272656e74206f776e6560008201527f7200000000000000000000000000000000000000000000000000000000000000602082015250565b7f4552433732313a207472616e736665722063616c6c6572206973206e6f74206f60008201527f776e6572206e6f7220617070726f766564000000000000000000000000000000602082015250565b7f455243373231456e756d657261626c653a20676c6f62616c20696e646578206f60008201527f7574206f6620626f756e64730000000000000000000000000000000000000000602082015250565b7f4e756d626572206f66206964732073686f756c6420626520657175616c20746f60008201527f20746f74616c206e756d626572206f66206d696e74656420746f6b656e730000602082015250565b61437481613a8a565b811461437f57600080fd5b50565b61438b81613a9c565b811461439657600080fd5b50565b6143a281613aa8565b81146143ad57600080fd5b50565b6143b981613af4565b81146143c457600080fd5b5056fe43616c6c696e67206368616e67654d657461646174612077697468206e756d626572206f6620746f6b656e733a20256943616c6c696e67206d696e74546f6b656e207769746820616464726573733a20257320616e64206e756d626572206f6620746f6b656e733a202569a2646970667358221220071051117129c85857bd6237beaaf7b96b926bf117fe9192c11e0a388b6e48fd64736f6c63430008040033",
  "linkReferences": {},
  "deployedLinkReferences": {}
}