{
  "_format": "hh-sol-artifact-1",
  "contractName": "NFTMinter",
  "sourceName": "contracts/NFTMinter.sol",
  "abi": [
    {
      "inputs": [
        {
          "internalType": "string",
          "name": "tokenName",
          "type": "string"
        },
        {
          "internalType": "string",
          "name": "symbol",
          "type": "string"
        }
      ],
      "stateMutability": "nonpayable",
      "type": "constructor"
    },
    {
      "anonymous": false,
      "inputs": [
        {
          "indexed": true,
          "internalType": "address",
          "name": "owner",
          "type": "address"
        },
        {
          "indexed": true,
          "internalType": "address",
          "name": "approved",
          "type": "address"
        },
        {
          "indexed": true,
          "internalType": "uint256",
          "name": "tokenId",
          "type": "uint256"
        }
      ],
      "name": "Approval",
      "type": "event"
    },
    {
      "anonymous": false,
      "inputs": [
        {
          "indexed": true,
          "internalType": "address",
          "name": "owner",
          "type": "address"
        },
        {
          "indexed": true,
          "internalType": "address",
          "name": "operator",
          "type": "address"
        },
        {
          "indexed": false,
          "internalType": "bool",
          "name": "approved",
          "type": "bool"
        }
      ],
      "name": "ApprovalForAll",
      "type": "event"
    },
    {
      "anonymous": false,
      "inputs": [
        {
          "indexed": false,
          "internalType": "uint256",
          "name": "_id",
          "type": "uint256"
        },
        {
          "indexed": false,
          "internalType": "string",
          "name": "_metadataURI",
          "type": "string"
        }
      ],
      "name": "ChangedMetadata",
      "type": "event"
    },
    {
      "anonymous": false,
      "inputs": [
        {
          "indexed": false,
          "internalType": "uint256",
          "name": "_id",
          "type": "uint256"
        },
        {
          "indexed": true,
          "internalType": "address",
          "name": "_recipient",
          "type": "address"
        },
        {
          "indexed": false,
          "internalType": "string",
          "name": "_metadataURI",
          "type": "string"
        }
      ],
      "name": "Minted",
      "type": "event"
    },
    {
      "anonymous": false,
      "inputs": [
        {
          "indexed": true,
          "internalType": "address",
          "name": "previousOwner",
          "type": "address"
        },
        {
          "indexed": true,
          "internalType": "address",
          "name": "newOwner",
          "type": "address"
        }
      ],
      "name": "OwnershipTransferred",
      "type": "event"
    },
    {
      "anonymous": false,
      "inputs": [
        {
          "indexed": true,
          "internalType": "address",
          "name": "from",
          "type": "address"
        },
        {
          "indexed": true,
          "internalType": "address",
          "name": "to",
          "type": "address"
        },
        {
          "indexed": true,
          "internalType": "uint256",
          "name": "tokenId",
          "type": "uint256"
        }
      ],
      "name": "Transfer",
      "type": "event"
    },
    {
      "inputs": [
        {
          "internalType": "address",
          "name": "to",
          "type": "address"
        },
        {
          "internalType": "uint256",
          "name": "tokenId",
          "type": "uint256"
        }
      ],
      "name": "approve",
      "outputs": [],
      "stateMutability": "nonpayable",
      "type": "function"
    },
    {
      "inputs": [
        {
          "internalType": "address",
          "name": "owner",
          "type": "address"
        }
      ],
      "name": "balanceOf",
      "outputs": [
        {
          "internalType": "uint256",
          "name": "",
          "type": "uint256"
        }
      ],
      "stateMutability": "view",
      "type": "function"
    },
    {
      "inputs": [
        {
          "internalType": "uint256[]",
          "name": "ids",
          "type": "uint256[]"
        },
        {
          "internalType": "string[]",
          "name": "metadataURIs",
          "type": "string[]"
        }
      ],
      "name": "changeMetadata",
      "outputs": [],
      "stateMutability": "nonpayable",
      "type": "function"
    },
    {
      "inputs": [
        {
          "internalType": "uint256",
          "name": "tokenId",
          "type": "uint256"
        }
      ],
      "name": "getApproved",
      "outputs": [
        {
          "internalType": "address",
          "name": "",
          "type": "address"
        }
      ],
      "stateMutability": "view",
      "type": "function"
    },
    {
      "inputs": [
        {
          "internalType": "address",
          "name": "owner",
          "type": "address"
        },
        {
          "internalType": "address",
          "name": "operator",
          "type": "address"
        }
      ],
      "name": "isApprovedForAll",
      "outputs": [
        {
          "internalType": "bool",
          "name": "",
          "type": "bool"
        }
      ],
      "stateMutability": "view",
      "type": "function"
    },
    {
      "inputs": [
        {
          "internalType": "address",
          "name": "owner",
          "type": "address"
        },
        {
          "internalType": "uint256[]",
          "name": "ids",
          "type": "uint256[]"
        },
        {
          "internalType": "string[]",
          "name": "metadataURIs",
          "type": "string[]"
        }
      ],
      "name": "mintTokens",
      "outputs": [],
      "stateMutability": "nonpayable",
      "type": "function"
    },
    {
      "inputs": [],
      "name": "name",
      "outputs": [
        {
          "internalType": "string",
          "name": "",
          "type": "string"
        }
      ],
      "stateMutability": "view",
      "type": "function"
    },
    {
      "inputs": [],
      "name": "owner",
      "outputs": [
        {
          "internalType": "address",
          "name": "",
          "type": "address"
        }
      ],
      "stateMutability": "view",
      "type": "function"
    },
    {
      "inputs": [
        {
          "internalType": "uint256",
          "name": "tokenId",
          "type": "uint256"
        }
      ],
      "name": "ownerOf",
      "outputs": [
        {
          "internalType": "address",
          "name": "",
          "type": "address"
        }
      ],
      "stateMutability": "view",
      "type": "function"
    },
    {
      "inputs": [],
      "name": "renounceOwnership",
      "outputs": [],
      "stateMutability": "nonpayable",
      "type": "function"
    },
    {
      "inputs": [
        {
          "internalType": "address",
          "name": "from",
          "type": "address"
        },
        {
          "internalType": "address",
          "name": "to",
          "type": "address"
        },
        {
          "internalType": "uint256",
          "name": "tokenId",
          "type": "uint256"
        }
      ],
      "name": "safeTransferFrom",
      "outputs": [],
      "stateMutability": "nonpayable",
      "type": "function"
    },
    {
      "inputs": [
        {
          "internalType": "address",
          "name": "from",
          "type": "address"
        },
        {
          "internalType": "address",
          "name": "to",
          "type": "address"
        },
        {
          "internalType": "uint256",
          "name": "tokenId",
          "type": "uint256"
        },
        {
          "internalType": "bytes",
          "name": "_data",
          "type": "bytes"
        }
      ],
      "name": "safeTransferFrom",
      "outputs": [],
      "stateMutability": "nonpayable",
      "type": "function"
    },
    {
      "inputs": [
        {
          "internalType": "address",
          "name": "operator",
          "type": "address"
        },
        {
          "internalType": "bool",
          "name": "approved",
          "type": "bool"
        }
      ],
      "name": "setApprovalForAll",
      "outputs": [],
      "stateMutability": "nonpayable",
      "type": "function"
    },
    {
      "inputs": [
        {
          "internalType": "bytes4",
          "name": "interfaceId",
          "type": "bytes4"
        }
      ],
      "name": "supportsInterface",
      "outputs": [
        {
          "internalType": "bool",
          "name": "",
          "type": "bool"
        }
      ],
      "stateMutability": "view",
      "type": "function"
    },
    {
      "inputs": [],
      "name": "symbol",
      "outputs": [
        {
          "internalType": "string",
          "name": "",
          "type": "string"
        }
      ],
      "stateMutability": "view",
      "type": "function"
    },
    {
      "inputs": [
        {
          "internalType": "uint256",
          "name": "tokenId",
          "type": "uint256"
        }
      ],
      "name": "tokenURI",
      "outputs": [
        {
          "internalType": "string",
          "name": "",
          "type": "string"
        }
      ],
      "stateMutability": "view",
      "type": "function"
    },
    {
      "inputs": [
        {
          "internalType": "address",
          "name": "from",
          "type": "address"
        },
        {
          "internalType": "address",
          "name": "to",
          "type": "address"
        },
        {
          "internalType": "uint256",
          "name": "tokenId",
          "type": "uint256"
        }
      ],
      "name": "transferFrom",
      "outputs": [],
      "stateMutability": "nonpayable",
      "type": "function"
    },
    {
      "inputs": [
        {
          "internalType": "address",
          "name": "newOwner",
          "type": "address"
        }
      ],
      "name": "transferOwnership",
      "outputs": [],
      "stateMutability": "nonpayable",
      "type": "function"
    }
  ],
  "bytecode": "0x60806040523480156200001157600080fd5b5060405162003cdc38038062003cdc833981810160405281019062000037919062000285565b818181600090805190602001906200005192919062000163565b5080600190805190602001906200006a92919062000163565b5050506200008d620000816200009560201b60201c565b6200009d60201b60201c565b505062000468565b600033905090565b6000600760009054906101000a900473ffffffffffffffffffffffffffffffffffffffff16905081600760006101000a81548173ffffffffffffffffffffffffffffffffffffffff021916908373ffffffffffffffffffffffffffffffffffffffff1602179055508173ffffffffffffffffffffffffffffffffffffffff168173ffffffffffffffffffffffffffffffffffffffff167f8be0079c531659141344cd1fd0a4f28419497f9722a3daafe3b4186f6b6457e060405160405180910390a35050565b82805462000171906200038d565b90600052602060002090601f016020900481019282620001955760008555620001e1565b82601f10620001b057805160ff1916838001178555620001e1565b82800160010185558215620001e1579182015b82811115620001e0578251825591602001919060010190620001c3565b5b509050620001f09190620001f4565b5090565b5b808211156200020f576000816000905550600101620001f5565b5090565b60006200022a620002248462000321565b620002f8565b9050828152602081018484840111156200024357600080fd5b6200025084828562000357565b509392505050565b600082601f8301126200026a57600080fd5b81516200027c84826020860162000213565b91505092915050565b600080604083850312156200029957600080fd5b600083015167ffffffffffffffff811115620002b457600080fd5b620002c28582860162000258565b925050602083015167ffffffffffffffff811115620002e057600080fd5b620002ee8582860162000258565b9150509250929050565b60006200030462000317565b9050620003128282620003c3565b919050565b6000604051905090565b600067ffffffffffffffff8211156200033f576200033e62000428565b5b6200034a8262000457565b9050602081019050919050565b60005b83811015620003775780820151818401526020810190506200035a565b8381111562000387576000848401525b50505050565b60006002820490506001821680620003a657607f821691505b60208210811415620003bd57620003bc620003f9565b5b50919050565b620003ce8262000457565b810181811067ffffffffffffffff82111715620003f057620003ef62000428565b5b80604052505050565b7f4e487b7100000000000000000000000000000000000000000000000000000000600052602260045260246000fd5b7f4e487b7100000000000000000000000000000000000000000000000000000000600052604160045260246000fd5b6000601f19601f8301169050919050565b61386480620004786000396000f3fe608060405234801561001057600080fd5b50600436106101165760003560e01c80638da5cb5b116100a2578063b88d4fde11610071578063b88d4fde146102cb578063c87b56dd146102e7578063dba9673914610317578063e985e9c514610333578063f2fde38b1461036357610116565b80638da5cb5b1461025757806395d89b4114610275578063a22cb46514610293578063aee1e95f146102af57610116565b806323b872dd116100e957806323b872dd146101b557806342842e0e146101d15780636352211e146101ed57806370a082311461021d578063715018a61461024d57610116565b806301ffc9a71461011b57806306fdde031461014b578063081812fc14610169578063095ea7b314610199575b600080fd5b610135600480360381019061013091906126b2565b61037f565b6040516101429190612afe565b60405180910390f35b610153610461565b6040516101609190612b19565b60405180910390f35b610183600480360381019061017e9190612704565b6104f3565b6040516101909190612a97565b60405180910390f35b6101b360048036038101906101ae919061260a565b610578565b005b6101cf60048036038101906101ca9190612485565b610690565b005b6101eb60048036038101906101e69190612485565b6106f0565b005b61020760048036038101906102029190612704565b610710565b6040516102149190612a97565b60405180910390f35b61023760048036038101906102329190612420565b6107c2565b6040516102449190612de9565b60405180910390f35b61025561087a565b005b61025f610902565b60405161026c9190612a97565b60405180910390f35b61027d61092c565b60405161028a9190612b19565b60405180910390f35b6102ad60048036038101906102a891906125ce565b6109be565b005b6102c960048036038101906102c49190612646565b6109d4565b005b6102e560048036038101906102e091906124d4565b610bde565b005b61030160048036038101906102fc9190612704565b610c40565b60405161030e9190612b19565b60405180910390f35b610331600480360381019061032c919061254f565b610d92565b005b61034d60048036038101906103489190612449565b610f89565b60405161035a9190612afe565b60405180910390f35b61037d60048036038101906103789190612420565b61101d565b005b60007f80ac58cd000000000000000000000000000000000000000000000000000000007bffffffffffffffffffffffffffffffffffffffffffffffffffffffff1916827bffffffffffffffffffffffffffffffffffffffffffffffffffffffff1916148061044a57507f5b5e139f000000000000000000000000000000000000000000000000000000007bffffffffffffffffffffffffffffffffffffffffffffffffffffffff1916827bffffffffffffffffffffffffffffffffffffffffffffffffffffffff1916145b8061045a575061045982611115565b5b9050919050565b606060008054610470906130c7565b80601f016020809104026020016040519081016040528092919081815260200182805461049c906130c7565b80156104e95780601f106104be576101008083540402835291602001916104e9565b820191906000526020600020905b8154815290600101906020018083116104cc57829003601f168201915b5050505050905090565b60006104fe8261117f565b61053d576040517f08c379a000000000000000000000000000000000000000000000000000000000815260040161053490612d49565b60405180910390fd5b6004600083815260200190815260200160002060009054906101000a900473ffffffffffffffffffffffffffffffffffffffff169050919050565b600061058382610710565b90508073ffffffffffffffffffffffffffffffffffffffff168373ffffffffffffffffffffffffffffffffffffffff1614156105f4576040517f08c379a00000000000000000000000000000000000000000000000000000000081526004016105eb90612da9565b60405180910390fd5b8073ffffffffffffffffffffffffffffffffffffffff166106136111eb565b73ffffffffffffffffffffffffffffffffffffffff16148061064257506106418161063c6111eb565b610f89565b5b610681576040517f08c379a000000000000000000000000000000000000000000000000000000000815260040161067890612c89565b60405180910390fd5b61068b83836111f3565b505050565b6106a161069b6111eb565b826112ac565b6106e0576040517f08c379a00000000000000000000000000000000000000000000000000000000081526004016106d790612dc9565b60405180910390fd5b6106eb83838361138a565b505050565b61070b83838360405180602001604052806000815250610bde565b505050565b6000806002600084815260200190815260200160002060009054906101000a900473ffffffffffffffffffffffffffffffffffffffff169050600073ffffffffffffffffffffffffffffffffffffffff168173ffffffffffffffffffffffffffffffffffffffff1614156107b9576040517f08c379a00000000000000000000000000000000000000000000000000000000081526004016107b090612cc9565b60405180910390fd5b80915050919050565b60008073ffffffffffffffffffffffffffffffffffffffff168273ffffffffffffffffffffffffffffffffffffffff161415610833576040517f08c379a000000000000000000000000000000000000000000000000000000000815260040161082a90612ca9565b60405180910390fd5b600360008373ffffffffffffffffffffffffffffffffffffffff1673ffffffffffffffffffffffffffffffffffffffff168152602001908152602001600020549050919050565b6108826111eb565b73ffffffffffffffffffffffffffffffffffffffff166108a0610902565b73ffffffffffffffffffffffffffffffffffffffff16146108f6576040517f08c379a00000000000000000000000000000000000000000000000000000000081526004016108ed90612d69565b60405180910390fd5b61090060006115f1565b565b6000600760009054906101000a900473ffffffffffffffffffffffffffffffffffffffff16905090565b60606001805461093b906130c7565b80601f0160208091040260200160405190810160405280929190818152602001828054610967906130c7565b80156109b45780601f10610989576101008083540402835291602001916109b4565b820191906000526020600020905b81548152906001019060200180831161099757829003601f168201915b5050505050905090565b6109d06109c96111eb565b83836116b7565b5050565b6109dc6111eb565b73ffffffffffffffffffffffffffffffffffffffff166109fa610902565b73ffffffffffffffffffffffffffffffffffffffff1614610a50576040517f08c379a0000000000000000000000000000000000000000000000000000000008152600401610a4790612d69565b60405180910390fd5b8051825114610a88577f4e487b7100000000000000000000000000000000000000000000000000000000600052600160045260246000fd5b610a926008611824565b825114610ac8577f4e487b7100000000000000000000000000000000000000000000000000000000600052600160045260246000fd5b610aeb6040518060600160405280603081526020016137c4603091398351611832565b60005b8251811015610bd9576000838281518110610b32577f4e487b7100000000000000000000000000000000000000000000000000000000600052603260045260246000fd5b602002602001015190506000838381518110610b77577f4e487b7100000000000000000000000000000000000000000000000000000000600052603260045260246000fd5b60200260200101519050610b8b82826118ce565b7f4d94d4affb979a60a2e3d4c124aa66d9a0cbe06512c55be44ed71848bade454d8282604051610bbc929190612e04565b60405180910390a150508080610bd19061312a565b915050610aee565b505050565b610bef610be96111eb565b836112ac565b610c2e576040517f08c379a0000000000000000000000000000000000000000000000000000000008152600401610c2590612dc9565b60405180910390fd5b610c3a84848484611942565b50505050565b6060610c4b8261117f565b610c8a576040517f08c379a0000000000000000000000000000000000000000000000000000000008152600401610c8190612d29565b60405180910390fd5b6000600660008481526020019081526020016000208054610caa906130c7565b80601f0160208091040260200160405190810160405280929190818152602001828054610cd6906130c7565b8015610d235780601f10610cf857610100808354040283529160200191610d23565b820191906000526020600020905b815481529060010190602001808311610d0657829003601f168201915b505050505090506000610d3461199e565b9050600081511415610d4a578192505050610d8d565b600082511115610d7f578082604051602001610d67929190612a73565b60405160208183030381529060405292505050610d8d565b610d88846119b5565b925050505b919050565b610d9a6111eb565b73ffffffffffffffffffffffffffffffffffffffff16610db8610902565b73ffffffffffffffffffffffffffffffffffffffff1614610e0e576040517f08c379a0000000000000000000000000000000000000000000000000000000008152600401610e0590612d69565b60405180910390fd5b8051825114610e46577f4e487b7100000000000000000000000000000000000000000000000000000000600052600160045260246000fd5b610e6a6040518060600160405280603b81526020016137f4603b9139848451611a5c565b60005b8251811015610f8357610e806008611afb565b6000838281518110610ebb577f4e487b7100000000000000000000000000000000000000000000000000000000600052603260045260246000fd5b602002602001015190506000838381518110610f00577f4e487b7100000000000000000000000000000000000000000000000000000000600052603260045260246000fd5b60200260200101519050610f148683611b11565b610f1e82826118ce565b8573ffffffffffffffffffffffffffffffffffffffff167f3b8a974a6971dbe70c8718ec80406b2790d2aa5477b6a5bed3d94fa19e06d60d8383604051610f66929190612e04565b60405180910390a250508080610f7b9061312a565b915050610e6d565b50505050565b6000600560008473ffffffffffffffffffffffffffffffffffffffff1673ffffffffffffffffffffffffffffffffffffffff16815260200190815260200160002060008373ffffffffffffffffffffffffffffffffffffffff1673ffffffffffffffffffffffffffffffffffffffff16815260200190815260200160002060009054906101000a900460ff16905092915050565b6110256111eb565b73ffffffffffffffffffffffffffffffffffffffff16611043610902565b73ffffffffffffffffffffffffffffffffffffffff1614611099576040517f08c379a000000000000000000000000000000000000000000000000000000000815260040161109090612d69565b60405180910390fd5b600073ffffffffffffffffffffffffffffffffffffffff168173ffffffffffffffffffffffffffffffffffffffff161415611109576040517f08c379a000000000000000000000000000000000000000000000000000000000815260040161110090612bc9565b60405180910390fd5b611112816115f1565b50565b60007f01ffc9a7000000000000000000000000000000000000000000000000000000007bffffffffffffffffffffffffffffffffffffffffffffffffffffffff1916827bffffffffffffffffffffffffffffffffffffffffffffffffffffffff1916149050919050565b60008073ffffffffffffffffffffffffffffffffffffffff166002600084815260200190815260200160002060009054906101000a900473ffffffffffffffffffffffffffffffffffffffff1673ffffffffffffffffffffffffffffffffffffffff1614159050919050565b600033905090565b816004600083815260200190815260200160002060006101000a81548173ffffffffffffffffffffffffffffffffffffffff021916908373ffffffffffffffffffffffffffffffffffffffff160217905550808273ffffffffffffffffffffffffffffffffffffffff1661126683610710565b73ffffffffffffffffffffffffffffffffffffffff167f8c5be1e5ebec7d5bd14f71427d1e84f3dd0314c0f7b2291e5b200ac8c7c3b92560405160405180910390a45050565b60006112b78261117f565b6112f6576040517f08c379a00000000000000000000000000000000000000000000000000000000081526004016112ed90612c69565b60405180910390fd5b600061130183610710565b90508073ffffffffffffffffffffffffffffffffffffffff168473ffffffffffffffffffffffffffffffffffffffff16148061137057508373ffffffffffffffffffffffffffffffffffffffff16611358846104f3565b73ffffffffffffffffffffffffffffffffffffffff16145b8061138157506113808185610f89565b5b91505092915050565b8273ffffffffffffffffffffffffffffffffffffffff166113aa82610710565b73ffffffffffffffffffffffffffffffffffffffff1614611400576040517f08c379a00000000000000000000000000000000000000000000000000000000081526004016113f790612be9565b60405180910390fd5b600073ffffffffffffffffffffffffffffffffffffffff168273ffffffffffffffffffffffffffffffffffffffff161415611470576040517f08c379a000000000000000000000000000000000000000000000000000000000815260040161146790612c29565b60405180910390fd5b61147b838383611b2f565b6114866000826111f3565b6001600360008573ffffffffffffffffffffffffffffffffffffffff1673ffffffffffffffffffffffffffffffffffffffff16815260200190815260200160002060008282546114d69190612fdd565b925050819055506001600360008473ffffffffffffffffffffffffffffffffffffffff1673ffffffffffffffffffffffffffffffffffffffff168152602001908152602001600020600082825461152d9190612f56565b92505081905550816002600083815260200190815260200160002060006101000a81548173ffffffffffffffffffffffffffffffffffffffff021916908373ffffffffffffffffffffffffffffffffffffffff160217905550808273ffffffffffffffffffffffffffffffffffffffff168473ffffffffffffffffffffffffffffffffffffffff167fddf252ad1be2c89b69c2b068fc378daa952ba7f163c4a11628f55a4df523b3ef60405160405180910390a46115ec838383611b34565b505050565b6000600760009054906101000a900473ffffffffffffffffffffffffffffffffffffffff16905081600760006101000a81548173ffffffffffffffffffffffffffffffffffffffff021916908373ffffffffffffffffffffffffffffffffffffffff1602179055508173ffffffffffffffffffffffffffffffffffffffff168173ffffffffffffffffffffffffffffffffffffffff167f8be0079c531659141344cd1fd0a4f28419497f9722a3daafe3b4186f6b6457e060405160405180910390a35050565b8173ffffffffffffffffffffffffffffffffffffffff168373ffffffffffffffffffffffffffffffffffffffff161415611726576040517f08c379a000000000000000000000000000000000000000000000000000000000815260040161171d90612c49565b60405180910390fd5b80600560008573ffffffffffffffffffffffffffffffffffffffff1673ffffffffffffffffffffffffffffffffffffffff16815260200190815260200160002060008473ffffffffffffffffffffffffffffffffffffffff1673ffffffffffffffffffffffffffffffffffffffff16815260200190815260200160002060006101000a81548160ff0219169083151502179055508173ffffffffffffffffffffffffffffffffffffffff168373ffffffffffffffffffffffffffffffffffffffff167f17307eab39ab6107e8899845ad3d59bd9653f200f220920489ca2b5937696c31836040516118179190612afe565b60405180910390a3505050565b600081600001549050919050565b6118ca8282604051602401611848929190612b79565b6040516020818303038152906040527f9710a9d0000000000000000000000000000000000000000000000000000000007bffffffffffffffffffffffffffffffffffffffffffffffffffffffff19166020820180517bffffffffffffffffffffffffffffffffffffffffffffffffffffffff8381831617835250505050611b39565b5050565b6118d78261117f565b611916576040517f08c379a000000000000000000000000000000000000000000000000000000000815260040161190d90612ce9565b60405180910390fd5b8060066000848152602001908152602001600020908051906020019061193d9291906120fe565b505050565b61194d84848461138a565b61195984848484611b62565b611998576040517f08c379a000000000000000000000000000000000000000000000000000000000815260040161198f90612ba9565b60405180910390fd5b50505050565b606060405180602001604052806000815250905090565b60606119c08261117f565b6119ff576040517f08c379a00000000000000000000000000000000000000000000000000000000081526004016119f690612d89565b60405180910390fd5b6000611a0961199e565b90506000815111611a295760405180602001604052806000815250611a54565b80611a3384611cf9565b604051602001611a44929190612a73565b6040516020818303038152906040525b915050919050565b611af6838383604051602401611a7493929190612b3b565b6040516020818303038152906040527f07c81217000000000000000000000000000000000000000000000000000000007bffffffffffffffffffffffffffffffffffffffffffffffffffffffff19166020820180517bffffffffffffffffffffffffffffffffffffffffffffffffffffffff8381831617835250505050611b39565b505050565b6001816000016000828254019250508190555050565b611b2b828260405180602001604052806000815250611ea6565b5050565b505050565b505050565b60008151905060006a636f6e736f6c652e6c6f679050602083016000808483855afa5050505050565b6000611b838473ffffffffffffffffffffffffffffffffffffffff16611f01565b15611cec578373ffffffffffffffffffffffffffffffffffffffff1663150b7a02611bac6111eb565b8786866040518563ffffffff1660e01b8152600401611bce9493929190612ab2565b602060405180830381600087803b158015611be857600080fd5b505af1925050508015611c1957506040513d601f19601f82011682018060405250810190611c1691906126db565b60015b611c9c573d8060008114611c49576040519150601f19603f3d011682016040523d82523d6000602084013e611c4e565b606091505b50600081511415611c94576040517f08c379a0000000000000000000000000000000000000000000000000000000008152600401611c8b90612ba9565b60405180910390fd5b805181602001fd5b63150b7a0260e01b7bffffffffffffffffffffffffffffffffffffffffffffffffffffffff1916817bffffffffffffffffffffffffffffffffffffffffffffffffffffffff191614915050611cf1565b600190505b949350505050565b60606000821415611d41576040518060400160405280600181526020017f30000000000000000000000000000000000000000000000000000000000000008152509050611ea1565b600082905060005b60008214611d73578080611d5c9061312a565b915050600a82611d6c9190612fac565b9150611d49565b60008167ffffffffffffffff811115611db5577f4e487b7100000000000000000000000000000000000000000000000000000000600052604160045260246000fd5b6040519080825280601f01601f191660200182016040528015611de75781602001600182028036833780820191505090505b5090505b60008514611e9a57600182611e009190612fdd565b9150600a85611e0f9190613173565b6030611e1b9190612f56565b60f81b818381518110611e57577f4e487b7100000000000000000000000000000000000000000000000000000000600052603260045260246000fd5b60200101907effffffffffffffffffffffffffffffffffffffffffffffffffffffffffffff1916908160001a905350600a85611e939190612fac565b9450611deb565b8093505050505b919050565b611eb08383611f24565b611ebd6000848484611b62565b611efc576040517f08c379a0000000000000000000000000000000000000000000000000000000008152600401611ef390612ba9565b60405180910390fd5b505050565b6000808273ffffffffffffffffffffffffffffffffffffffff163b119050919050565b600073ffffffffffffffffffffffffffffffffffffffff168273ffffffffffffffffffffffffffffffffffffffff161415611f94576040517f08c379a0000000000000000000000000000000000000000000000000000000008152600401611f8b90612d09565b60405180910390fd5b611f9d8161117f565b15611fdd576040517f08c379a0000000000000000000000000000000000000000000000000000000008152600401611fd490612c09565b60405180910390fd5b611fe960008383611b2f565b6001600360008473ffffffffffffffffffffffffffffffffffffffff1673ffffffffffffffffffffffffffffffffffffffff16815260200190815260200160002060008282546120399190612f56565b92505081905550816002600083815260200190815260200160002060006101000a81548173ffffffffffffffffffffffffffffffffffffffff021916908373ffffffffffffffffffffffffffffffffffffffff160217905550808273ffffffffffffffffffffffffffffffffffffffff16600073ffffffffffffffffffffffffffffffffffffffff167fddf252ad1be2c89b69c2b068fc378daa952ba7f163c4a11628f55a4df523b3ef60405160405180910390a46120fa60008383611b34565b5050565b82805461210a906130c7565b90600052602060002090601f01602090048101928261212c5760008555612173565b82601f1061214557805160ff1916838001178555612173565b82800160010185558215612173579182015b82811115612172578251825591602001919060010190612157565b5b5090506121809190612184565b5090565b5b8082111561219d576000816000905550600101612185565b5090565b60006121b46121af84612e59565b612e34565b905080838252602082019050828560208602820111156121d357600080fd5b60005b8581101561221d57813567ffffffffffffffff8111156121f557600080fd5b80860161220289826123e1565b855260208501945060208401935050506001810190506121d6565b5050509392505050565b600061223a61223584612e85565b612e34565b9050808382526020820190508285602086028201111561225957600080fd5b60005b85811015612289578161226f888261240b565b84526020840193506020830192505060018101905061225c565b5050509392505050565b60006122a66122a184612eb1565b612e34565b9050828152602081018484840111156122be57600080fd5b6122c9848285613085565b509392505050565b60006122e46122df84612ee2565b612e34565b9050828152602081018484840111156122fc57600080fd5b612307848285613085565b509392505050565b60008135905061231e81613767565b92915050565b600082601f83011261233557600080fd5b81356123458482602086016121a1565b91505092915050565b600082601f83011261235f57600080fd5b813561236f848260208601612227565b91505092915050565b6000813590506123878161377e565b92915050565b60008135905061239c81613795565b92915050565b6000815190506123b181613795565b92915050565b600082601f8301126123c857600080fd5b81356123d8848260208601612293565b91505092915050565b600082601f8301126123f257600080fd5b81356124028482602086016122d1565b91505092915050565b60008135905061241a816137ac565b92915050565b60006020828403121561243257600080fd5b60006124408482850161230f565b91505092915050565b6000806040838503121561245c57600080fd5b600061246a8582860161230f565b925050602061247b8582860161230f565b9150509250929050565b60008060006060848603121561249a57600080fd5b60006124a88682870161230f565b93505060206124b98682870161230f565b92505060406124ca8682870161240b565b9150509250925092565b600080600080608085870312156124ea57600080fd5b60006124f88782880161230f565b94505060206125098782880161230f565b935050604061251a8782880161240b565b925050606085013567ffffffffffffffff81111561253757600080fd5b612543878288016123b7565b91505092959194509250565b60008060006060848603121561256457600080fd5b60006125728682870161230f565b935050602084013567ffffffffffffffff81111561258f57600080fd5b61259b8682870161234e565b925050604084013567ffffffffffffffff8111156125b857600080fd5b6125c486828701612324565b9150509250925092565b600080604083850312156125e157600080fd5b60006125ef8582860161230f565b925050602061260085828601612378565b9150509250929050565b6000806040838503121561261d57600080fd5b600061262b8582860161230f565b925050602061263c8582860161240b565b9150509250929050565b6000806040838503121561265957600080fd5b600083013567ffffffffffffffff81111561267357600080fd5b61267f8582860161234e565b925050602083013567ffffffffffffffff81111561269c57600080fd5b6126a885828601612324565b9150509250929050565b6000602082840312156126c457600080fd5b60006126d28482850161238d565b91505092915050565b6000602082840312156126ed57600080fd5b60006126fb848285016123a2565b91505092915050565b60006020828403121561271657600080fd5b60006127248482850161240b565b91505092915050565b61273681613011565b82525050565b61274581613023565b82525050565b600061275682612f13565b6127608185612f29565b9350612770818560208601613094565b61277981613260565b840191505092915050565b600061278f82612f1e565b6127998185612f3a565b93506127a9818560208601613094565b6127b281613260565b840191505092915050565b60006127c882612f1e565b6127d28185612f4b565b93506127e2818560208601613094565b80840191505092915050565b60006127fb603283612f3a565b915061280682613271565b604082019050919050565b600061281e602683612f3a565b9150612829826132c0565b604082019050919050565b6000612841602583612f3a565b915061284c8261330f565b604082019050919050565b6000612864601c83612f3a565b915061286f8261335e565b602082019050919050565b6000612887602483612f3a565b915061289282613387565b604082019050919050565b60006128aa601983612f3a565b91506128b5826133d6565b602082019050919050565b60006128cd602c83612f3a565b91506128d8826133ff565b604082019050919050565b60006128f0603883612f3a565b91506128fb8261344e565b604082019050919050565b6000612913602a83612f3a565b915061291e8261349d565b604082019050919050565b6000612936602983612f3a565b9150612941826134ec565b604082019050919050565b6000612959602e83612f3a565b91506129648261353b565b604082019050919050565b600061297c602083612f3a565b91506129878261358a565b602082019050919050565b600061299f603183612f3a565b91506129aa826135b3565b604082019050919050565b60006129c2602c83612f3a565b91506129cd82613602565b604082019050919050565b60006129e5602083612f3a565b91506129f082613651565b602082019050919050565b6000612a08602f83612f3a565b9150612a138261367a565b604082019050919050565b6000612a2b602183612f3a565b9150612a36826136c9565b604082019050919050565b6000612a4e603183612f3a565b9150612a5982613718565b604082019050919050565b612a6d8161307b565b82525050565b6000612a7f82856127bd565b9150612a8b82846127bd565b91508190509392505050565b6000602082019050612aac600083018461272d565b92915050565b6000608082019050612ac7600083018761272d565b612ad4602083018661272d565b612ae16040830185612a64565b8181036060830152612af3818461274b565b905095945050505050565b6000602082019050612b13600083018461273c565b92915050565b60006020820190508181036000830152612b338184612784565b905092915050565b60006060820190508181036000830152612b558186612784565b9050612b64602083018561272d565b612b716040830184612a64565b949350505050565b60006040820190508181036000830152612b938185612784565b9050612ba26020830184612a64565b9392505050565b60006020820190508181036000830152612bc2816127ee565b9050919050565b60006020820190508181036000830152612be281612811565b9050919050565b60006020820190508181036000830152612c0281612834565b9050919050565b60006020820190508181036000830152612c2281612857565b9050919050565b60006020820190508181036000830152612c428161287a565b9050919050565b60006020820190508181036000830152612c628161289d565b9050919050565b60006020820190508181036000830152612c82816128c0565b9050919050565b60006020820190508181036000830152612ca2816128e3565b9050919050565b60006020820190508181036000830152612cc281612906565b9050919050565b60006020820190508181036000830152612ce281612929565b9050919050565b60006020820190508181036000830152612d028161294c565b9050919050565b60006020820190508181036000830152612d228161296f565b9050919050565b60006020820190508181036000830152612d4281612992565b9050919050565b60006020820190508181036000830152612d62816129b5565b9050919050565b60006020820190508181036000830152612d82816129d8565b9050919050565b60006020820190508181036000830152612da2816129fb565b9050919050565b60006020820190508181036000830152612dc281612a1e565b9050919050565b60006020820190508181036000830152612de281612a41565b9050919050565b6000602082019050612dfe6000830184612a64565b92915050565b6000604082019050612e196000830185612a64565b8181036020830152612e2b8184612784565b90509392505050565b6000612e3e612e4f565b9050612e4a82826130f9565b919050565b6000604051905090565b600067ffffffffffffffff821115612e7457612e73613231565b5b602082029050602081019050919050565b600067ffffffffffffffff821115612ea057612e9f613231565b5b602082029050602081019050919050565b600067ffffffffffffffff821115612ecc57612ecb613231565b5b612ed582613260565b9050602081019050919050565b600067ffffffffffffffff821115612efd57612efc613231565b5b612f0682613260565b9050602081019050919050565b600081519050919050565b600081519050919050565b600082825260208201905092915050565b600082825260208201905092915050565b600081905092915050565b6000612f618261307b565b9150612f6c8361307b565b9250827fffffffffffffffffffffffffffffffffffffffffffffffffffffffffffffffff03821115612fa157612fa06131a4565b5b828201905092915050565b6000612fb78261307b565b9150612fc28361307b565b925082612fd257612fd16131d3565b5b828204905092915050565b6000612fe88261307b565b9150612ff38361307b565b925082821015613006576130056131a4565b5b828203905092915050565b600061301c8261305b565b9050919050565b60008115159050919050565b60007fffffffff0000000000000000000000000000000000000000000000000000000082169050919050565b600073ffffffffffffffffffffffffffffffffffffffff82169050919050565b6000819050919050565b82818337600083830152505050565b60005b838110156130b2578082015181840152602081019050613097565b838111156130c1576000848401525b50505050565b600060028204905060018216806130df57607f821691505b602082108114156130f3576130f2613202565b5b50919050565b61310282613260565b810181811067ffffffffffffffff8211171561312157613120613231565b5b80604052505050565b60006131358261307b565b91507fffffffffffffffffffffffffffffffffffffffffffffffffffffffffffffffff821415613168576131676131a4565b5b600182019050919050565b600061317e8261307b565b91506131898361307b565b925082613199576131986131d3565b5b828206905092915050565b7f4e487b7100000000000000000000000000000000000000000000000000000000600052601160045260246000fd5b7f4e487b7100000000000000000000000000000000000000000000000000000000600052601260045260246000fd5b7f4e487b7100000000000000000000000000000000000000000000000000000000600052602260045260246000fd5b7f4e487b7100000000000000000000000000000000000000000000000000000000600052604160045260246000fd5b6000601f19601f8301169050919050565b7f4552433732313a207472616e7366657220746f206e6f6e20455243373231526560008201527f63656976657220696d706c656d656e7465720000000000000000000000000000602082015250565b7f4f776e61626c653a206e6577206f776e657220697320746865207a65726f206160008201527f6464726573730000000000000000000000000000000000000000000000000000602082015250565b7f4552433732313a207472616e736665722066726f6d20696e636f72726563742060008201527f6f776e6572000000000000000000000000000000000000000000000000000000602082015250565b7f4552433732313a20746f6b656e20616c7265616479206d696e74656400000000600082015250565b7f4552433732313a207472616e7366657220746f20746865207a65726f2061646460008201527f7265737300000000000000000000000000000000000000000000000000000000602082015250565b7f4552433732313a20617070726f766520746f2063616c6c657200000000000000600082015250565b7f4552433732313a206f70657261746f7220717565727920666f72206e6f6e657860008201527f697374656e7420746f6b656e0000000000000000000000000000000000000000602082015250565b7f4552433732313a20617070726f76652063616c6c6572206973206e6f74206f7760008201527f6e6572206e6f7220617070726f76656420666f7220616c6c0000000000000000602082015250565b7f4552433732313a2062616c616e636520717565727920666f7220746865207a6560008201527f726f206164647265737300000000000000000000000000000000000000000000602082015250565b7f4552433732313a206f776e657220717565727920666f72206e6f6e657869737460008201527f656e7420746f6b656e0000000000000000000000000000000000000000000000602082015250565b7f45524337323155524953746f726167653a2055524920736574206f66206e6f6e60008201527f6578697374656e7420746f6b656e000000000000000000000000000000000000602082015250565b7f4552433732313a206d696e7420746f20746865207a65726f2061646472657373600082015250565b7f45524337323155524953746f726167653a2055524920717565727920666f722060008201527f6e6f6e6578697374656e7420746f6b656e000000000000000000000000000000602082015250565b7f4552433732313a20617070726f76656420717565727920666f72206e6f6e657860008201527f697374656e7420746f6b656e0000000000000000000000000000000000000000602082015250565b7f4f776e61626c653a2063616c6c6572206973206e6f7420746865206f776e6572600082015250565b7f4552433732314d657461646174613a2055524920717565727920666f72206e6f60008201527f6e6578697374656e7420746f6b656e0000000000000000000000000000000000602082015250565b7f4552433732313a20617070726f76616c20746f2063757272656e74206f776e6560008201527f7200000000000000000000000000000000000000000000000000000000000000602082015250565b7f4552433732313a207472616e736665722063616c6c6572206973206e6f74206f60008201527f776e6572206e6f7220617070726f766564000000000000000000000000000000602082015250565b61377081613011565b811461377b57600080fd5b50565b61378781613023565b811461379257600080fd5b50565b61379e8161302f565b81146137a957600080fd5b50565b6137b58161307b565b81146137c057600080fd5b5056fe43616c6c696e67206368616e67654d657461646174612077697468206e756d626572206f6620746f6b656e733a20256943616c6c696e67206d696e74546f6b656e207769746820616464726573733a20257320616e64206e756d626572206f6620746f6b656e733a202569a26469706673582212205c76f17a853971f25a8a8e2d90022aa86e28d7eb65e30b2bbd8f9642cb69b1c264736f6c63430008040033",
  "linkReferences": {},
  "deployedLinkReferences": {}
}