{
  "_format": "hh-sol-artifact-1",
  "contractName": "NFTMinter",
  "sourceName": "contracts/NFTMinter.sol",
  "abi": [
    {
      "inputs": [
        {
          "internalType": "string",
          "name": "tokenName",
          "type": "string"
        },
        {
          "internalType": "string",
          "name": "symbol",
          "type": "string"
        }
      ],
      "stateMutability": "nonpayable",
      "type": "constructor"
    },
    {
      "anonymous": false,
      "inputs": [
        {
          "indexed": true,
          "internalType": "address",
          "name": "owner",
          "type": "address"
        },
        {
          "indexed": true,
          "internalType": "address",
          "name": "approved",
          "type": "address"
        },
        {
          "indexed": true,
          "internalType": "uint256",
          "name": "tokenId",
          "type": "uint256"
        }
      ],
      "name": "Approval",
      "type": "event"
    },
    {
      "anonymous": false,
      "inputs": [
        {
          "indexed": true,
          "internalType": "address",
          "name": "owner",
          "type": "address"
        },
        {
          "indexed": true,
          "internalType": "address",
          "name": "operator",
          "type": "address"
        },
        {
          "indexed": false,
          "internalType": "bool",
          "name": "approved",
          "type": "bool"
        }
      ],
      "name": "ApprovalForAll",
      "type": "event"
    },
    {
      "anonymous": false,
      "inputs": [
        {
          "indexed": false,
          "internalType": "uint256",
          "name": "_id",
          "type": "uint256"
        },
        {
          "indexed": false,
          "internalType": "string",
          "name": "_metadataURI",
          "type": "string"
        }
      ],
      "name": "ChangedMetadata",
      "type": "event"
    },
    {
      "anonymous": false,
      "inputs": [
        {
          "indexed": false,
          "internalType": "uint256",
          "name": "_id",
          "type": "uint256"
        },
        {
          "indexed": true,
          "internalType": "address",
          "name": "_recipient",
          "type": "address"
        },
        {
          "indexed": false,
          "internalType": "string",
          "name": "_metadataURI",
          "type": "string"
        }
      ],
      "name": "Minted",
      "type": "event"
    },
    {
      "anonymous": false,
      "inputs": [
        {
          "indexed": true,
          "internalType": "address",
          "name": "previousOwner",
          "type": "address"
        },
        {
          "indexed": true,
          "internalType": "address",
          "name": "newOwner",
          "type": "address"
        }
      ],
      "name": "OwnershipTransferred",
      "type": "event"
    },
    {
      "anonymous": false,
      "inputs": [
        {
          "indexed": true,
          "internalType": "address",
          "name": "from",
          "type": "address"
        },
        {
          "indexed": true,
          "internalType": "address",
          "name": "to",
          "type": "address"
        },
        {
          "indexed": true,
          "internalType": "uint256",
          "name": "tokenId",
          "type": "uint256"
        }
      ],
      "name": "Transfer",
      "type": "event"
    },
    {
      "inputs": [
        {
          "internalType": "address",
          "name": "to",
          "type": "address"
        },
        {
          "internalType": "uint256",
          "name": "tokenId",
          "type": "uint256"
        }
      ],
      "name": "approve",
      "outputs": [],
      "stateMutability": "nonpayable",
      "type": "function"
    },
    {
      "inputs": [
        {
          "internalType": "address",
          "name": "owner",
          "type": "address"
        }
      ],
      "name": "balanceOf",
      "outputs": [
        {
          "internalType": "uint256",
          "name": "",
          "type": "uint256"
        }
      ],
      "stateMutability": "view",
      "type": "function"
    },
    {
      "inputs": [
        {
          "internalType": "uint256[]",
          "name": "ids",
          "type": "uint256[]"
        },
        {
          "internalType": "string[]",
          "name": "metadataURIs",
          "type": "string[]"
        }
      ],
      "name": "changeMetadata",
      "outputs": [],
      "stateMutability": "nonpayable",
      "type": "function"
    },
    {
      "inputs": [
        {
          "internalType": "uint256",
          "name": "tokenId",
          "type": "uint256"
        }
      ],
      "name": "getApproved",
      "outputs": [
        {
          "internalType": "address",
          "name": "",
          "type": "address"
        }
      ],
      "stateMutability": "view",
      "type": "function"
    },
    {
      "inputs": [
        {
          "internalType": "address",
          "name": "owner",
          "type": "address"
        },
        {
          "internalType": "address",
          "name": "operator",
          "type": "address"
        }
      ],
      "name": "isApprovedForAll",
      "outputs": [
        {
          "internalType": "bool",
          "name": "",
          "type": "bool"
        }
      ],
      "stateMutability": "view",
      "type": "function"
    },
    {
      "inputs": [
        {
          "internalType": "address",
          "name": "owner",
          "type": "address"
        },
        {
          "internalType": "uint256[]",
          "name": "ids",
          "type": "uint256[]"
        },
        {
          "internalType": "string[]",
          "name": "metadataURIs",
          "type": "string[]"
        }
      ],
      "name": "mintTokens",
      "outputs": [],
      "stateMutability": "nonpayable",
      "type": "function"
    },
    {
      "inputs": [],
      "name": "name",
      "outputs": [
        {
          "internalType": "string",
          "name": "",
          "type": "string"
        }
      ],
      "stateMutability": "view",
      "type": "function"
    },
    {
      "inputs": [],
      "name": "owner",
      "outputs": [
        {
          "internalType": "address",
          "name": "",
          "type": "address"
        }
      ],
      "stateMutability": "view",
      "type": "function"
    },
    {
      "inputs": [
        {
          "internalType": "uint256",
          "name": "tokenId",
          "type": "uint256"
        }
      ],
      "name": "ownerOf",
      "outputs": [
        {
          "internalType": "address",
          "name": "",
          "type": "address"
        }
      ],
      "stateMutability": "view",
      "type": "function"
    },
    {
      "inputs": [],
      "name": "renounceOwnership",
      "outputs": [],
      "stateMutability": "nonpayable",
      "type": "function"
    },
    {
      "inputs": [
        {
          "internalType": "address",
          "name": "from",
          "type": "address"
        },
        {
          "internalType": "address",
          "name": "to",
          "type": "address"
        },
        {
          "internalType": "uint256",
          "name": "tokenId",
          "type": "uint256"
        }
      ],
      "name": "safeTransferFrom",
      "outputs": [],
      "stateMutability": "nonpayable",
      "type": "function"
    },
    {
      "inputs": [
        {
          "internalType": "address",
          "name": "from",
          "type": "address"
        },
        {
          "internalType": "address",
          "name": "to",
          "type": "address"
        },
        {
          "internalType": "uint256",
          "name": "tokenId",
          "type": "uint256"
        },
        {
          "internalType": "bytes",
          "name": "_data",
          "type": "bytes"
        }
      ],
      "name": "safeTransferFrom",
      "outputs": [],
      "stateMutability": "nonpayable",
      "type": "function"
    },
    {
      "inputs": [
        {
          "internalType": "address",
          "name": "operator",
          "type": "address"
        },
        {
          "internalType": "bool",
          "name": "approved",
          "type": "bool"
        }
      ],
      "name": "setApprovalForAll",
      "outputs": [],
      "stateMutability": "nonpayable",
      "type": "function"
    },
    {
      "inputs": [
        {
          "internalType": "bytes4",
          "name": "interfaceId",
          "type": "bytes4"
        }
      ],
      "name": "supportsInterface",
      "outputs": [
        {
          "internalType": "bool",
          "name": "",
          "type": "bool"
        }
      ],
      "stateMutability": "view",
      "type": "function"
    },
    {
      "inputs": [],
      "name": "symbol",
      "outputs": [
        {
          "internalType": "string",
          "name": "",
          "type": "string"
        }
      ],
      "stateMutability": "view",
      "type": "function"
    },
    {
      "inputs": [
        {
          "internalType": "uint256",
          "name": "tokenId",
          "type": "uint256"
        }
      ],
      "name": "tokenURI",
      "outputs": [
        {
          "internalType": "string",
          "name": "",
          "type": "string"
        }
      ],
      "stateMutability": "view",
      "type": "function"
    },
    {
      "inputs": [
        {
          "internalType": "address",
          "name": "from",
          "type": "address"
        },
        {
          "internalType": "address",
          "name": "to",
          "type": "address"
        },
        {
          "internalType": "uint256",
          "name": "tokenId",
          "type": "uint256"
        }
      ],
      "name": "transferFrom",
      "outputs": [],
      "stateMutability": "nonpayable",
      "type": "function"
    },
    {
      "inputs": [
        {
          "internalType": "address",
          "name": "newOwner",
          "type": "address"
        }
      ],
      "name": "transferOwnership",
      "outputs": [],
      "stateMutability": "nonpayable",
      "type": "function"
    }
  ],
  "bytecode": "0x60806040523480156200001157600080fd5b5060405162003e2438038062003e24833981810160405281019062000037919062000285565b818181600090805190602001906200005192919062000163565b5080600190805190602001906200006a92919062000163565b5050506200008d620000816200009560201b60201c565b6200009d60201b60201c565b505062000468565b600033905090565b6000600760009054906101000a900473ffffffffffffffffffffffffffffffffffffffff16905081600760006101000a81548173ffffffffffffffffffffffffffffffffffffffff021916908373ffffffffffffffffffffffffffffffffffffffff1602179055508173ffffffffffffffffffffffffffffffffffffffff168173ffffffffffffffffffffffffffffffffffffffff167f8be0079c531659141344cd1fd0a4f28419497f9722a3daafe3b4186f6b6457e060405160405180910390a35050565b82805462000171906200038d565b90600052602060002090601f016020900481019282620001955760008555620001e1565b82601f10620001b057805160ff1916838001178555620001e1565b82800160010185558215620001e1579182015b82811115620001e0578251825591602001919060010190620001c3565b5b509050620001f09190620001f4565b5090565b5b808211156200020f576000816000905550600101620001f5565b5090565b60006200022a620002248462000321565b620002f8565b9050828152602081018484840111156200024357600080fd5b6200025084828562000357565b509392505050565b600082601f8301126200026a57600080fd5b81516200027c84826020860162000213565b91505092915050565b600080604083850312156200029957600080fd5b600083015167ffffffffffffffff811115620002b457600080fd5b620002c28582860162000258565b925050602083015167ffffffffffffffff811115620002e057600080fd5b620002ee8582860162000258565b9150509250929050565b60006200030462000317565b9050620003128282620003c3565b919050565b6000604051905090565b600067ffffffffffffffff8211156200033f576200033e62000428565b5b6200034a8262000457565b9050602081019050919050565b60005b83811015620003775780820151818401526020810190506200035a565b8381111562000387576000848401525b50505050565b60006002820490506001821680620003a657607f821691505b60208210811415620003bd57620003bc620003f9565b5b50919050565b620003ce8262000457565b810181811067ffffffffffffffff82111715620003f057620003ef62000428565b5b80604052505050565b7f4e487b7100000000000000000000000000000000000000000000000000000000600052602260045260246000fd5b7f4e487b7100000000000000000000000000000000000000000000000000000000600052604160045260246000fd5b6000601f19601f8301169050919050565b6139ac80620004786000396000f3fe608060405234801561001057600080fd5b50600436106101165760003560e01c80638da5cb5b116100a2578063b88d4fde11610071578063b88d4fde146102cb578063c87b56dd146102e7578063dba9673914610317578063e985e9c514610333578063f2fde38b1461036357610116565b80638da5cb5b1461025757806395d89b4114610275578063a22cb46514610293578063aee1e95f146102af57610116565b806323b872dd116100e957806323b872dd146101b557806342842e0e146101d15780636352211e146101ed57806370a082311461021d578063715018a61461024d57610116565b806301ffc9a71461011b57806306fdde031461014b578063081812fc14610169578063095ea7b314610199575b600080fd5b610135600480360381019061013091906126d6565b61037f565b6040516101429190612b68565b60405180910390f35b610153610461565b6040516101609190612b83565b60405180910390f35b610183600480360381019061017e9190612728565b6104f3565b6040516101909190612b01565b60405180910390f35b6101b360048036038101906101ae919061262e565b610578565b005b6101cf60048036038101906101ca91906124a9565b610690565b005b6101eb60048036038101906101e691906124a9565b6106f0565b005b61020760048036038101906102029190612728565b610710565b6040516102149190612b01565b60405180910390f35b61023760048036038101906102329190612444565b6107c2565b6040516102449190612e93565b60405180910390f35b61025561087a565b005b61025f610902565b60405161026c9190612b01565b60405180910390f35b61027d61092c565b60405161028a9190612b83565b60405180910390f35b6102ad60048036038101906102a891906125f2565b6109be565b005b6102c960048036038101906102c4919061266a565b6109d4565b005b6102e560048036038101906102e091906124f8565b610bf6565b005b61030160048036038101906102fc9190612728565b610c58565b60405161030e9190612b83565b60405180910390f35b610331600480360381019061032c9190612573565b610daa565b005b61034d6004803603810190610348919061246d565b610fad565b60405161035a9190612b68565b60405180910390f35b61037d60048036038101906103789190612444565b611041565b005b60007f80ac58cd000000000000000000000000000000000000000000000000000000007bffffffffffffffffffffffffffffffffffffffffffffffffffffffff1916827bffffffffffffffffffffffffffffffffffffffffffffffffffffffff1916148061044a57507f5b5e139f000000000000000000000000000000000000000000000000000000007bffffffffffffffffffffffffffffffffffffffffffffffffffffffff1916827bffffffffffffffffffffffffffffffffffffffffffffffffffffffff1916145b8061045a575061045982611139565b5b9050919050565b60606000805461047090613171565b80601f016020809104026020016040519081016040528092919081815260200182805461049c90613171565b80156104e95780601f106104be576101008083540402835291602001916104e9565b820191906000526020600020905b8154815290600101906020018083116104cc57829003601f168201915b5050505050905090565b60006104fe826111a3565b61053d576040517f08c379a000000000000000000000000000000000000000000000000000000000815260040161053490612dd3565b60405180910390fd5b6004600083815260200190815260200160002060009054906101000a900473ffffffffffffffffffffffffffffffffffffffff169050919050565b600061058382610710565b90508073ffffffffffffffffffffffffffffffffffffffff168373ffffffffffffffffffffffffffffffffffffffff1614156105f4576040517f08c379a00000000000000000000000000000000000000000000000000000000081526004016105eb90612e33565b60405180910390fd5b8073ffffffffffffffffffffffffffffffffffffffff1661061361120f565b73ffffffffffffffffffffffffffffffffffffffff16148061064257506106418161063c61120f565b610fad565b5b610681576040517f08c379a000000000000000000000000000000000000000000000000000000000815260040161067890612d13565b60405180910390fd5b61068b8383611217565b505050565b6106a161069b61120f565b826112d0565b6106e0576040517f08c379a00000000000000000000000000000000000000000000000000000000081526004016106d790612e53565b60405180910390fd5b6106eb8383836113ae565b505050565b61070b83838360405180602001604052806000815250610bf6565b505050565b6000806002600084815260200190815260200160002060009054906101000a900473ffffffffffffffffffffffffffffffffffffffff169050600073ffffffffffffffffffffffffffffffffffffffff168173ffffffffffffffffffffffffffffffffffffffff1614156107b9576040517f08c379a00000000000000000000000000000000000000000000000000000000081526004016107b090612d53565b60405180910390fd5b80915050919050565b60008073ffffffffffffffffffffffffffffffffffffffff168273ffffffffffffffffffffffffffffffffffffffff161415610833576040517f08c379a000000000000000000000000000000000000000000000000000000000815260040161082a90612d33565b60405180910390fd5b600360008373ffffffffffffffffffffffffffffffffffffffff1673ffffffffffffffffffffffffffffffffffffffff168152602001908152602001600020549050919050565b61088261120f565b73ffffffffffffffffffffffffffffffffffffffff166108a0610902565b73ffffffffffffffffffffffffffffffffffffffff16146108f6576040517f08c379a00000000000000000000000000000000000000000000000000000000081526004016108ed90612df3565b60405180910390fd5b6109006000611615565b565b6000600760009054906101000a900473ffffffffffffffffffffffffffffffffffffffff16905090565b60606001805461093b90613171565b80601f016020809104026020016040519081016040528092919081815260200182805461096790613171565b80156109b45780601f10610989576101008083540402835291602001916109b4565b820191906000526020600020905b81548152906001019060200180831161099757829003601f168201915b5050505050905090565b6109d06109c961120f565b83836116db565b5050565b6109dc61120f565b73ffffffffffffffffffffffffffffffffffffffff166109fa610902565b73ffffffffffffffffffffffffffffffffffffffff1614610a50576040517f08c379a0000000000000000000000000000000000000000000000000000000008152600401610a4790612df3565b60405180910390fd5b8051825114610a94576040517f08c379a0000000000000000000000000000000000000000000000000000000008152600401610a8b90612cf3565b60405180910390fd5b610a9e6008611848565b825114610ae0576040517f08c379a0000000000000000000000000000000000000000000000000000000008152600401610ad790612e73565b60405180910390fd5b610b0360405180606001604052806030815260200161390c603091398351611856565b60005b8251811015610bf1576000838281518110610b4a577f4e487b7100000000000000000000000000000000000000000000000000000000600052603260045260246000fd5b602002602001015190506000838381518110610b8f577f4e487b7100000000000000000000000000000000000000000000000000000000600052603260045260246000fd5b60200260200101519050610ba382826118f2565b7f4d94d4affb979a60a2e3d4c124aa66d9a0cbe06512c55be44ed71848bade454d8282604051610bd4929190612eae565b60405180910390a150508080610be9906131d4565b915050610b06565b505050565b610c07610c0161120f565b836112d0565b610c46576040517f08c379a0000000000000000000000000000000000000000000000000000000008152600401610c3d90612e53565b60405180910390fd5b610c5284848484611966565b50505050565b6060610c63826111a3565b610ca2576040517f08c379a0000000000000000000000000000000000000000000000000000000008152600401610c9990612db3565b60405180910390fd5b6000600660008481526020019081526020016000208054610cc290613171565b80601f0160208091040260200160405190810160405280929190818152602001828054610cee90613171565b8015610d3b5780601f10610d1057610100808354040283529160200191610d3b565b820191906000526020600020905b815481529060010190602001808311610d1e57829003601f168201915b505050505090506000610d4c6119c2565b9050600081511415610d62578192505050610da5565b600082511115610d97578082604051602001610d7f929190612add565b60405160208183030381529060405292505050610da5565b610da0846119d9565b925050505b919050565b610db261120f565b73ffffffffffffffffffffffffffffffffffffffff16610dd0610902565b73ffffffffffffffffffffffffffffffffffffffff1614610e26576040517f08c379a0000000000000000000000000000000000000000000000000000000008152600401610e1d90612df3565b60405180910390fd5b8051825114610e6a576040517f08c379a0000000000000000000000000000000000000000000000000000000008152600401610e6190612cf3565b60405180910390fd5b610e8e6040518060600160405280603b815260200161393c603b9139848451611a80565b60005b8251811015610fa757610ea46008611b1f565b6000838281518110610edf577f4e487b7100000000000000000000000000000000000000000000000000000000600052603260045260246000fd5b602002602001015190506000838381518110610f24577f4e487b7100000000000000000000000000000000000000000000000000000000600052603260045260246000fd5b60200260200101519050610f388683611b35565b610f4282826118f2565b8573ffffffffffffffffffffffffffffffffffffffff167f3b8a974a6971dbe70c8718ec80406b2790d2aa5477b6a5bed3d94fa19e06d60d8383604051610f8a929190612eae565b60405180910390a250508080610f9f906131d4565b915050610e91565b50505050565b6000600560008473ffffffffffffffffffffffffffffffffffffffff1673ffffffffffffffffffffffffffffffffffffffff16815260200190815260200160002060008373ffffffffffffffffffffffffffffffffffffffff1673ffffffffffffffffffffffffffffffffffffffff16815260200190815260200160002060009054906101000a900460ff16905092915050565b61104961120f565b73ffffffffffffffffffffffffffffffffffffffff16611067610902565b73ffffffffffffffffffffffffffffffffffffffff16146110bd576040517f08c379a00000000000000000000000000000000000000000000000000000000081526004016110b490612df3565b60405180910390fd5b600073ffffffffffffffffffffffffffffffffffffffff168173ffffffffffffffffffffffffffffffffffffffff16141561112d576040517f08c379a000000000000000000000000000000000000000000000000000000000815260040161112490612c33565b60405180910390fd5b61113681611615565b50565b60007f01ffc9a7000000000000000000000000000000000000000000000000000000007bffffffffffffffffffffffffffffffffffffffffffffffffffffffff1916827bffffffffffffffffffffffffffffffffffffffffffffffffffffffff1916149050919050565b60008073ffffffffffffffffffffffffffffffffffffffff166002600084815260200190815260200160002060009054906101000a900473ffffffffffffffffffffffffffffffffffffffff1673ffffffffffffffffffffffffffffffffffffffff1614159050919050565b600033905090565b816004600083815260200190815260200160002060006101000a81548173ffffffffffffffffffffffffffffffffffffffff021916908373ffffffffffffffffffffffffffffffffffffffff160217905550808273ffffffffffffffffffffffffffffffffffffffff1661128a83610710565b73ffffffffffffffffffffffffffffffffffffffff167f8c5be1e5ebec7d5bd14f71427d1e84f3dd0314c0f7b2291e5b200ac8c7c3b92560405160405180910390a45050565b60006112db826111a3565b61131a576040517f08c379a000000000000000000000000000000000000000000000000000000000815260040161131190612cd3565b60405180910390fd5b600061132583610710565b90508073ffffffffffffffffffffffffffffffffffffffff168473ffffffffffffffffffffffffffffffffffffffff16148061139457508373ffffffffffffffffffffffffffffffffffffffff1661137c846104f3565b73ffffffffffffffffffffffffffffffffffffffff16145b806113a557506113a48185610fad565b5b91505092915050565b8273ffffffffffffffffffffffffffffffffffffffff166113ce82610710565b73ffffffffffffffffffffffffffffffffffffffff1614611424576040517f08c379a000000000000000000000000000000000000000000000000000000000815260040161141b90612c53565b60405180910390fd5b600073ffffffffffffffffffffffffffffffffffffffff168273ffffffffffffffffffffffffffffffffffffffff161415611494576040517f08c379a000000000000000000000000000000000000000000000000000000000815260040161148b90612c93565b60405180910390fd5b61149f838383611b53565b6114aa600082611217565b6001600360008573ffffffffffffffffffffffffffffffffffffffff1673ffffffffffffffffffffffffffffffffffffffff16815260200190815260200160002060008282546114fa9190613087565b925050819055506001600360008473ffffffffffffffffffffffffffffffffffffffff1673ffffffffffffffffffffffffffffffffffffffff16815260200190815260200160002060008282546115519190613000565b92505081905550816002600083815260200190815260200160002060006101000a81548173ffffffffffffffffffffffffffffffffffffffff021916908373ffffffffffffffffffffffffffffffffffffffff160217905550808273ffffffffffffffffffffffffffffffffffffffff168473ffffffffffffffffffffffffffffffffffffffff167fddf252ad1be2c89b69c2b068fc378daa952ba7f163c4a11628f55a4df523b3ef60405160405180910390a4611610838383611b58565b505050565b6000600760009054906101000a900473ffffffffffffffffffffffffffffffffffffffff16905081600760006101000a81548173ffffffffffffffffffffffffffffffffffffffff021916908373ffffffffffffffffffffffffffffffffffffffff1602179055508173ffffffffffffffffffffffffffffffffffffffff168173ffffffffffffffffffffffffffffffffffffffff167f8be0079c531659141344cd1fd0a4f28419497f9722a3daafe3b4186f6b6457e060405160405180910390a35050565b8173ffffffffffffffffffffffffffffffffffffffff168373ffffffffffffffffffffffffffffffffffffffff16141561174a576040517f08c379a000000000000000000000000000000000000000000000000000000000815260040161174190612cb3565b60405180910390fd5b80600560008573ffffffffffffffffffffffffffffffffffffffff1673ffffffffffffffffffffffffffffffffffffffff16815260200190815260200160002060008473ffffffffffffffffffffffffffffffffffffffff1673ffffffffffffffffffffffffffffffffffffffff16815260200190815260200160002060006101000a81548160ff0219169083151502179055508173ffffffffffffffffffffffffffffffffffffffff168373ffffffffffffffffffffffffffffffffffffffff167f17307eab39ab6107e8899845ad3d59bd9653f200f220920489ca2b5937696c318360405161183b9190612b68565b60405180910390a3505050565b600081600001549050919050565b6118ee828260405160240161186c929190612be3565b6040516020818303038152906040527f9710a9d0000000000000000000000000000000000000000000000000000000007bffffffffffffffffffffffffffffffffffffffffffffffffffffffff19166020820180517bffffffffffffffffffffffffffffffffffffffffffffffffffffffff8381831617835250505050611b5d565b5050565b6118fb826111a3565b61193a576040517f08c379a000000000000000000000000000000000000000000000000000000000815260040161193190612d73565b60405180910390fd5b80600660008481526020019081526020016000209080519060200190611961929190612122565b505050565b6119718484846113ae565b61197d84848484611b86565b6119bc576040517f08c379a00000000000000000000000000000000000000000000000000000000081526004016119b390612c13565b60405180910390fd5b50505050565b606060405180602001604052806000815250905090565b60606119e4826111a3565b611a23576040517f08c379a0000000000000000000000000000000000000000000000000000000008152600401611a1a90612e13565b60405180910390fd5b6000611a2d6119c2565b90506000815111611a4d5760405180602001604052806000815250611a78565b80611a5784611d1d565b604051602001611a68929190612add565b6040516020818303038152906040525b915050919050565b611b1a838383604051602401611a9893929190612ba5565b6040516020818303038152906040527f07c81217000000000000000000000000000000000000000000000000000000007bffffffffffffffffffffffffffffffffffffffffffffffffffffffff19166020820180517bffffffffffffffffffffffffffffffffffffffffffffffffffffffff8381831617835250505050611b5d565b505050565b6001816000016000828254019250508190555050565b611b4f828260405180602001604052806000815250611eca565b5050565b505050565b505050565b60008151905060006a636f6e736f6c652e6c6f679050602083016000808483855afa5050505050565b6000611ba78473ffffffffffffffffffffffffffffffffffffffff16611f25565b15611d10578373ffffffffffffffffffffffffffffffffffffffff1663150b7a02611bd061120f565b8786866040518563ffffffff1660e01b8152600401611bf29493929190612b1c565b602060405180830381600087803b158015611c0c57600080fd5b505af1925050508015611c3d57506040513d601f19601f82011682018060405250810190611c3a91906126ff565b60015b611cc0573d8060008114611c6d576040519150601f19603f3d011682016040523d82523d6000602084013e611c72565b606091505b50600081511415611cb8576040517f08c379a0000000000000000000000000000000000000000000000000000000008152600401611caf90612c13565b60405180910390fd5b805181602001fd5b63150b7a0260e01b7bffffffffffffffffffffffffffffffffffffffffffffffffffffffff1916817bffffffffffffffffffffffffffffffffffffffffffffffffffffffff191614915050611d15565b600190505b949350505050565b60606000821415611d65576040518060400160405280600181526020017f30000000000000000000000000000000000000000000000000000000000000008152509050611ec5565b600082905060005b60008214611d97578080611d80906131d4565b915050600a82611d909190613056565b9150611d6d565b60008167ffffffffffffffff811115611dd9577f4e487b7100000000000000000000000000000000000000000000000000000000600052604160045260246000fd5b6040519080825280601f01601f191660200182016040528015611e0b5781602001600182028036833780820191505090505b5090505b60008514611ebe57600182611e249190613087565b9150600a85611e33919061321d565b6030611e3f9190613000565b60f81b818381518110611e7b577f4e487b7100000000000000000000000000000000000000000000000000000000600052603260045260246000fd5b60200101907effffffffffffffffffffffffffffffffffffffffffffffffffffffffffffff1916908160001a905350600a85611eb79190613056565b9450611e0f565b8093505050505b919050565b611ed48383611f48565b611ee16000848484611b86565b611f20576040517f08c379a0000000000000000000000000000000000000000000000000000000008152600401611f1790612c13565b60405180910390fd5b505050565b6000808273ffffffffffffffffffffffffffffffffffffffff163b119050919050565b600073ffffffffffffffffffffffffffffffffffffffff168273ffffffffffffffffffffffffffffffffffffffff161415611fb8576040517f08c379a0000000000000000000000000000000000000000000000000000000008152600401611faf90612d93565b60405180910390fd5b611fc1816111a3565b15612001576040517f08c379a0000000000000000000000000000000000000000000000000000000008152600401611ff890612c73565b60405180910390fd5b61200d60008383611b53565b6001600360008473ffffffffffffffffffffffffffffffffffffffff1673ffffffffffffffffffffffffffffffffffffffff168152602001908152602001600020600082825461205d9190613000565b92505081905550816002600083815260200190815260200160002060006101000a81548173ffffffffffffffffffffffffffffffffffffffff021916908373ffffffffffffffffffffffffffffffffffffffff160217905550808273ffffffffffffffffffffffffffffffffffffffff16600073ffffffffffffffffffffffffffffffffffffffff167fddf252ad1be2c89b69c2b068fc378daa952ba7f163c4a11628f55a4df523b3ef60405160405180910390a461211e60008383611b58565b5050565b82805461212e90613171565b90600052602060002090601f0160209004810192826121505760008555612197565b82601f1061216957805160ff1916838001178555612197565b82800160010185558215612197579182015b8281111561219657825182559160200191906001019061217b565b5b5090506121a491906121a8565b5090565b5b808211156121c15760008160009055506001016121a9565b5090565b60006121d86121d384612f03565b612ede565b905080838252602082019050828560208602820111156121f757600080fd5b60005b8581101561224157813567ffffffffffffffff81111561221957600080fd5b8086016122268982612405565b855260208501945060208401935050506001810190506121fa565b5050509392505050565b600061225e61225984612f2f565b612ede565b9050808382526020820190508285602086028201111561227d57600080fd5b60005b858110156122ad5781612293888261242f565b845260208401935060208301925050600181019050612280565b5050509392505050565b60006122ca6122c584612f5b565b612ede565b9050828152602081018484840111156122e257600080fd5b6122ed84828561312f565b509392505050565b600061230861230384612f8c565b612ede565b90508281526020810184848401111561232057600080fd5b61232b84828561312f565b509392505050565b600081359050612342816138af565b92915050565b600082601f83011261235957600080fd5b81356123698482602086016121c5565b91505092915050565b600082601f83011261238357600080fd5b813561239384826020860161224b565b91505092915050565b6000813590506123ab816138c6565b92915050565b6000813590506123c0816138dd565b92915050565b6000815190506123d5816138dd565b92915050565b600082601f8301126123ec57600080fd5b81356123fc8482602086016122b7565b91505092915050565b600082601f83011261241657600080fd5b81356124268482602086016122f5565b91505092915050565b60008135905061243e816138f4565b92915050565b60006020828403121561245657600080fd5b600061246484828501612333565b91505092915050565b6000806040838503121561248057600080fd5b600061248e85828601612333565b925050602061249f85828601612333565b9150509250929050565b6000806000606084860312156124be57600080fd5b60006124cc86828701612333565b93505060206124dd86828701612333565b92505060406124ee8682870161242f565b9150509250925092565b6000806000806080858703121561250e57600080fd5b600061251c87828801612333565b945050602061252d87828801612333565b935050604061253e8782880161242f565b925050606085013567ffffffffffffffff81111561255b57600080fd5b612567878288016123db565b91505092959194509250565b60008060006060848603121561258857600080fd5b600061259686828701612333565b935050602084013567ffffffffffffffff8111156125b357600080fd5b6125bf86828701612372565b925050604084013567ffffffffffffffff8111156125dc57600080fd5b6125e886828701612348565b9150509250925092565b6000806040838503121561260557600080fd5b600061261385828601612333565b92505060206126248582860161239c565b9150509250929050565b6000806040838503121561264157600080fd5b600061264f85828601612333565b92505060206126608582860161242f565b9150509250929050565b6000806040838503121561267d57600080fd5b600083013567ffffffffffffffff81111561269757600080fd5b6126a385828601612372565b925050602083013567ffffffffffffffff8111156126c057600080fd5b6126cc85828601612348565b9150509250929050565b6000602082840312156126e857600080fd5b60006126f6848285016123b1565b91505092915050565b60006020828403121561271157600080fd5b600061271f848285016123c6565b91505092915050565b60006020828403121561273a57600080fd5b60006127488482850161242f565b91505092915050565b61275a816130bb565b82525050565b612769816130cd565b82525050565b600061277a82612fbd565b6127848185612fd3565b935061279481856020860161313e565b61279d8161330a565b840191505092915050565b60006127b382612fc8565b6127bd8185612fe4565b93506127cd81856020860161313e565b6127d68161330a565b840191505092915050565b60006127ec82612fc8565b6127f68185612ff5565b935061280681856020860161313e565b80840191505092915050565b600061281f603283612fe4565b915061282a8261331b565b604082019050919050565b6000612842602683612fe4565b915061284d8261336a565b604082019050919050565b6000612865602583612fe4565b9150612870826133b9565b604082019050919050565b6000612888601c83612fe4565b915061289382613408565b602082019050919050565b60006128ab602483612fe4565b91506128b682613431565b604082019050919050565b60006128ce601983612fe4565b91506128d982613480565b602082019050919050565b60006128f1602c83612fe4565b91506128fc826134a9565b604082019050919050565b6000612914603783612fe4565b915061291f826134f8565b604082019050919050565b6000612937603883612fe4565b915061294282613547565b604082019050919050565b600061295a602a83612fe4565b915061296582613596565b604082019050919050565b600061297d602983612fe4565b9150612988826135e5565b604082019050919050565b60006129a0602e83612fe4565b91506129ab82613634565b604082019050919050565b60006129c3602083612fe4565b91506129ce82613683565b602082019050919050565b60006129e6603183612fe4565b91506129f1826136ac565b604082019050919050565b6000612a09602c83612fe4565b9150612a14826136fb565b604082019050919050565b6000612a2c602083612fe4565b9150612a378261374a565b602082019050919050565b6000612a4f602f83612fe4565b9150612a5a82613773565b604082019050919050565b6000612a72602183612fe4565b9150612a7d826137c2565b604082019050919050565b6000612a95603183612fe4565b9150612aa082613811565b604082019050919050565b6000612ab8603e83612fe4565b9150612ac382613860565b604082019050919050565b612ad781613125565b82525050565b6000612ae982856127e1565b9150612af582846127e1565b91508190509392505050565b6000602082019050612b166000830184612751565b92915050565b6000608082019050612b316000830187612751565b612b3e6020830186612751565b612b4b6040830185612ace565b8181036060830152612b5d818461276f565b905095945050505050565b6000602082019050612b7d6000830184612760565b92915050565b60006020820190508181036000830152612b9d81846127a8565b905092915050565b60006060820190508181036000830152612bbf81866127a8565b9050612bce6020830185612751565b612bdb6040830184612ace565b949350505050565b60006040820190508181036000830152612bfd81856127a8565b9050612c0c6020830184612ace565b9392505050565b60006020820190508181036000830152612c2c81612812565b9050919050565b60006020820190508181036000830152612c4c81612835565b9050919050565b60006020820190508181036000830152612c6c81612858565b9050919050565b60006020820190508181036000830152612c8c8161287b565b9050919050565b60006020820190508181036000830152612cac8161289e565b9050919050565b60006020820190508181036000830152612ccc816128c1565b9050919050565b60006020820190508181036000830152612cec816128e4565b9050919050565b60006020820190508181036000830152612d0c81612907565b9050919050565b60006020820190508181036000830152612d2c8161292a565b9050919050565b60006020820190508181036000830152612d4c8161294d565b9050919050565b60006020820190508181036000830152612d6c81612970565b9050919050565b60006020820190508181036000830152612d8c81612993565b9050919050565b60006020820190508181036000830152612dac816129b6565b9050919050565b60006020820190508181036000830152612dcc816129d9565b9050919050565b60006020820190508181036000830152612dec816129fc565b9050919050565b60006020820190508181036000830152612e0c81612a1f565b9050919050565b60006020820190508181036000830152612e2c81612a42565b9050919050565b60006020820190508181036000830152612e4c81612a65565b9050919050565b60006020820190508181036000830152612e6c81612a88565b9050919050565b60006020820190508181036000830152612e8c81612aab565b9050919050565b6000602082019050612ea86000830184612ace565b92915050565b6000604082019050612ec36000830185612ace565b8181036020830152612ed581846127a8565b90509392505050565b6000612ee8612ef9565b9050612ef482826131a3565b919050565b6000604051905090565b600067ffffffffffffffff821115612f1e57612f1d6132db565b5b602082029050602081019050919050565b600067ffffffffffffffff821115612f4a57612f496132db565b5b602082029050602081019050919050565b600067ffffffffffffffff821115612f7657612f756132db565b5b612f7f8261330a565b9050602081019050919050565b600067ffffffffffffffff821115612fa757612fa66132db565b5b612fb08261330a565b9050602081019050919050565b600081519050919050565b600081519050919050565b600082825260208201905092915050565b600082825260208201905092915050565b600081905092915050565b600061300b82613125565b915061301683613125565b9250827fffffffffffffffffffffffffffffffffffffffffffffffffffffffffffffffff0382111561304b5761304a61324e565b5b828201905092915050565b600061306182613125565b915061306c83613125565b92508261307c5761307b61327d565b5b828204905092915050565b600061309282613125565b915061309d83613125565b9250828210156130b0576130af61324e565b5b828203905092915050565b60006130c682613105565b9050919050565b60008115159050919050565b60007fffffffff0000000000000000000000000000000000000000000000000000000082169050919050565b600073ffffffffffffffffffffffffffffffffffffffff82169050919050565b6000819050919050565b82818337600083830152505050565b60005b8381101561315c578082015181840152602081019050613141565b8381111561316b576000848401525b50505050565b6000600282049050600182168061318957607f821691505b6020821081141561319d5761319c6132ac565b5b50919050565b6131ac8261330a565b810181811067ffffffffffffffff821117156131cb576131ca6132db565b5b80604052505050565b60006131df82613125565b91507fffffffffffffffffffffffffffffffffffffffffffffffffffffffffffffffff8214156132125761321161324e565b5b600182019050919050565b600061322882613125565b915061323383613125565b9250826132435761324261327d565b5b828206905092915050565b7f4e487b7100000000000000000000000000000000000000000000000000000000600052601160045260246000fd5b7f4e487b7100000000000000000000000000000000000000000000000000000000600052601260045260246000fd5b7f4e487b7100000000000000000000000000000000000000000000000000000000600052602260045260246000fd5b7f4e487b7100000000000000000000000000000000000000000000000000000000600052604160045260246000fd5b6000601f19601f8301169050919050565b7f4552433732313a207472616e7366657220746f206e6f6e20455243373231526560008201527f63656976657220696d706c656d656e7465720000000000000000000000000000602082015250565b7f4f776e61626c653a206e6577206f776e657220697320746865207a65726f206160008201527f6464726573730000000000000000000000000000000000000000000000000000602082015250565b7f4552433732313a207472616e736665722066726f6d20696e636f72726563742060008201527f6f776e6572000000000000000000000000000000000000000000000000000000602082015250565b7f4552433732313a20746f6b656e20616c7265616479206d696e74656400000000600082015250565b7f4552433732313a207472616e7366657220746f20746865207a65726f2061646460008201527f7265737300000000000000000000000000000000000000000000000000000000602082015250565b7f4552433732313a20617070726f766520746f2063616c6c657200000000000000600082015250565b7f4552433732313a206f70657261746f7220717565727920666f72206e6f6e657860008201527f697374656e7420746f6b656e0000000000000000000000000000000000000000602082015250565b7f4e756d626572206f66206964732073686f756c6420626520657175616c20746f60008201527f206e756d626572206f66206d6574616461746155524973000000000000000000602082015250565b7f4552433732313a20617070726f76652063616c6c6572206973206e6f74206f7760008201527f6e6572206e6f7220617070726f76656420666f7220616c6c0000000000000000602082015250565b7f4552433732313a2062616c616e636520717565727920666f7220746865207a6560008201527f726f206164647265737300000000000000000000000000000000000000000000602082015250565b7f4552433732313a206f776e657220717565727920666f72206e6f6e657869737460008201527f656e7420746f6b656e0000000000000000000000000000000000000000000000602082015250565b7f45524337323155524953746f726167653a2055524920736574206f66206e6f6e60008201527f6578697374656e7420746f6b656e000000000000000000000000000000000000602082015250565b7f4552433732313a206d696e7420746f20746865207a65726f2061646472657373600082015250565b7f45524337323155524953746f726167653a2055524920717565727920666f722060008201527f6e6f6e6578697374656e7420746f6b656e000000000000000000000000000000602082015250565b7f4552433732313a20617070726f76656420717565727920666f72206e6f6e657860008201527f697374656e7420746f6b656e0000000000000000000000000000000000000000602082015250565b7f4f776e61626c653a2063616c6c6572206973206e6f7420746865206f776e6572600082015250565b7f4552433732314d657461646174613a2055524920717565727920666f72206e6f60008201527f6e6578697374656e7420746f6b656e0000000000000000000000000000000000602082015250565b7f4552433732313a20617070726f76616c20746f2063757272656e74206f776e6560008201527f7200000000000000000000000000000000000000000000000000000000000000602082015250565b7f4552433732313a207472616e736665722063616c6c6572206973206e6f74206f60008201527f776e6572206e6f7220617070726f766564000000000000000000000000000000602082015250565b7f4e756d626572206f66206964732073686f756c6420626520657175616c20746f60008201527f20746f74616c206e756d626572206f66206d696e74656420746f6b656e730000602082015250565b6138b8816130bb565b81146138c357600080fd5b50565b6138cf816130cd565b81146138da57600080fd5b50565b6138e6816130d9565b81146138f157600080fd5b50565b6138fd81613125565b811461390857600080fd5b5056fe43616c6c696e67206368616e67654d657461646174612077697468206e756d626572206f6620746f6b656e733a20256943616c6c696e67206d696e74546f6b656e207769746820616464726573733a20257320616e64206e756d626572206f6620746f6b656e733a202569a264697066735822122003baba600028b74c3b971a9be0720b73e4f4afccdc46e413b2bc0a4241ba294e64736f6c63430008040033",
  "linkReferences": {},
  "deployedLinkReferences": {}
}