{
  "_format": "hh-sol-artifact-1",
  "contractName": "NFTMinter",
  "sourceName": "contracts/NFTMinter.sol",
  "abi": [
    {
      "inputs": [
        {
          "internalType": "string",
          "name": "tokenName",
          "type": "string"
        },
        {
          "internalType": "string",
          "name": "symbol",
          "type": "string"
        }
      ],
      "stateMutability": "nonpayable",
      "type": "constructor"
    },
    {
      "anonymous": false,
      "inputs": [
        {
          "indexed": true,
          "internalType": "address",
          "name": "owner",
          "type": "address"
        },
        {
          "indexed": true,
          "internalType": "address",
          "name": "approved",
          "type": "address"
        },
        {
          "indexed": true,
          "internalType": "uint256",
          "name": "tokenId",
          "type": "uint256"
        }
      ],
      "name": "Approval",
      "type": "event"
    },
    {
      "anonymous": false,
      "inputs": [
        {
          "indexed": true,
          "internalType": "address",
          "name": "owner",
          "type": "address"
        },
        {
          "indexed": true,
          "internalType": "address",
          "name": "operator",
          "type": "address"
        },
        {
          "indexed": false,
          "internalType": "bool",
          "name": "approved",
          "type": "bool"
        }
      ],
      "name": "ApprovalForAll",
      "type": "event"
    },
    {
      "anonymous": false,
      "inputs": [
        {
          "indexed": false,
          "internalType": "uint256",
          "name": "_id",
          "type": "uint256"
        },
        {
          "indexed": false,
          "internalType": "string",
          "name": "_metadataURI",
          "type": "string"
        }
      ],
      "name": "ChangedMetadata",
      "type": "event"
    },
    {
      "anonymous": false,
      "inputs": [
        {
          "indexed": false,
          "internalType": "uint256",
          "name": "_id",
          "type": "uint256"
        },
        {
          "indexed": true,
          "internalType": "address",
          "name": "_recipient",
          "type": "address"
        },
        {
          "indexed": false,
          "internalType": "string",
          "name": "_metadataURI",
          "type": "string"
        }
      ],
      "name": "Minted",
      "type": "event"
    },
    {
      "anonymous": false,
      "inputs": [
        {
          "indexed": true,
          "internalType": "address",
          "name": "previousOwner",
          "type": "address"
        },
        {
          "indexed": true,
          "internalType": "address",
          "name": "newOwner",
          "type": "address"
        }
      ],
      "name": "OwnershipTransferred",
      "type": "event"
    },
    {
      "anonymous": false,
      "inputs": [
        {
          "indexed": true,
          "internalType": "address",
          "name": "from",
          "type": "address"
        },
        {
          "indexed": true,
          "internalType": "address",
          "name": "to",
          "type": "address"
        },
        {
          "indexed": true,
          "internalType": "uint256",
          "name": "tokenId",
          "type": "uint256"
        }
      ],
      "name": "Transfer",
      "type": "event"
    },
    {
      "inputs": [
        {
          "internalType": "address",
          "name": "to",
          "type": "address"
        },
        {
          "internalType": "uint256",
          "name": "tokenId",
          "type": "uint256"
        }
      ],
      "name": "approve",
      "outputs": [],
      "stateMutability": "nonpayable",
      "type": "function"
    },
    {
      "inputs": [
        {
          "internalType": "address",
          "name": "owner",
          "type": "address"
        }
      ],
      "name": "balanceOf",
      "outputs": [
        {
          "internalType": "uint256",
          "name": "",
          "type": "uint256"
        }
      ],
      "stateMutability": "view",
      "type": "function"
    },
    {
      "inputs": [
        {
          "internalType": "uint256",
          "name": "id",
          "type": "uint256"
        },
        {
          "internalType": "string",
          "name": "metadataURI",
          "type": "string"
        }
      ],
      "name": "changeMetadata",
      "outputs": [],
      "stateMutability": "nonpayable",
      "type": "function"
    },
    {
      "inputs": [
        {
          "internalType": "uint256",
          "name": "tokenId",
          "type": "uint256"
        }
      ],
      "name": "getApproved",
      "outputs": [
        {
          "internalType": "address",
          "name": "",
          "type": "address"
        }
      ],
      "stateMutability": "view",
      "type": "function"
    },
    {
      "inputs": [
        {
          "internalType": "address",
          "name": "owner",
          "type": "address"
        },
        {
          "internalType": "address",
          "name": "operator",
          "type": "address"
        }
      ],
      "name": "isApprovedForAll",
      "outputs": [
        {
          "internalType": "bool",
          "name": "",
          "type": "bool"
        }
      ],
      "stateMutability": "view",
      "type": "function"
    },
    {
      "inputs": [
        {
          "internalType": "address",
          "name": "owner",
          "type": "address"
        },
        {
          "internalType": "uint256[]",
          "name": "ids",
          "type": "uint256[]"
        },
        {
          "internalType": "string[]",
          "name": "metadataURIs",
          "type": "string[]"
        }
      ],
      "name": "mintTokens",
      "outputs": [],
      "stateMutability": "nonpayable",
      "type": "function"
    },
    {
      "inputs": [],
      "name": "name",
      "outputs": [
        {
          "internalType": "string",
          "name": "",
          "type": "string"
        }
      ],
      "stateMutability": "view",
      "type": "function"
    },
    {
      "inputs": [],
      "name": "owner",
      "outputs": [
        {
          "internalType": "address",
          "name": "",
          "type": "address"
        }
      ],
      "stateMutability": "view",
      "type": "function"
    },
    {
      "inputs": [
        {
          "internalType": "uint256",
          "name": "tokenId",
          "type": "uint256"
        }
      ],
      "name": "ownerOf",
      "outputs": [
        {
          "internalType": "address",
          "name": "",
          "type": "address"
        }
      ],
      "stateMutability": "view",
      "type": "function"
    },
    {
      "inputs": [],
      "name": "renounceOwnership",
      "outputs": [],
      "stateMutability": "nonpayable",
      "type": "function"
    },
    {
      "inputs": [
        {
          "internalType": "address",
          "name": "from",
          "type": "address"
        },
        {
          "internalType": "address",
          "name": "to",
          "type": "address"
        },
        {
          "internalType": "uint256",
          "name": "tokenId",
          "type": "uint256"
        }
      ],
      "name": "safeTransferFrom",
      "outputs": [],
      "stateMutability": "nonpayable",
      "type": "function"
    },
    {
      "inputs": [
        {
          "internalType": "address",
          "name": "from",
          "type": "address"
        },
        {
          "internalType": "address",
          "name": "to",
          "type": "address"
        },
        {
          "internalType": "uint256",
          "name": "tokenId",
          "type": "uint256"
        },
        {
          "internalType": "bytes",
          "name": "_data",
          "type": "bytes"
        }
      ],
      "name": "safeTransferFrom",
      "outputs": [],
      "stateMutability": "nonpayable",
      "type": "function"
    },
    {
      "inputs": [
        {
          "internalType": "address",
          "name": "operator",
          "type": "address"
        },
        {
          "internalType": "bool",
          "name": "approved",
          "type": "bool"
        }
      ],
      "name": "setApprovalForAll",
      "outputs": [],
      "stateMutability": "nonpayable",
      "type": "function"
    },
    {
      "inputs": [
        {
          "internalType": "bytes4",
          "name": "interfaceId",
          "type": "bytes4"
        }
      ],
      "name": "supportsInterface",
      "outputs": [
        {
          "internalType": "bool",
          "name": "",
          "type": "bool"
        }
      ],
      "stateMutability": "view",
      "type": "function"
    },
    {
      "inputs": [],
      "name": "symbol",
      "outputs": [
        {
          "internalType": "string",
          "name": "",
          "type": "string"
        }
      ],
      "stateMutability": "view",
      "type": "function"
    },
    {
      "inputs": [
        {
          "internalType": "uint256",
          "name": "tokenId",
          "type": "uint256"
        }
      ],
      "name": "tokenURI",
      "outputs": [
        {
          "internalType": "string",
          "name": "",
          "type": "string"
        }
      ],
      "stateMutability": "view",
      "type": "function"
    },
    {
      "inputs": [
        {
          "internalType": "address",
          "name": "from",
          "type": "address"
        },
        {
          "internalType": "address",
          "name": "to",
          "type": "address"
        },
        {
          "internalType": "uint256",
          "name": "tokenId",
          "type": "uint256"
        }
      ],
      "name": "transferFrom",
      "outputs": [],
      "stateMutability": "nonpayable",
      "type": "function"
    },
    {
      "inputs": [
        {
          "internalType": "address",
          "name": "newOwner",
          "type": "address"
        }
      ],
      "name": "transferOwnership",
      "outputs": [],
      "stateMutability": "nonpayable",
      "type": "function"
    }
  ],
  "bytecode": "0x60806040523480156200001157600080fd5b5060405162003a5338038062003a53833981810160405281019062000037919062000285565b818181600090805190602001906200005192919062000163565b5080600190805190602001906200006a92919062000163565b5050506200008d620000816200009560201b60201c565b6200009d60201b60201c565b505062000468565b600033905090565b6000600760009054906101000a900473ffffffffffffffffffffffffffffffffffffffff16905081600760006101000a81548173ffffffffffffffffffffffffffffffffffffffff021916908373ffffffffffffffffffffffffffffffffffffffff1602179055508173ffffffffffffffffffffffffffffffffffffffff168173ffffffffffffffffffffffffffffffffffffffff167f8be0079c531659141344cd1fd0a4f28419497f9722a3daafe3b4186f6b6457e060405160405180910390a35050565b82805462000171906200038d565b90600052602060002090601f016020900481019282620001955760008555620001e1565b82601f10620001b057805160ff1916838001178555620001e1565b82800160010185558215620001e1579182015b82811115620001e0578251825591602001919060010190620001c3565b5b509050620001f09190620001f4565b5090565b5b808211156200020f576000816000905550600101620001f5565b5090565b60006200022a620002248462000321565b620002f8565b9050828152602081018484840111156200024357600080fd5b6200025084828562000357565b509392505050565b600082601f8301126200026a57600080fd5b81516200027c84826020860162000213565b91505092915050565b600080604083850312156200029957600080fd5b600083015167ffffffffffffffff811115620002b457600080fd5b620002c28582860162000258565b925050602083015167ffffffffffffffff811115620002e057600080fd5b620002ee8582860162000258565b9150509250929050565b60006200030462000317565b9050620003128282620003c3565b919050565b6000604051905090565b600067ffffffffffffffff8211156200033f576200033e62000428565b5b6200034a8262000457565b9050602081019050919050565b60005b83811015620003775780820151818401526020810190506200035a565b8381111562000387576000848401525b50505050565b60006002820490506001821680620003a657607f821691505b60208210811415620003bd57620003bc620003f9565b5b50919050565b620003ce8262000457565b810181811067ffffffffffffffff82111715620003f057620003ef62000428565b5b80604052505050565b7f4e487b7100000000000000000000000000000000000000000000000000000000600052602260045260246000fd5b7f4e487b7100000000000000000000000000000000000000000000000000000000600052604160045260246000fd5b6000601f19601f8301169050919050565b6135db80620004786000396000f3fe608060405234801561001057600080fd5b50600436106101165760003560e01c80638da5cb5b116100a2578063b88d4fde11610071578063b88d4fde146102cb578063c87b56dd146102e7578063dba9673914610317578063e985e9c514610333578063f2fde38b1461036357610116565b80638da5cb5b1461025757806392d764cb1461027557806395d89b4114610291578063a22cb465146102af57610116565b806323b872dd116100e957806323b872dd146101b557806342842e0e146101d15780636352211e146101ed57806370a082311461021d578063715018a61461024d57610116565b806301ffc9a71461011b57806306fdde031461014b578063081812fc14610169578063095ea7b314610199575b600080fd5b61013560048036038101906101309190612435565b61037f565b60405161014291906128d5565b60405180910390f35b610153610461565b60405161016091906128f0565b60405180910390f35b610183600480360381019061017e9190612487565b6104f3565b604051610190919061286e565b60405180910390f35b6101b360048036038101906101ae91906123f9565b610578565b005b6101cf60048036038101906101ca9190612274565b610690565b005b6101eb60048036038101906101e69190612274565b6106f0565b005b61020760048036038101906102029190612487565b610710565b604051610214919061286e565b60405180910390f35b6102376004803603810190610232919061220f565b6107c2565b6040516102449190612b90565b60405180910390f35b61025561087a565b005b61025f610902565b60405161026c919061286e565b60405180910390f35b61028f600480360381019061028a91906124b0565b61092c565b005b6102996109ef565b6040516102a691906128f0565b60405180910390f35b6102c960048036038101906102c491906123bd565b610a81565b005b6102e560048036038101906102e091906122c3565b610a97565b005b61030160048036038101906102fc9190612487565b610af9565b60405161030e91906128f0565b60405180910390f35b610331600480360381019061032c919061233e565b610c4b565b005b61034d60048036038101906103489190612238565b610e38565b60405161035a91906128d5565b60405180910390f35b61037d6004803603810190610378919061220f565b610ecc565b005b60007f80ac58cd000000000000000000000000000000000000000000000000000000007bffffffffffffffffffffffffffffffffffffffffffffffffffffffff1916827bffffffffffffffffffffffffffffffffffffffffffffffffffffffff1916148061044a57507f5b5e139f000000000000000000000000000000000000000000000000000000007bffffffffffffffffffffffffffffffffffffffffffffffffffffffff1916827bffffffffffffffffffffffffffffffffffffffffffffffffffffffff1916145b8061045a575061045982610fc4565b5b9050919050565b60606000805461047090612e6e565b80601f016020809104026020016040519081016040528092919081815260200182805461049c90612e6e565b80156104e95780601f106104be576101008083540402835291602001916104e9565b820191906000526020600020905b8154815290600101906020018083116104cc57829003601f168201915b5050505050905090565b60006104fe8261102e565b61053d576040517f08c379a000000000000000000000000000000000000000000000000000000000815260040161053490612af0565b60405180910390fd5b6004600083815260200190815260200160002060009054906101000a900473ffffffffffffffffffffffffffffffffffffffff169050919050565b600061058382610710565b90508073ffffffffffffffffffffffffffffffffffffffff168373ffffffffffffffffffffffffffffffffffffffff1614156105f4576040517f08c379a00000000000000000000000000000000000000000000000000000000081526004016105eb90612b50565b60405180910390fd5b8073ffffffffffffffffffffffffffffffffffffffff1661061361109a565b73ffffffffffffffffffffffffffffffffffffffff16148061064257506106418161063c61109a565b610e38565b5b610681576040517f08c379a000000000000000000000000000000000000000000000000000000000815260040161067890612a30565b60405180910390fd5b61068b83836110a2565b505050565b6106a161069b61109a565b8261115b565b6106e0576040517f08c379a00000000000000000000000000000000000000000000000000000000081526004016106d790612b70565b60405180910390fd5b6106eb838383611239565b505050565b61070b83838360405180602001604052806000815250610a97565b505050565b6000806002600084815260200190815260200160002060009054906101000a900473ffffffffffffffffffffffffffffffffffffffff169050600073ffffffffffffffffffffffffffffffffffffffff168173ffffffffffffffffffffffffffffffffffffffff1614156107b9576040517f08c379a00000000000000000000000000000000000000000000000000000000081526004016107b090612a70565b60405180910390fd5b80915050919050565b60008073ffffffffffffffffffffffffffffffffffffffff168273ffffffffffffffffffffffffffffffffffffffff161415610833576040517f08c379a000000000000000000000000000000000000000000000000000000000815260040161082a90612a50565b60405180910390fd5b600360008373ffffffffffffffffffffffffffffffffffffffff1673ffffffffffffffffffffffffffffffffffffffff168152602001908152602001600020549050919050565b61088261109a565b73ffffffffffffffffffffffffffffffffffffffff166108a0610902565b73ffffffffffffffffffffffffffffffffffffffff16146108f6576040517f08c379a00000000000000000000000000000000000000000000000000000000081526004016108ed90612b10565b60405180910390fd5b61090060006114a0565b565b6000600760009054906101000a900473ffffffffffffffffffffffffffffffffffffffff16905090565b61093461109a565b73ffffffffffffffffffffffffffffffffffffffff16610952610902565b73ffffffffffffffffffffffffffffffffffffffff16146109a8576040517f08c379a000000000000000000000000000000000000000000000000000000000815260040161099f90612b10565b60405180910390fd5b6109b28282611566565b7f4d94d4affb979a60a2e3d4c124aa66d9a0cbe06512c55be44ed71848bade454d82826040516109e3929190612bab565b60405180910390a15050565b6060600180546109fe90612e6e565b80601f0160208091040260200160405190810160405280929190818152602001828054610a2a90612e6e565b8015610a775780601f10610a4c57610100808354040283529160200191610a77565b820191906000526020600020905b815481529060010190602001808311610a5a57829003601f168201915b5050505050905090565b610a93610a8c61109a565b83836115da565b5050565b610aa8610aa261109a565b8361115b565b610ae7576040517f08c379a0000000000000000000000000000000000000000000000000000000008152600401610ade90612b70565b60405180910390fd5b610af384848484611747565b50505050565b6060610b048261102e565b610b43576040517f08c379a0000000000000000000000000000000000000000000000000000000008152600401610b3a90612ad0565b60405180910390fd5b6000600660008481526020019081526020016000208054610b6390612e6e565b80601f0160208091040260200160405190810160405280929190818152602001828054610b8f90612e6e565b8015610bdc5780601f10610bb157610100808354040283529160200191610bdc565b820191906000526020600020905b815481529060010190602001808311610bbf57829003601f168201915b505050505090506000610bed6117a3565b9050600081511415610c03578192505050610c46565b600082511115610c38578082604051602001610c2092919061284a565b60405160208183030381529060405292505050610c46565b610c41846117ba565b925050505b919050565b610c5361109a565b73ffffffffffffffffffffffffffffffffffffffff16610c71610902565b73ffffffffffffffffffffffffffffffffffffffff1614610cc7576040517f08c379a0000000000000000000000000000000000000000000000000000000008152600401610cbe90612b10565b60405180910390fd5b8051825114610cff577f4e487b7100000000000000000000000000000000000000000000000000000000600052600160045260246000fd5b610d236040518060600160405280603b815260200161356b603b9139848451611861565b60005b8251811015610e32576000838281518110610d6a577f4e487b7100000000000000000000000000000000000000000000000000000000600052603260045260246000fd5b602002602001015190506000838381518110610daf577f4e487b7100000000000000000000000000000000000000000000000000000000600052603260045260246000fd5b60200260200101519050610dc38683611900565b610dcd8282611566565b8573ffffffffffffffffffffffffffffffffffffffff167f3b8a974a6971dbe70c8718ec80406b2790d2aa5477b6a5bed3d94fa19e06d60d8383604051610e15929190612bab565b60405180910390a250508080610e2a90612ed1565b915050610d26565b50505050565b6000600560008473ffffffffffffffffffffffffffffffffffffffff1673ffffffffffffffffffffffffffffffffffffffff16815260200190815260200160002060008373ffffffffffffffffffffffffffffffffffffffff1673ffffffffffffffffffffffffffffffffffffffff16815260200190815260200160002060009054906101000a900460ff16905092915050565b610ed461109a565b73ffffffffffffffffffffffffffffffffffffffff16610ef2610902565b73ffffffffffffffffffffffffffffffffffffffff1614610f48576040517f08c379a0000000000000000000000000000000000000000000000000000000008152600401610f3f90612b10565b60405180910390fd5b600073ffffffffffffffffffffffffffffffffffffffff168173ffffffffffffffffffffffffffffffffffffffff161415610fb8576040517f08c379a0000000000000000000000000000000000000000000000000000000008152600401610faf90612970565b60405180910390fd5b610fc1816114a0565b50565b60007f01ffc9a7000000000000000000000000000000000000000000000000000000007bffffffffffffffffffffffffffffffffffffffffffffffffffffffff1916827bffffffffffffffffffffffffffffffffffffffffffffffffffffffff1916149050919050565b60008073ffffffffffffffffffffffffffffffffffffffff166002600084815260200190815260200160002060009054906101000a900473ffffffffffffffffffffffffffffffffffffffff1673ffffffffffffffffffffffffffffffffffffffff1614159050919050565b600033905090565b816004600083815260200190815260200160002060006101000a81548173ffffffffffffffffffffffffffffffffffffffff021916908373ffffffffffffffffffffffffffffffffffffffff160217905550808273ffffffffffffffffffffffffffffffffffffffff1661111583610710565b73ffffffffffffffffffffffffffffffffffffffff167f8c5be1e5ebec7d5bd14f71427d1e84f3dd0314c0f7b2291e5b200ac8c7c3b92560405160405180910390a45050565b60006111668261102e565b6111a5576040517f08c379a000000000000000000000000000000000000000000000000000000000815260040161119c90612a10565b60405180910390fd5b60006111b083610710565b90508073ffffffffffffffffffffffffffffffffffffffff168473ffffffffffffffffffffffffffffffffffffffff16148061121f57508373ffffffffffffffffffffffffffffffffffffffff16611207846104f3565b73ffffffffffffffffffffffffffffffffffffffff16145b80611230575061122f8185610e38565b5b91505092915050565b8273ffffffffffffffffffffffffffffffffffffffff1661125982610710565b73ffffffffffffffffffffffffffffffffffffffff16146112af576040517f08c379a00000000000000000000000000000000000000000000000000000000081526004016112a690612990565b60405180910390fd5b600073ffffffffffffffffffffffffffffffffffffffff168273ffffffffffffffffffffffffffffffffffffffff16141561131f576040517f08c379a0000000000000000000000000000000000000000000000000000000008152600401611316906129d0565b60405180910390fd5b61132a83838361191e565b6113356000826110a2565b6001600360008573ffffffffffffffffffffffffffffffffffffffff1673ffffffffffffffffffffffffffffffffffffffff16815260200190815260200160002060008282546113859190612d84565b925050819055506001600360008473ffffffffffffffffffffffffffffffffffffffff1673ffffffffffffffffffffffffffffffffffffffff16815260200190815260200160002060008282546113dc9190612cfd565b92505081905550816002600083815260200190815260200160002060006101000a81548173ffffffffffffffffffffffffffffffffffffffff021916908373ffffffffffffffffffffffffffffffffffffffff160217905550808273ffffffffffffffffffffffffffffffffffffffff168473ffffffffffffffffffffffffffffffffffffffff167fddf252ad1be2c89b69c2b068fc378daa952ba7f163c4a11628f55a4df523b3ef60405160405180910390a461149b838383611923565b505050565b6000600760009054906101000a900473ffffffffffffffffffffffffffffffffffffffff16905081600760006101000a81548173ffffffffffffffffffffffffffffffffffffffff021916908373ffffffffffffffffffffffffffffffffffffffff1602179055508173ffffffffffffffffffffffffffffffffffffffff168173ffffffffffffffffffffffffffffffffffffffff167f8be0079c531659141344cd1fd0a4f28419497f9722a3daafe3b4186f6b6457e060405160405180910390a35050565b61156f8261102e565b6115ae576040517f08c379a00000000000000000000000000000000000000000000000000000000081526004016115a590612a90565b60405180910390fd5b806006600084815260200190815260200160002090805190602001906115d5929190611eed565b505050565b8173ffffffffffffffffffffffffffffffffffffffff168373ffffffffffffffffffffffffffffffffffffffff161415611649576040517f08c379a0000000000000000000000000000000000000000000000000000000008152600401611640906129f0565b60405180910390fd5b80600560008573ffffffffffffffffffffffffffffffffffffffff1673ffffffffffffffffffffffffffffffffffffffff16815260200190815260200160002060008473ffffffffffffffffffffffffffffffffffffffff1673ffffffffffffffffffffffffffffffffffffffff16815260200190815260200160002060006101000a81548160ff0219169083151502179055508173ffffffffffffffffffffffffffffffffffffffff168373ffffffffffffffffffffffffffffffffffffffff167f17307eab39ab6107e8899845ad3d59bd9653f200f220920489ca2b5937696c318360405161173a91906128d5565b60405180910390a3505050565b611752848484611239565b61175e84848484611928565b61179d576040517f08c379a000000000000000000000000000000000000000000000000000000000815260040161179490612950565b60405180910390fd5b50505050565b606060405180602001604052806000815250905090565b60606117c58261102e565b611804576040517f08c379a00000000000000000000000000000000000000000000000000000000081526004016117fb90612b30565b60405180910390fd5b600061180e6117a3565b9050600081511161182e5760405180602001604052806000815250611859565b8061183884611abf565b60405160200161184992919061284a565b6040516020818303038152906040525b915050919050565b6118fb83838360405160240161187993929190612912565b6040516020818303038152906040527f07c81217000000000000000000000000000000000000000000000000000000007bffffffffffffffffffffffffffffffffffffffffffffffffffffffff19166020820180517bffffffffffffffffffffffffffffffffffffffffffffffffffffffff8381831617835250505050611c6c565b505050565b61191a828260405180602001604052806000815250611c95565b5050565b505050565b505050565b60006119498473ffffffffffffffffffffffffffffffffffffffff16611cf0565b15611ab2578373ffffffffffffffffffffffffffffffffffffffff1663150b7a0261197261109a565b8786866040518563ffffffff1660e01b81526004016119949493929190612889565b602060405180830381600087803b1580156119ae57600080fd5b505af19250505080156119df57506040513d601f19601f820116820180604052508101906119dc919061245e565b60015b611a62573d8060008114611a0f576040519150601f19603f3d011682016040523d82523d6000602084013e611a14565b606091505b50600081511415611a5a576040517f08c379a0000000000000000000000000000000000000000000000000000000008152600401611a5190612950565b60405180910390fd5b805181602001fd5b63150b7a0260e01b7bffffffffffffffffffffffffffffffffffffffffffffffffffffffff1916817bffffffffffffffffffffffffffffffffffffffffffffffffffffffff191614915050611ab7565b600190505b949350505050565b60606000821415611b07576040518060400160405280600181526020017f30000000000000000000000000000000000000000000000000000000000000008152509050611c67565b600082905060005b60008214611b39578080611b2290612ed1565b915050600a82611b329190612d53565b9150611b0f565b60008167ffffffffffffffff811115611b7b577f4e487b7100000000000000000000000000000000000000000000000000000000600052604160045260246000fd5b6040519080825280601f01601f191660200182016040528015611bad5781602001600182028036833780820191505090505b5090505b60008514611c6057600182611bc69190612d84565b9150600a85611bd59190612f1a565b6030611be19190612cfd565b60f81b818381518110611c1d577f4e487b7100000000000000000000000000000000000000000000000000000000600052603260045260246000fd5b60200101907effffffffffffffffffffffffffffffffffffffffffffffffffffffffffffff1916908160001a905350600a85611c599190612d53565b9450611bb1565b8093505050505b919050565b60008151905060006a636f6e736f6c652e6c6f679050602083016000808483855afa5050505050565b611c9f8383611d13565b611cac6000848484611928565b611ceb576040517f08c379a0000000000000000000000000000000000000000000000000000000008152600401611ce290612950565b60405180910390fd5b505050565b6000808273ffffffffffffffffffffffffffffffffffffffff163b119050919050565b600073ffffffffffffffffffffffffffffffffffffffff168273ffffffffffffffffffffffffffffffffffffffff161415611d83576040517f08c379a0000000000000000000000000000000000000000000000000000000008152600401611d7a90612ab0565b60405180910390fd5b611d8c8161102e565b15611dcc576040517f08c379a0000000000000000000000000000000000000000000000000000000008152600401611dc3906129b0565b60405180910390fd5b611dd86000838361191e565b6001600360008473ffffffffffffffffffffffffffffffffffffffff1673ffffffffffffffffffffffffffffffffffffffff1681526020019081526020016000206000828254611e289190612cfd565b92505081905550816002600083815260200190815260200160002060006101000a81548173ffffffffffffffffffffffffffffffffffffffff021916908373ffffffffffffffffffffffffffffffffffffffff160217905550808273ffffffffffffffffffffffffffffffffffffffff16600073ffffffffffffffffffffffffffffffffffffffff167fddf252ad1be2c89b69c2b068fc378daa952ba7f163c4a11628f55a4df523b3ef60405160405180910390a4611ee960008383611923565b5050565b828054611ef990612e6e565b90600052602060002090601f016020900481019282611f1b5760008555611f62565b82601f10611f3457805160ff1916838001178555611f62565b82800160010185558215611f62579182015b82811115611f61578251825591602001919060010190611f46565b5b509050611f6f9190611f73565b5090565b5b80821115611f8c576000816000905550600101611f74565b5090565b6000611fa3611f9e84612c00565b612bdb565b90508083825260208201905082856020860282011115611fc257600080fd5b60005b8581101561200c57813567ffffffffffffffff811115611fe457600080fd5b808601611ff189826121d0565b85526020850194506020840193505050600181019050611fc5565b5050509392505050565b600061202961202484612c2c565b612bdb565b9050808382526020820190508285602086028201111561204857600080fd5b60005b85811015612078578161205e88826121fa565b84526020840193506020830192505060018101905061204b565b5050509392505050565b600061209561209084612c58565b612bdb565b9050828152602081018484840111156120ad57600080fd5b6120b8848285612e2c565b509392505050565b60006120d36120ce84612c89565b612bdb565b9050828152602081018484840111156120eb57600080fd5b6120f6848285612e2c565b509392505050565b60008135905061210d8161350e565b92915050565b600082601f83011261212457600080fd5b8135612134848260208601611f90565b91505092915050565b600082601f83011261214e57600080fd5b813561215e848260208601612016565b91505092915050565b60008135905061217681613525565b92915050565b60008135905061218b8161353c565b92915050565b6000815190506121a08161353c565b92915050565b600082601f8301126121b757600080fd5b81356121c7848260208601612082565b91505092915050565b600082601f8301126121e157600080fd5b81356121f18482602086016120c0565b91505092915050565b60008135905061220981613553565b92915050565b60006020828403121561222157600080fd5b600061222f848285016120fe565b91505092915050565b6000806040838503121561224b57600080fd5b6000612259858286016120fe565b925050602061226a858286016120fe565b9150509250929050565b60008060006060848603121561228957600080fd5b6000612297868287016120fe565b93505060206122a8868287016120fe565b92505060406122b9868287016121fa565b9150509250925092565b600080600080608085870312156122d957600080fd5b60006122e7878288016120fe565b94505060206122f8878288016120fe565b9350506040612309878288016121fa565b925050606085013567ffffffffffffffff81111561232657600080fd5b612332878288016121a6565b91505092959194509250565b60008060006060848603121561235357600080fd5b6000612361868287016120fe565b935050602084013567ffffffffffffffff81111561237e57600080fd5b61238a8682870161213d565b925050604084013567ffffffffffffffff8111156123a757600080fd5b6123b386828701612113565b9150509250925092565b600080604083850312156123d057600080fd5b60006123de858286016120fe565b92505060206123ef85828601612167565b9150509250929050565b6000806040838503121561240c57600080fd5b600061241a858286016120fe565b925050602061242b858286016121fa565b9150509250929050565b60006020828403121561244757600080fd5b60006124558482850161217c565b91505092915050565b60006020828403121561247057600080fd5b600061247e84828501612191565b91505092915050565b60006020828403121561249957600080fd5b60006124a7848285016121fa565b91505092915050565b600080604083850312156124c357600080fd5b60006124d1858286016121fa565b925050602083013567ffffffffffffffff8111156124ee57600080fd5b6124fa858286016121d0565b9150509250929050565b61250d81612db8565b82525050565b61251c81612dca565b82525050565b600061252d82612cba565b6125378185612cd0565b9350612547818560208601612e3b565b61255081613007565b840191505092915050565b600061256682612cc5565b6125708185612ce1565b9350612580818560208601612e3b565b61258981613007565b840191505092915050565b600061259f82612cc5565b6125a98185612cf2565b93506125b9818560208601612e3b565b80840191505092915050565b60006125d2603283612ce1565b91506125dd82613018565b604082019050919050565b60006125f5602683612ce1565b915061260082613067565b604082019050919050565b6000612618602583612ce1565b9150612623826130b6565b604082019050919050565b600061263b601c83612ce1565b915061264682613105565b602082019050919050565b600061265e602483612ce1565b91506126698261312e565b604082019050919050565b6000612681601983612ce1565b915061268c8261317d565b602082019050919050565b60006126a4602c83612ce1565b91506126af826131a6565b604082019050919050565b60006126c7603883612ce1565b91506126d2826131f5565b604082019050919050565b60006126ea602a83612ce1565b91506126f582613244565b604082019050919050565b600061270d602983612ce1565b915061271882613293565b604082019050919050565b6000612730602e83612ce1565b915061273b826132e2565b604082019050919050565b6000612753602083612ce1565b915061275e82613331565b602082019050919050565b6000612776603183612ce1565b91506127818261335a565b604082019050919050565b6000612799602c83612ce1565b91506127a4826133a9565b604082019050919050565b60006127bc602083612ce1565b91506127c7826133f8565b602082019050919050565b60006127df602f83612ce1565b91506127ea82613421565b604082019050919050565b6000612802602183612ce1565b915061280d82613470565b604082019050919050565b6000612825603183612ce1565b9150612830826134bf565b604082019050919050565b61284481612e22565b82525050565b60006128568285612594565b91506128628284612594565b91508190509392505050565b60006020820190506128836000830184612504565b92915050565b600060808201905061289e6000830187612504565b6128ab6020830186612504565b6128b8604083018561283b565b81810360608301526128ca8184612522565b905095945050505050565b60006020820190506128ea6000830184612513565b92915050565b6000602082019050818103600083015261290a818461255b565b905092915050565b6000606082019050818103600083015261292c818661255b565b905061293b6020830185612504565b612948604083018461283b565b949350505050565b60006020820190508181036000830152612969816125c5565b9050919050565b60006020820190508181036000830152612989816125e8565b9050919050565b600060208201905081810360008301526129a98161260b565b9050919050565b600060208201905081810360008301526129c98161262e565b9050919050565b600060208201905081810360008301526129e981612651565b9050919050565b60006020820190508181036000830152612a0981612674565b9050919050565b60006020820190508181036000830152612a2981612697565b9050919050565b60006020820190508181036000830152612a49816126ba565b9050919050565b60006020820190508181036000830152612a69816126dd565b9050919050565b60006020820190508181036000830152612a8981612700565b9050919050565b60006020820190508181036000830152612aa981612723565b9050919050565b60006020820190508181036000830152612ac981612746565b9050919050565b60006020820190508181036000830152612ae981612769565b9050919050565b60006020820190508181036000830152612b098161278c565b9050919050565b60006020820190508181036000830152612b29816127af565b9050919050565b60006020820190508181036000830152612b49816127d2565b9050919050565b60006020820190508181036000830152612b69816127f5565b9050919050565b60006020820190508181036000830152612b8981612818565b9050919050565b6000602082019050612ba5600083018461283b565b92915050565b6000604082019050612bc0600083018561283b565b8181036020830152612bd2818461255b565b90509392505050565b6000612be5612bf6565b9050612bf18282612ea0565b919050565b6000604051905090565b600067ffffffffffffffff821115612c1b57612c1a612fd8565b5b602082029050602081019050919050565b600067ffffffffffffffff821115612c4757612c46612fd8565b5b602082029050602081019050919050565b600067ffffffffffffffff821115612c7357612c72612fd8565b5b612c7c82613007565b9050602081019050919050565b600067ffffffffffffffff821115612ca457612ca3612fd8565b5b612cad82613007565b9050602081019050919050565b600081519050919050565b600081519050919050565b600082825260208201905092915050565b600082825260208201905092915050565b600081905092915050565b6000612d0882612e22565b9150612d1383612e22565b9250827fffffffffffffffffffffffffffffffffffffffffffffffffffffffffffffffff03821115612d4857612d47612f4b565b5b828201905092915050565b6000612d5e82612e22565b9150612d6983612e22565b925082612d7957612d78612f7a565b5b828204905092915050565b6000612d8f82612e22565b9150612d9a83612e22565b925082821015612dad57612dac612f4b565b5b828203905092915050565b6000612dc382612e02565b9050919050565b60008115159050919050565b60007fffffffff0000000000000000000000000000000000000000000000000000000082169050919050565b600073ffffffffffffffffffffffffffffffffffffffff82169050919050565b6000819050919050565b82818337600083830152505050565b60005b83811015612e59578082015181840152602081019050612e3e565b83811115612e68576000848401525b50505050565b60006002820490506001821680612e8657607f821691505b60208210811415612e9a57612e99612fa9565b5b50919050565b612ea982613007565b810181811067ffffffffffffffff82111715612ec857612ec7612fd8565b5b80604052505050565b6000612edc82612e22565b91507fffffffffffffffffffffffffffffffffffffffffffffffffffffffffffffffff821415612f0f57612f0e612f4b565b5b600182019050919050565b6000612f2582612e22565b9150612f3083612e22565b925082612f4057612f3f612f7a565b5b828206905092915050565b7f4e487b7100000000000000000000000000000000000000000000000000000000600052601160045260246000fd5b7f4e487b7100000000000000000000000000000000000000000000000000000000600052601260045260246000fd5b7f4e487b7100000000000000000000000000000000000000000000000000000000600052602260045260246000fd5b7f4e487b7100000000000000000000000000000000000000000000000000000000600052604160045260246000fd5b6000601f19601f8301169050919050565b7f4552433732313a207472616e7366657220746f206e6f6e20455243373231526560008201527f63656976657220696d706c656d656e7465720000000000000000000000000000602082015250565b7f4f776e61626c653a206e6577206f776e657220697320746865207a65726f206160008201527f6464726573730000000000000000000000000000000000000000000000000000602082015250565b7f4552433732313a207472616e736665722066726f6d20696e636f72726563742060008201527f6f776e6572000000000000000000000000000000000000000000000000000000602082015250565b7f4552433732313a20746f6b656e20616c7265616479206d696e74656400000000600082015250565b7f4552433732313a207472616e7366657220746f20746865207a65726f2061646460008201527f7265737300000000000000000000000000000000000000000000000000000000602082015250565b7f4552433732313a20617070726f766520746f2063616c6c657200000000000000600082015250565b7f4552433732313a206f70657261746f7220717565727920666f72206e6f6e657860008201527f697374656e7420746f6b656e0000000000000000000000000000000000000000602082015250565b7f4552433732313a20617070726f76652063616c6c6572206973206e6f74206f7760008201527f6e6572206e6f7220617070726f76656420666f7220616c6c0000000000000000602082015250565b7f4552433732313a2062616c616e636520717565727920666f7220746865207a6560008201527f726f206164647265737300000000000000000000000000000000000000000000602082015250565b7f4552433732313a206f776e657220717565727920666f72206e6f6e657869737460008201527f656e7420746f6b656e0000000000000000000000000000000000000000000000602082015250565b7f45524337323155524953746f726167653a2055524920736574206f66206e6f6e60008201527f6578697374656e7420746f6b656e000000000000000000000000000000000000602082015250565b7f4552433732313a206d696e7420746f20746865207a65726f2061646472657373600082015250565b7f45524337323155524953746f726167653a2055524920717565727920666f722060008201527f6e6f6e6578697374656e7420746f6b656e000000000000000000000000000000602082015250565b7f4552433732313a20617070726f76656420717565727920666f72206e6f6e657860008201527f697374656e7420746f6b656e0000000000000000000000000000000000000000602082015250565b7f4f776e61626c653a2063616c6c6572206973206e6f7420746865206f776e6572600082015250565b7f4552433732314d657461646174613a2055524920717565727920666f72206e6f60008201527f6e6578697374656e7420746f6b656e0000000000000000000000000000000000602082015250565b7f4552433732313a20617070726f76616c20746f2063757272656e74206f776e6560008201527f7200000000000000000000000000000000000000000000000000000000000000602082015250565b7f4552433732313a207472616e736665722063616c6c6572206973206e6f74206f60008201527f776e6572206e6f7220617070726f766564000000000000000000000000000000602082015250565b61351781612db8565b811461352257600080fd5b50565b61352e81612dca565b811461353957600080fd5b50565b61354581612dd6565b811461355057600080fd5b50565b61355c81612e22565b811461356757600080fd5b5056fe43616c6c696e67206d696e74546f6b656e207769746820616464726573733a20257320616e64206e756d626572206f6620746f6b656e733a202569a2646970667358221220c083d26b73c1cecb1e958bd49cbeff117ff71b3a2039eeca080df2e9dd861aa964736f6c63430008040033",
  "linkReferences": {},
  "deployedLinkReferences": {}
}