{
  "_format": "hh-sol-artifact-1",
  "contractName": "NFTMinter",
  "sourceName": "contracts/NFTMinter.sol",
  "abi": [
    {
      "inputs": [
        {
          "internalType": "string",
          "name": "tokenName",
          "type": "string"
        },
        {
          "internalType": "string",
          "name": "symbol",
          "type": "string"
        }
      ],
      "stateMutability": "nonpayable",
      "type": "constructor"
    },
    {
      "anonymous": false,
      "inputs": [
        {
          "indexed": true,
          "internalType": "address",
          "name": "owner",
          "type": "address"
        },
        {
          "indexed": true,
          "internalType": "address",
          "name": "approved",
          "type": "address"
        },
        {
          "indexed": true,
          "internalType": "uint256",
          "name": "tokenId",
          "type": "uint256"
        }
      ],
      "name": "Approval",
      "type": "event"
    },
    {
      "anonymous": false,
      "inputs": [
        {
          "indexed": true,
          "internalType": "address",
          "name": "owner",
          "type": "address"
        },
        {
          "indexed": true,
          "internalType": "address",
          "name": "operator",
          "type": "address"
        },
        {
          "indexed": false,
          "internalType": "bool",
          "name": "approved",
          "type": "bool"
        }
      ],
      "name": "ApprovalForAll",
      "type": "event"
    },
    {
      "anonymous": false,
      "inputs": [
        {
          "indexed": false,
          "internalType": "uint256",
          "name": "_id",
          "type": "uint256"
        },
        {
          "indexed": false,
          "internalType": "string",
          "name": "_metadataURI",
          "type": "string"
        }
      ],
      "name": "ChangedMetadata",
      "type": "event"
    },
    {
      "anonymous": false,
      "inputs": [
        {
          "indexed": false,
          "internalType": "uint256",
          "name": "_id",
          "type": "uint256"
        },
        {
          "indexed": true,
          "internalType": "address",
          "name": "_recipient",
          "type": "address"
        },
        {
          "indexed": false,
          "internalType": "string",
          "name": "_metadataURI",
          "type": "string"
        }
      ],
      "name": "Minted",
      "type": "event"
    },
    {
      "anonymous": false,
      "inputs": [
        {
          "indexed": true,
          "internalType": "address",
          "name": "previousOwner",
          "type": "address"
        },
        {
          "indexed": true,
          "internalType": "address",
          "name": "newOwner",
          "type": "address"
        }
      ],
      "name": "OwnershipTransferred",
      "type": "event"
    },
    {
      "anonymous": false,
      "inputs": [
        {
          "indexed": true,
          "internalType": "address",
          "name": "from",
          "type": "address"
        },
        {
          "indexed": true,
          "internalType": "address",
          "name": "to",
          "type": "address"
        },
        {
          "indexed": true,
          "internalType": "uint256",
          "name": "tokenId",
          "type": "uint256"
        }
      ],
      "name": "Transfer",
      "type": "event"
    },
    {
      "inputs": [
        {
          "internalType": "address",
          "name": "to",
          "type": "address"
        },
        {
          "internalType": "uint256",
          "name": "tokenId",
          "type": "uint256"
        }
      ],
      "name": "approve",
      "outputs": [],
      "stateMutability": "nonpayable",
      "type": "function"
    },
    {
      "inputs": [
        {
          "internalType": "address",
          "name": "owner",
          "type": "address"
        }
      ],
      "name": "balanceOf",
      "outputs": [
        {
          "internalType": "uint256",
          "name": "",
          "type": "uint256"
        }
      ],
      "stateMutability": "view",
      "type": "function"
    },
    {
      "inputs": [
        {
          "internalType": "uint256",
          "name": "id",
          "type": "uint256"
        },
        {
          "internalType": "string",
          "name": "metadataURI",
          "type": "string"
        }
      ],
      "name": "changeMetadata",
      "outputs": [],
      "stateMutability": "nonpayable",
      "type": "function"
    },
    {
      "inputs": [
        {
          "internalType": "uint256",
          "name": "tokenId",
          "type": "uint256"
        }
      ],
      "name": "getApproved",
      "outputs": [
        {
          "internalType": "address",
          "name": "",
          "type": "address"
        }
      ],
      "stateMutability": "view",
      "type": "function"
    },
    {
      "inputs": [
        {
          "internalType": "address",
          "name": "owner",
          "type": "address"
        },
        {
          "internalType": "address",
          "name": "operator",
          "type": "address"
        }
      ],
      "name": "isApprovedForAll",
      "outputs": [
        {
          "internalType": "bool",
          "name": "",
          "type": "bool"
        }
      ],
      "stateMutability": "view",
      "type": "function"
    },
    {
      "inputs": [
        {
          "internalType": "address",
          "name": "owner",
          "type": "address"
        },
        {
          "internalType": "string",
          "name": "metadataURI",
          "type": "string"
        }
      ],
      "name": "mintToken",
      "outputs": [],
      "stateMutability": "nonpayable",
      "type": "function"
    },
    {
      "inputs": [],
      "name": "name",
      "outputs": [
        {
          "internalType": "string",
          "name": "",
          "type": "string"
        }
      ],
      "stateMutability": "view",
      "type": "function"
    },
    {
      "inputs": [],
      "name": "owner",
      "outputs": [
        {
          "internalType": "address",
          "name": "",
          "type": "address"
        }
      ],
      "stateMutability": "view",
      "type": "function"
    },
    {
      "inputs": [
        {
          "internalType": "uint256",
          "name": "tokenId",
          "type": "uint256"
        }
      ],
      "name": "ownerOf",
      "outputs": [
        {
          "internalType": "address",
          "name": "",
          "type": "address"
        }
      ],
      "stateMutability": "view",
      "type": "function"
    },
    {
      "inputs": [],
      "name": "renounceOwnership",
      "outputs": [],
      "stateMutability": "nonpayable",
      "type": "function"
    },
    {
      "inputs": [
        {
          "internalType": "address",
          "name": "from",
          "type": "address"
        },
        {
          "internalType": "address",
          "name": "to",
          "type": "address"
        },
        {
          "internalType": "uint256",
          "name": "tokenId",
          "type": "uint256"
        }
      ],
      "name": "safeTransferFrom",
      "outputs": [],
      "stateMutability": "nonpayable",
      "type": "function"
    },
    {
      "inputs": [
        {
          "internalType": "address",
          "name": "from",
          "type": "address"
        },
        {
          "internalType": "address",
          "name": "to",
          "type": "address"
        },
        {
          "internalType": "uint256",
          "name": "tokenId",
          "type": "uint256"
        },
        {
          "internalType": "bytes",
          "name": "_data",
          "type": "bytes"
        }
      ],
      "name": "safeTransferFrom",
      "outputs": [],
      "stateMutability": "nonpayable",
      "type": "function"
    },
    {
      "inputs": [
        {
          "internalType": "address",
          "name": "operator",
          "type": "address"
        },
        {
          "internalType": "bool",
          "name": "approved",
          "type": "bool"
        }
      ],
      "name": "setApprovalForAll",
      "outputs": [],
      "stateMutability": "nonpayable",
      "type": "function"
    },
    {
      "inputs": [
        {
          "internalType": "bytes4",
          "name": "interfaceId",
          "type": "bytes4"
        }
      ],
      "name": "supportsInterface",
      "outputs": [
        {
          "internalType": "bool",
          "name": "",
          "type": "bool"
        }
      ],
      "stateMutability": "view",
      "type": "function"
    },
    {
      "inputs": [],
      "name": "symbol",
      "outputs": [
        {
          "internalType": "string",
          "name": "",
          "type": "string"
        }
      ],
      "stateMutability": "view",
      "type": "function"
    },
    {
      "inputs": [
        {
          "internalType": "uint256",
          "name": "tokenId",
          "type": "uint256"
        }
      ],
      "name": "tokenURI",
      "outputs": [
        {
          "internalType": "string",
          "name": "",
          "type": "string"
        }
      ],
      "stateMutability": "view",
      "type": "function"
    },
    {
      "inputs": [
        {
          "internalType": "address",
          "name": "from",
          "type": "address"
        },
        {
          "internalType": "address",
          "name": "to",
          "type": "address"
        },
        {
          "internalType": "uint256",
          "name": "tokenId",
          "type": "uint256"
        }
      ],
      "name": "transferFrom",
      "outputs": [],
      "stateMutability": "nonpayable",
      "type": "function"
    },
    {
      "inputs": [
        {
          "internalType": "address",
          "name": "newOwner",
          "type": "address"
        }
      ],
      "name": "transferOwnership",
      "outputs": [],
      "stateMutability": "nonpayable",
      "type": "function"
    }
  ],
  "bytecode": "0x60806040523480156200001157600080fd5b50604051620038e6380380620038e6833981810160405281019062000037919062000285565b818181600090805190602001906200005192919062000163565b5080600190805190602001906200006a92919062000163565b5050506200008d620000816200009560201b60201c565b6200009d60201b60201c565b505062000468565b600033905090565b6000600760009054906101000a900473ffffffffffffffffffffffffffffffffffffffff16905081600760006101000a81548173ffffffffffffffffffffffffffffffffffffffff021916908373ffffffffffffffffffffffffffffffffffffffff1602179055508173ffffffffffffffffffffffffffffffffffffffff168173ffffffffffffffffffffffffffffffffffffffff167f8be0079c531659141344cd1fd0a4f28419497f9722a3daafe3b4186f6b6457e060405160405180910390a35050565b82805462000171906200038d565b90600052602060002090601f016020900481019282620001955760008555620001e1565b82601f10620001b057805160ff1916838001178555620001e1565b82800160010185558215620001e1579182015b82811115620001e0578251825591602001919060010190620001c3565b5b509050620001f09190620001f4565b5090565b5b808211156200020f576000816000905550600101620001f5565b5090565b60006200022a620002248462000321565b620002f8565b9050828152602081018484840111156200024357600080fd5b6200025084828562000357565b509392505050565b600082601f8301126200026a57600080fd5b81516200027c84826020860162000213565b91505092915050565b600080604083850312156200029957600080fd5b600083015167ffffffffffffffff811115620002b457600080fd5b620002c28582860162000258565b925050602083015167ffffffffffffffff811115620002e057600080fd5b620002ee8582860162000258565b9150509250929050565b60006200030462000317565b9050620003128282620003c3565b919050565b6000604051905090565b600067ffffffffffffffff8211156200033f576200033e62000428565b5b6200034a8262000457565b9050602081019050919050565b60005b83811015620003775780820151818401526020810190506200035a565b8381111562000387576000848401525b50505050565b60006002820490506001821680620003a657607f821691505b60208210811415620003bd57620003bc620003f9565b5b50919050565b620003ce8262000457565b810181811067ffffffffffffffff82111715620003f057620003ef62000428565b5b80604052505050565b7f4e487b7100000000000000000000000000000000000000000000000000000000600052602260045260246000fd5b7f4e487b7100000000000000000000000000000000000000000000000000000000600052604160045260246000fd5b6000601f19601f8301169050919050565b61346e80620004786000396000f3fe608060405234801561001057600080fd5b50600436106101165760003560e01c8063715018a6116100a2578063a22cb46511610071578063a22cb465146102cb578063b88d4fde146102e7578063c87b56dd14610303578063e985e9c514610333578063f2fde38b1461036357610116565b8063715018a6146102695780638da5cb5b1461027357806392d764cb1461029157806395d89b41146102ad57610116565b806323b872dd116100e957806323b872dd146101b55780633d02d0c9146101d157806342842e0e146101ed5780636352211e1461020957806370a082311461023957610116565b806301ffc9a71461011b57806306fdde031461014b578063081812fc14610169578063095ea7b314610199575b600080fd5b610135600480360381019061013091906122f6565b61037f565b6040516101429190612796565b60405180910390f35b610153610461565b60405161016091906127b1565b60405180910390f35b610183600480360381019061017e9190612348565b6104f3565b604051610190919061272f565b60405180910390f35b6101b360048036038101906101ae91906122ba565b610578565b005b6101cf60048036038101906101ca9190612160565b610690565b005b6101eb60048036038101906101e69190612266565b6106f0565b005b61020760048036038101906102029190612160565b61084f565b005b610223600480360381019061021e9190612348565b61086f565b604051610230919061272f565b60405180910390f35b610253600480360381019061024e91906120fb565b610921565b6040516102609190612a88565b60405180910390f35b6102716109d9565b005b61027b610a61565b604051610288919061272f565b60405180910390f35b6102ab60048036038101906102a69190612371565b610a8b565b005b6102b5610b4e565b6040516102c291906127b1565b60405180910390f35b6102e560048036038101906102e0919061222a565b610be0565b005b61030160048036038101906102fc91906121af565b610bf6565b005b61031d60048036038101906103189190612348565b610c58565b60405161032a91906127b1565b60405180910390f35b61034d60048036038101906103489190612124565b610daa565b60405161035a9190612796565b60405180910390f35b61037d600480360381019061037891906120fb565b610e3e565b005b60007f80ac58cd000000000000000000000000000000000000000000000000000000007bffffffffffffffffffffffffffffffffffffffffffffffffffffffff1916827bffffffffffffffffffffffffffffffffffffffffffffffffffffffff1916148061044a57507f5b5e139f000000000000000000000000000000000000000000000000000000007bffffffffffffffffffffffffffffffffffffffffffffffffffffffff1916827bffffffffffffffffffffffffffffffffffffffffffffffffffffffff1916145b8061045a575061045982610f36565b5b9050919050565b60606000805461047090612d0e565b80601f016020809104026020016040519081016040528092919081815260200182805461049c90612d0e565b80156104e95780601f106104be576101008083540402835291602001916104e9565b820191906000526020600020905b8154815290600101906020018083116104cc57829003601f168201915b5050505050905090565b60006104fe82610fa0565b61053d576040517f08c379a0000000000000000000000000000000000000000000000000000000008152600401610534906129e8565b60405180910390fd5b6004600083815260200190815260200160002060009054906101000a900473ffffffffffffffffffffffffffffffffffffffff169050919050565b60006105838261086f565b90508073ffffffffffffffffffffffffffffffffffffffff168373ffffffffffffffffffffffffffffffffffffffff1614156105f4576040517f08c379a00000000000000000000000000000000000000000000000000000000081526004016105eb90612a48565b60405180910390fd5b8073ffffffffffffffffffffffffffffffffffffffff1661061361100c565b73ffffffffffffffffffffffffffffffffffffffff16148061064257506106418161063c61100c565b610daa565b5b610681576040517f08c379a000000000000000000000000000000000000000000000000000000000815260040161067890612928565b60405180910390fd5b61068b8383611014565b505050565b6106a161069b61100c565b826110cd565b6106e0576040517f08c379a00000000000000000000000000000000000000000000000000000000081526004016106d790612a68565b60405180910390fd5b6106eb8383836111ab565b505050565b6106f861100c565b73ffffffffffffffffffffffffffffffffffffffff16610716610a61565b73ffffffffffffffffffffffffffffffffffffffff161461076c576040517f08c379a000000000000000000000000000000000000000000000000000000000815260040161076390612a08565b60405180910390fd5b61078f6040518060600160405280602e815260200161340b602e91398383611412565b61079960086114b1565b60006107a560086114c7565b90506107e66040518060400160405280601081526020017f4e657720746f6b656e2069643a20256900000000000000000000000000000000815250826114d5565b6107f08382611571565b6107fa818361158f565b8273ffffffffffffffffffffffffffffffffffffffff167f3b8a974a6971dbe70c8718ec80406b2790d2aa5477b6a5bed3d94fa19e06d60d8284604051610842929190612aa3565b60405180910390a2505050565b61086a83838360405180602001604052806000815250610bf6565b505050565b6000806002600084815260200190815260200160002060009054906101000a900473ffffffffffffffffffffffffffffffffffffffff169050600073ffffffffffffffffffffffffffffffffffffffff168173ffffffffffffffffffffffffffffffffffffffff161415610918576040517f08c379a000000000000000000000000000000000000000000000000000000000815260040161090f90612968565b60405180910390fd5b80915050919050565b60008073ffffffffffffffffffffffffffffffffffffffff168273ffffffffffffffffffffffffffffffffffffffff161415610992576040517f08c379a000000000000000000000000000000000000000000000000000000000815260040161098990612948565b60405180910390fd5b600360008373ffffffffffffffffffffffffffffffffffffffff1673ffffffffffffffffffffffffffffffffffffffff168152602001908152602001600020549050919050565b6109e161100c565b73ffffffffffffffffffffffffffffffffffffffff166109ff610a61565b73ffffffffffffffffffffffffffffffffffffffff1614610a55576040517f08c379a0000000000000000000000000000000000000000000000000000000008152600401610a4c90612a08565b60405180910390fd5b610a5f6000611603565b565b6000600760009054906101000a900473ffffffffffffffffffffffffffffffffffffffff16905090565b610a9361100c565b73ffffffffffffffffffffffffffffffffffffffff16610ab1610a61565b73ffffffffffffffffffffffffffffffffffffffff1614610b07576040517f08c379a0000000000000000000000000000000000000000000000000000000008152600401610afe90612a08565b60405180910390fd5b610b11828261158f565b7f4d94d4affb979a60a2e3d4c124aa66d9a0cbe06512c55be44ed71848bade454d8282604051610b42929190612aa3565b60405180910390a15050565b606060018054610b5d90612d0e565b80601f0160208091040260200160405190810160405280929190818152602001828054610b8990612d0e565b8015610bd65780601f10610bab57610100808354040283529160200191610bd6565b820191906000526020600020905b815481529060010190602001808311610bb957829003601f168201915b5050505050905090565b610bf2610beb61100c565b83836116c9565b5050565b610c07610c0161100c565b836110cd565b610c46576040517f08c379a0000000000000000000000000000000000000000000000000000000008152600401610c3d90612a68565b60405180910390fd5b610c5284848484611836565b50505050565b6060610c6382610fa0565b610ca2576040517f08c379a0000000000000000000000000000000000000000000000000000000008152600401610c99906129c8565b60405180910390fd5b6000600660008481526020019081526020016000208054610cc290612d0e565b80601f0160208091040260200160405190810160405280929190818152602001828054610cee90612d0e565b8015610d3b5780601f10610d1057610100808354040283529160200191610d3b565b820191906000526020600020905b815481529060010190602001808311610d1e57829003601f168201915b505050505090506000610d4c611892565b9050600081511415610d62578192505050610da5565b600082511115610d97578082604051602001610d7f92919061270b565b60405160208183030381529060405292505050610da5565b610da0846118a9565b925050505b919050565b6000600560008473ffffffffffffffffffffffffffffffffffffffff1673ffffffffffffffffffffffffffffffffffffffff16815260200190815260200160002060008373ffffffffffffffffffffffffffffffffffffffff1673ffffffffffffffffffffffffffffffffffffffff16815260200190815260200160002060009054906101000a900460ff16905092915050565b610e4661100c565b73ffffffffffffffffffffffffffffffffffffffff16610e64610a61565b73ffffffffffffffffffffffffffffffffffffffff1614610eba576040517f08c379a0000000000000000000000000000000000000000000000000000000008152600401610eb190612a08565b60405180910390fd5b600073ffffffffffffffffffffffffffffffffffffffff168173ffffffffffffffffffffffffffffffffffffffff161415610f2a576040517f08c379a0000000000000000000000000000000000000000000000000000000008152600401610f2190612868565b60405180910390fd5b610f3381611603565b50565b60007f01ffc9a7000000000000000000000000000000000000000000000000000000007bffffffffffffffffffffffffffffffffffffffffffffffffffffffff1916827bffffffffffffffffffffffffffffffffffffffffffffffffffffffff1916149050919050565b60008073ffffffffffffffffffffffffffffffffffffffff166002600084815260200190815260200160002060009054906101000a900473ffffffffffffffffffffffffffffffffffffffff1673ffffffffffffffffffffffffffffffffffffffff1614159050919050565b600033905090565b816004600083815260200190815260200160002060006101000a81548173ffffffffffffffffffffffffffffffffffffffff021916908373ffffffffffffffffffffffffffffffffffffffff160217905550808273ffffffffffffffffffffffffffffffffffffffff166110878361086f565b73ffffffffffffffffffffffffffffffffffffffff167f8c5be1e5ebec7d5bd14f71427d1e84f3dd0314c0f7b2291e5b200ac8c7c3b92560405160405180910390a45050565b60006110d882610fa0565b611117576040517f08c379a000000000000000000000000000000000000000000000000000000000815260040161110e90612908565b60405180910390fd5b60006111228361086f565b90508073ffffffffffffffffffffffffffffffffffffffff168473ffffffffffffffffffffffffffffffffffffffff16148061119157508373ffffffffffffffffffffffffffffffffffffffff16611179846104f3565b73ffffffffffffffffffffffffffffffffffffffff16145b806111a257506111a18185610daa565b5b91505092915050565b8273ffffffffffffffffffffffffffffffffffffffff166111cb8261086f565b73ffffffffffffffffffffffffffffffffffffffff1614611221576040517f08c379a000000000000000000000000000000000000000000000000000000000815260040161121890612888565b60405180910390fd5b600073ffffffffffffffffffffffffffffffffffffffff168273ffffffffffffffffffffffffffffffffffffffff161415611291576040517f08c379a0000000000000000000000000000000000000000000000000000000008152600401611288906128c8565b60405180910390fd5b61129c838383611950565b6112a7600082611014565b6001600360008573ffffffffffffffffffffffffffffffffffffffff1673ffffffffffffffffffffffffffffffffffffffff16815260200190815260200160002060008282546112f79190612c24565b925050819055506001600360008473ffffffffffffffffffffffffffffffffffffffff1673ffffffffffffffffffffffffffffffffffffffff168152602001908152602001600020600082825461134e9190612b9d565b92505081905550816002600083815260200190815260200160002060006101000a81548173ffffffffffffffffffffffffffffffffffffffff021916908373ffffffffffffffffffffffffffffffffffffffff160217905550808273ffffffffffffffffffffffffffffffffffffffff168473ffffffffffffffffffffffffffffffffffffffff167fddf252ad1be2c89b69c2b068fc378daa952ba7f163c4a11628f55a4df523b3ef60405160405180910390a461140d838383611955565b505050565b6114ac83838360405160240161142a939291906127d3565b6040516020818303038152906040527fe0e9ad4f000000000000000000000000000000000000000000000000000000007bffffffffffffffffffffffffffffffffffffffffffffffffffffffff19166020820180517bffffffffffffffffffffffffffffffffffffffffffffffffffffffff838183161783525050505061195a565b505050565b6001816000016000828254019250508190555050565b600081600001549050919050565b61156d82826040516024016114eb929190612818565b6040516020818303038152906040527f9710a9d0000000000000000000000000000000000000000000000000000000007bffffffffffffffffffffffffffffffffffffffffffffffffffffffff19166020820180517bffffffffffffffffffffffffffffffffffffffffffffffffffffffff838183161783525050505061195a565b5050565b61158b828260405180602001604052806000815250611983565b5050565b61159882610fa0565b6115d7576040517f08c379a00000000000000000000000000000000000000000000000000000000081526004016115ce90612988565b60405180910390fd5b806006600084815260200190815260200160002090805190602001906115fe929190611f1f565b505050565b6000600760009054906101000a900473ffffffffffffffffffffffffffffffffffffffff16905081600760006101000a81548173ffffffffffffffffffffffffffffffffffffffff021916908373ffffffffffffffffffffffffffffffffffffffff1602179055508173ffffffffffffffffffffffffffffffffffffffff168173ffffffffffffffffffffffffffffffffffffffff167f8be0079c531659141344cd1fd0a4f28419497f9722a3daafe3b4186f6b6457e060405160405180910390a35050565b8173ffffffffffffffffffffffffffffffffffffffff168373ffffffffffffffffffffffffffffffffffffffff161415611738576040517f08c379a000000000000000000000000000000000000000000000000000000000815260040161172f906128e8565b60405180910390fd5b80600560008573ffffffffffffffffffffffffffffffffffffffff1673ffffffffffffffffffffffffffffffffffffffff16815260200190815260200160002060008473ffffffffffffffffffffffffffffffffffffffff1673ffffffffffffffffffffffffffffffffffffffff16815260200190815260200160002060006101000a81548160ff0219169083151502179055508173ffffffffffffffffffffffffffffffffffffffff168373ffffffffffffffffffffffffffffffffffffffff167f17307eab39ab6107e8899845ad3d59bd9653f200f220920489ca2b5937696c31836040516118299190612796565b60405180910390a3505050565b6118418484846111ab565b61184d848484846119de565b61188c576040517f08c379a000000000000000000000000000000000000000000000000000000000815260040161188390612848565b60405180910390fd5b50505050565b606060405180602001604052806000815250905090565b60606118b482610fa0565b6118f3576040517f08c379a00000000000000000000000000000000000000000000000000000000081526004016118ea90612a28565b60405180910390fd5b60006118fd611892565b9050600081511161191d5760405180602001604052806000815250611948565b8061192784611b75565b60405160200161193892919061270b565b6040516020818303038152906040525b915050919050565b505050565b505050565b60008151905060006a636f6e736f6c652e6c6f679050602083016000808483855afa5050505050565b61198d8383611d22565b61199a60008484846119de565b6119d9576040517f08c379a00000000000000000000000000000000000000000000000000000000081526004016119d090612848565b60405180910390fd5b505050565b60006119ff8473ffffffffffffffffffffffffffffffffffffffff16611efc565b15611b68578373ffffffffffffffffffffffffffffffffffffffff1663150b7a02611a2861100c565b8786866040518563ffffffff1660e01b8152600401611a4a949392919061274a565b602060405180830381600087803b158015611a6457600080fd5b505af1925050508015611a9557506040513d601f19601f82011682018060405250810190611a92919061231f565b60015b611b18573d8060008114611ac5576040519150601f19603f3d011682016040523d82523d6000602084013e611aca565b606091505b50600081511415611b10576040517f08c379a0000000000000000000000000000000000000000000000000000000008152600401611b0790612848565b60405180910390fd5b805181602001fd5b63150b7a0260e01b7bffffffffffffffffffffffffffffffffffffffffffffffffffffffff1916817bffffffffffffffffffffffffffffffffffffffffffffffffffffffff191614915050611b6d565b600190505b949350505050565b60606000821415611bbd576040518060400160405280600181526020017f30000000000000000000000000000000000000000000000000000000000000008152509050611d1d565b600082905060005b60008214611bef578080611bd890612d71565b915050600a82611be89190612bf3565b9150611bc5565b60008167ffffffffffffffff811115611c31577f4e487b7100000000000000000000000000000000000000000000000000000000600052604160045260246000fd5b6040519080825280601f01601f191660200182016040528015611c635781602001600182028036833780820191505090505b5090505b60008514611d1657600182611c7c9190612c24565b9150600a85611c8b9190612dba565b6030611c979190612b9d565b60f81b818381518110611cd3577f4e487b7100000000000000000000000000000000000000000000000000000000600052603260045260246000fd5b60200101907effffffffffffffffffffffffffffffffffffffffffffffffffffffffffffff1916908160001a905350600a85611d0f9190612bf3565b9450611c67565b8093505050505b919050565b600073ffffffffffffffffffffffffffffffffffffffff168273ffffffffffffffffffffffffffffffffffffffff161415611d92576040517f08c379a0000000000000000000000000000000000000000000000000000000008152600401611d89906129a8565b60405180910390fd5b611d9b81610fa0565b15611ddb576040517f08c379a0000000000000000000000000000000000000000000000000000000008152600401611dd2906128a8565b60405180910390fd5b611de760008383611950565b6001600360008473ffffffffffffffffffffffffffffffffffffffff1673ffffffffffffffffffffffffffffffffffffffff1681526020019081526020016000206000828254611e379190612b9d565b92505081905550816002600083815260200190815260200160002060006101000a81548173ffffffffffffffffffffffffffffffffffffffff021916908373ffffffffffffffffffffffffffffffffffffffff160217905550808273ffffffffffffffffffffffffffffffffffffffff16600073ffffffffffffffffffffffffffffffffffffffff167fddf252ad1be2c89b69c2b068fc378daa952ba7f163c4a11628f55a4df523b3ef60405160405180910390a4611ef860008383611955565b5050565b6000808273ffffffffffffffffffffffffffffffffffffffff163b119050919050565b828054611f2b90612d0e565b90600052602060002090601f016020900481019282611f4d5760008555611f94565b82601f10611f6657805160ff1916838001178555611f94565b82800160010185558215611f94579182015b82811115611f93578251825591602001919060010190611f78565b5b509050611fa19190611fa5565b5090565b5b80821115611fbe576000816000905550600101611fa6565b5090565b6000611fd5611fd084612af8565b612ad3565b905082815260208101848484011115611fed57600080fd5b611ff8848285612ccc565b509392505050565b600061201361200e84612b29565b612ad3565b90508281526020810184848401111561202b57600080fd5b612036848285612ccc565b509392505050565b60008135905061204d816133ae565b92915050565b600081359050612062816133c5565b92915050565b600081359050612077816133dc565b92915050565b60008151905061208c816133dc565b92915050565b600082601f8301126120a357600080fd5b81356120b3848260208601611fc2565b91505092915050565b600082601f8301126120cd57600080fd5b81356120dd848260208601612000565b91505092915050565b6000813590506120f5816133f3565b92915050565b60006020828403121561210d57600080fd5b600061211b8482850161203e565b91505092915050565b6000806040838503121561213757600080fd5b60006121458582860161203e565b92505060206121568582860161203e565b9150509250929050565b60008060006060848603121561217557600080fd5b60006121838682870161203e565b93505060206121948682870161203e565b92505060406121a5868287016120e6565b9150509250925092565b600080600080608085870312156121c557600080fd5b60006121d38782880161203e565b94505060206121e48782880161203e565b93505060406121f5878288016120e6565b925050606085013567ffffffffffffffff81111561221257600080fd5b61221e87828801612092565b91505092959194509250565b6000806040838503121561223d57600080fd5b600061224b8582860161203e565b925050602061225c85828601612053565b9150509250929050565b6000806040838503121561227957600080fd5b60006122878582860161203e565b925050602083013567ffffffffffffffff8111156122a457600080fd5b6122b0858286016120bc565b9150509250929050565b600080604083850312156122cd57600080fd5b60006122db8582860161203e565b92505060206122ec858286016120e6565b9150509250929050565b60006020828403121561230857600080fd5b600061231684828501612068565b91505092915050565b60006020828403121561233157600080fd5b600061233f8482850161207d565b91505092915050565b60006020828403121561235a57600080fd5b6000612368848285016120e6565b91505092915050565b6000806040838503121561238457600080fd5b6000612392858286016120e6565b925050602083013567ffffffffffffffff8111156123af57600080fd5b6123bb858286016120bc565b9150509250929050565b6123ce81612c58565b82525050565b6123dd81612c6a565b82525050565b60006123ee82612b5a565b6123f88185612b70565b9350612408818560208601612cdb565b61241181612ea7565b840191505092915050565b600061242782612b65565b6124318185612b81565b9350612441818560208601612cdb565b61244a81612ea7565b840191505092915050565b600061246082612b65565b61246a8185612b92565b935061247a818560208601612cdb565b80840191505092915050565b6000612493603283612b81565b915061249e82612eb8565b604082019050919050565b60006124b6602683612b81565b91506124c182612f07565b604082019050919050565b60006124d9602583612b81565b91506124e482612f56565b604082019050919050565b60006124fc601c83612b81565b915061250782612fa5565b602082019050919050565b600061251f602483612b81565b915061252a82612fce565b604082019050919050565b6000612542601983612b81565b915061254d8261301d565b602082019050919050565b6000612565602c83612b81565b915061257082613046565b604082019050919050565b6000612588603883612b81565b915061259382613095565b604082019050919050565b60006125ab602a83612b81565b91506125b6826130e4565b604082019050919050565b60006125ce602983612b81565b91506125d982613133565b604082019050919050565b60006125f1602e83612b81565b91506125fc82613182565b604082019050919050565b6000612614602083612b81565b915061261f826131d1565b602082019050919050565b6000612637603183612b81565b9150612642826131fa565b604082019050919050565b600061265a602c83612b81565b915061266582613249565b604082019050919050565b600061267d602083612b81565b915061268882613298565b602082019050919050565b60006126a0602f83612b81565b91506126ab826132c1565b604082019050919050565b60006126c3602183612b81565b91506126ce82613310565b604082019050919050565b60006126e6603183612b81565b91506126f18261335f565b604082019050919050565b61270581612cc2565b82525050565b60006127178285612455565b91506127238284612455565b91508190509392505050565b600060208201905061274460008301846123c5565b92915050565b600060808201905061275f60008301876123c5565b61276c60208301866123c5565b61277960408301856126fc565b818103606083015261278b81846123e3565b905095945050505050565b60006020820190506127ab60008301846123d4565b92915050565b600060208201905081810360008301526127cb818461241c565b905092915050565b600060608201905081810360008301526127ed818661241c565b90506127fc60208301856123c5565b818103604083015261280e818461241c565b9050949350505050565b60006040820190508181036000830152612832818561241c565b905061284160208301846126fc565b9392505050565b6000602082019050818103600083015261286181612486565b9050919050565b60006020820190508181036000830152612881816124a9565b9050919050565b600060208201905081810360008301526128a1816124cc565b9050919050565b600060208201905081810360008301526128c1816124ef565b9050919050565b600060208201905081810360008301526128e181612512565b9050919050565b6000602082019050818103600083015261290181612535565b9050919050565b6000602082019050818103600083015261292181612558565b9050919050565b600060208201905081810360008301526129418161257b565b9050919050565b600060208201905081810360008301526129618161259e565b9050919050565b60006020820190508181036000830152612981816125c1565b9050919050565b600060208201905081810360008301526129a1816125e4565b9050919050565b600060208201905081810360008301526129c181612607565b9050919050565b600060208201905081810360008301526129e18161262a565b9050919050565b60006020820190508181036000830152612a018161264d565b9050919050565b60006020820190508181036000830152612a2181612670565b9050919050565b60006020820190508181036000830152612a4181612693565b9050919050565b60006020820190508181036000830152612a61816126b6565b9050919050565b60006020820190508181036000830152612a81816126d9565b9050919050565b6000602082019050612a9d60008301846126fc565b92915050565b6000604082019050612ab860008301856126fc565b8181036020830152612aca818461241c565b90509392505050565b6000612add612aee565b9050612ae98282612d40565b919050565b6000604051905090565b600067ffffffffffffffff821115612b1357612b12612e78565b5b612b1c82612ea7565b9050602081019050919050565b600067ffffffffffffffff821115612b4457612b43612e78565b5b612b4d82612ea7565b9050602081019050919050565b600081519050919050565b600081519050919050565b600082825260208201905092915050565b600082825260208201905092915050565b600081905092915050565b6000612ba882612cc2565b9150612bb383612cc2565b9250827fffffffffffffffffffffffffffffffffffffffffffffffffffffffffffffffff03821115612be857612be7612deb565b5b828201905092915050565b6000612bfe82612cc2565b9150612c0983612cc2565b925082612c1957612c18612e1a565b5b828204905092915050565b6000612c2f82612cc2565b9150612c3a83612cc2565b925082821015612c4d57612c4c612deb565b5b828203905092915050565b6000612c6382612ca2565b9050919050565b60008115159050919050565b60007fffffffff0000000000000000000000000000000000000000000000000000000082169050919050565b600073ffffffffffffffffffffffffffffffffffffffff82169050919050565b6000819050919050565b82818337600083830152505050565b60005b83811015612cf9578082015181840152602081019050612cde565b83811115612d08576000848401525b50505050565b60006002820490506001821680612d2657607f821691505b60208210811415612d3a57612d39612e49565b5b50919050565b612d4982612ea7565b810181811067ffffffffffffffff82111715612d6857612d67612e78565b5b80604052505050565b6000612d7c82612cc2565b91507fffffffffffffffffffffffffffffffffffffffffffffffffffffffffffffffff821415612daf57612dae612deb565b5b600182019050919050565b6000612dc582612cc2565b9150612dd083612cc2565b925082612de057612ddf612e1a565b5b828206905092915050565b7f4e487b7100000000000000000000000000000000000000000000000000000000600052601160045260246000fd5b7f4e487b7100000000000000000000000000000000000000000000000000000000600052601260045260246000fd5b7f4e487b7100000000000000000000000000000000000000000000000000000000600052602260045260246000fd5b7f4e487b7100000000000000000000000000000000000000000000000000000000600052604160045260246000fd5b6000601f19601f8301169050919050565b7f4552433732313a207472616e7366657220746f206e6f6e20455243373231526560008201527f63656976657220696d706c656d656e7465720000000000000000000000000000602082015250565b7f4f776e61626c653a206e6577206f776e657220697320746865207a65726f206160008201527f6464726573730000000000000000000000000000000000000000000000000000602082015250565b7f4552433732313a207472616e736665722066726f6d20696e636f72726563742060008201527f6f776e6572000000000000000000000000000000000000000000000000000000602082015250565b7f4552433732313a20746f6b656e20616c7265616479206d696e74656400000000600082015250565b7f4552433732313a207472616e7366657220746f20746865207a65726f2061646460008201527f7265737300000000000000000000000000000000000000000000000000000000602082015250565b7f4552433732313a20617070726f766520746f2063616c6c657200000000000000600082015250565b7f4552433732313a206f70657261746f7220717565727920666f72206e6f6e657860008201527f697374656e7420746f6b656e0000000000000000000000000000000000000000602082015250565b7f4552433732313a20617070726f76652063616c6c6572206973206e6f74206f7760008201527f6e6572206e6f7220617070726f76656420666f7220616c6c0000000000000000602082015250565b7f4552433732313a2062616c616e636520717565727920666f7220746865207a6560008201527f726f206164647265737300000000000000000000000000000000000000000000602082015250565b7f4552433732313a206f776e657220717565727920666f72206e6f6e657869737460008201527f656e7420746f6b656e0000000000000000000000000000000000000000000000602082015250565b7f45524337323155524953746f726167653a2055524920736574206f66206e6f6e60008201527f6578697374656e7420746f6b656e000000000000000000000000000000000000602082015250565b7f4552433732313a206d696e7420746f20746865207a65726f2061646472657373600082015250565b7f45524337323155524953746f726167653a2055524920717565727920666f722060008201527f6e6f6e6578697374656e7420746f6b656e000000000000000000000000000000602082015250565b7f4552433732313a20617070726f76656420717565727920666f72206e6f6e657860008201527f697374656e7420746f6b656e0000000000000000000000000000000000000000602082015250565b7f4f776e61626c653a2063616c6c6572206973206e6f7420746865206f776e6572600082015250565b7f4552433732314d657461646174613a2055524920717565727920666f72206e6f60008201527f6e6578697374656e7420746f6b656e0000000000000000000000000000000000602082015250565b7f4552433732313a20617070726f76616c20746f2063757272656e74206f776e6560008201527f7200000000000000000000000000000000000000000000000000000000000000602082015250565b7f4552433732313a207472616e736665722063616c6c6572206973206e6f74206f60008201527f776e6572206e6f7220617070726f766564000000000000000000000000000000602082015250565b6133b781612c58565b81146133c257600080fd5b50565b6133ce81612c6a565b81146133d957600080fd5b50565b6133e581612c76565b81146133f057600080fd5b50565b6133fc81612cc2565b811461340757600080fd5b5056fe43616c6c696e67206d696e74546f6b656e207769746820616464726573733a20257320616e64207572693a202573a26469706673582212204137bcf3423af44ff55cc5e76cc18efb28cb39f78dcf4ef895afa3834552f2b564736f6c63430008040033",
  "linkReferences": {},
  "deployedLinkReferences": {}
}