{
  "_format": "hh-sol-artifact-1",
  "contractName": "NFTMinter",
  "sourceName": "contracts/NFTMinter.sol",
  "abi": [
    {
      "inputs": [
        {
          "internalType": "string",
          "name": "tokenName",
          "type": "string"
        },
        {
          "internalType": "string",
          "name": "symbol",
          "type": "string"
        }
      ],
      "stateMutability": "nonpayable",
      "type": "constructor"
    },
    {
      "anonymous": false,
      "inputs": [
        {
          "indexed": true,
          "internalType": "address",
          "name": "owner",
          "type": "address"
        },
        {
          "indexed": true,
          "internalType": "address",
          "name": "approved",
          "type": "address"
        },
        {
          "indexed": true,
          "internalType": "uint256",
          "name": "tokenId",
          "type": "uint256"
        }
      ],
      "name": "Approval",
      "type": "event"
    },
    {
      "anonymous": false,
      "inputs": [
        {
          "indexed": true,
          "internalType": "address",
          "name": "owner",
          "type": "address"
        },
        {
          "indexed": true,
          "internalType": "address",
          "name": "operator",
          "type": "address"
        },
        {
          "indexed": false,
          "internalType": "bool",
          "name": "approved",
          "type": "bool"
        }
      ],
      "name": "ApprovalForAll",
      "type": "event"
    },
    {
      "anonymous": false,
      "inputs": [
        {
          "indexed": false,
          "internalType": "uint256",
          "name": "_id",
          "type": "uint256"
        },
        {
          "indexed": false,
          "internalType": "string",
          "name": "_metadataURI",
          "type": "string"
        }
      ],
      "name": "ChangedMetadata",
      "type": "event"
    },
    {
      "anonymous": false,
      "inputs": [
        {
          "indexed": false,
          "internalType": "uint256",
          "name": "_id",
          "type": "uint256"
        },
        {
          "indexed": true,
          "internalType": "address",
          "name": "_recipient",
          "type": "address"
        },
        {
          "indexed": false,
          "internalType": "string",
          "name": "_metadataURI",
          "type": "string"
        }
      ],
      "name": "Minted",
      "type": "event"
    },
    {
      "anonymous": false,
      "inputs": [
        {
          "indexed": true,
          "internalType": "address",
          "name": "previousOwner",
          "type": "address"
        },
        {
          "indexed": true,
          "internalType": "address",
          "name": "newOwner",
          "type": "address"
        }
      ],
      "name": "OwnershipTransferred",
      "type": "event"
    },
    {
      "anonymous": false,
      "inputs": [
        {
          "indexed": true,
          "internalType": "address",
          "name": "from",
          "type": "address"
        },
        {
          "indexed": true,
          "internalType": "address",
          "name": "to",
          "type": "address"
        },
        {
          "indexed": true,
          "internalType": "uint256",
          "name": "tokenId",
          "type": "uint256"
        }
      ],
      "name": "Transfer",
      "type": "event"
    },
    {
      "inputs": [
        {
          "internalType": "address",
          "name": "to",
          "type": "address"
        },
        {
          "internalType": "uint256",
          "name": "tokenId",
          "type": "uint256"
        }
      ],
      "name": "approve",
      "outputs": [],
      "stateMutability": "nonpayable",
      "type": "function"
    },
    {
      "inputs": [
        {
          "internalType": "address",
          "name": "owner",
          "type": "address"
        }
      ],
      "name": "balanceOf",
      "outputs": [
        {
          "internalType": "uint256",
          "name": "",
          "type": "uint256"
        }
      ],
      "stateMutability": "view",
      "type": "function"
    },
    {
      "inputs": [
        {
          "internalType": "uint256[]",
          "name": "ids",
          "type": "uint256[]"
        },
        {
          "internalType": "uint256[]",
          "name": "attributeMultipliers",
          "type": "uint256[]"
        },
        {
          "internalType": "string[]",
          "name": "metadataURIs",
          "type": "string[]"
        }
      ],
      "name": "changeMetadata",
      "outputs": [],
      "stateMutability": "nonpayable",
      "type": "function"
    },
    {
      "inputs": [
        {
          "internalType": "uint256",
          "name": "tokenId",
          "type": "uint256"
        }
      ],
      "name": "getApproved",
      "outputs": [
        {
          "internalType": "address",
          "name": "",
          "type": "address"
        }
      ],
      "stateMutability": "view",
      "type": "function"
    },
    {
      "inputs": [
        {
          "internalType": "uint256",
          "name": "tokenId",
          "type": "uint256"
        }
      ],
      "name": "getMultiplierAttributeValue",
      "outputs": [
        {
          "internalType": "uint256",
          "name": "",
          "type": "uint256"
        }
      ],
      "stateMutability": "view",
      "type": "function"
    },
    {
      "inputs": [
        {
          "internalType": "address",
          "name": "owner",
          "type": "address"
        },
        {
          "internalType": "address",
          "name": "operator",
          "type": "address"
        }
      ],
      "name": "isApprovedForAll",
      "outputs": [
        {
          "internalType": "bool",
          "name": "",
          "type": "bool"
        }
      ],
      "stateMutability": "view",
      "type": "function"
    },
    {
      "inputs": [
        {
          "internalType": "address",
          "name": "owner",
          "type": "address"
        },
        {
          "internalType": "uint256[]",
          "name": "ids",
          "type": "uint256[]"
        },
        {
          "internalType": "uint256[]",
          "name": "attributeMultipliers",
          "type": "uint256[]"
        },
        {
          "internalType": "string[]",
          "name": "metadataURIs",
          "type": "string[]"
        }
      ],
      "name": "mintTokens",
      "outputs": [],
      "stateMutability": "nonpayable",
      "type": "function"
    },
    {
      "inputs": [],
      "name": "name",
      "outputs": [
        {
          "internalType": "string",
          "name": "",
          "type": "string"
        }
      ],
      "stateMutability": "view",
      "type": "function"
    },
    {
      "inputs": [],
      "name": "owner",
      "outputs": [
        {
          "internalType": "address",
          "name": "",
          "type": "address"
        }
      ],
      "stateMutability": "view",
      "type": "function"
    },
    {
      "inputs": [
        {
          "internalType": "uint256",
          "name": "tokenId",
          "type": "uint256"
        }
      ],
      "name": "ownerOf",
      "outputs": [
        {
          "internalType": "address",
          "name": "",
          "type": "address"
        }
      ],
      "stateMutability": "view",
      "type": "function"
    },
    {
      "inputs": [],
      "name": "renounceOwnership",
      "outputs": [],
      "stateMutability": "nonpayable",
      "type": "function"
    },
    {
      "inputs": [
        {
          "internalType": "address",
          "name": "from",
          "type": "address"
        },
        {
          "internalType": "address",
          "name": "to",
          "type": "address"
        },
        {
          "internalType": "uint256",
          "name": "tokenId",
          "type": "uint256"
        }
      ],
      "name": "safeTransferFrom",
      "outputs": [],
      "stateMutability": "nonpayable",
      "type": "function"
    },
    {
      "inputs": [
        {
          "internalType": "address",
          "name": "from",
          "type": "address"
        },
        {
          "internalType": "address",
          "name": "to",
          "type": "address"
        },
        {
          "internalType": "uint256",
          "name": "tokenId",
          "type": "uint256"
        },
        {
          "internalType": "bytes",
          "name": "_data",
          "type": "bytes"
        }
      ],
      "name": "safeTransferFrom",
      "outputs": [],
      "stateMutability": "nonpayable",
      "type": "function"
    },
    {
      "inputs": [
        {
          "internalType": "address",
          "name": "operator",
          "type": "address"
        },
        {
          "internalType": "bool",
          "name": "approved",
          "type": "bool"
        }
      ],
      "name": "setApprovalForAll",
      "outputs": [],
      "stateMutability": "nonpayable",
      "type": "function"
    },
    {
      "inputs": [
        {
          "internalType": "bytes4",
          "name": "interfaceId",
          "type": "bytes4"
        }
      ],
      "name": "supportsInterface",
      "outputs": [
        {
          "internalType": "bool",
          "name": "",
          "type": "bool"
        }
      ],
      "stateMutability": "view",
      "type": "function"
    },
    {
      "inputs": [],
      "name": "symbol",
      "outputs": [
        {
          "internalType": "string",
          "name": "",
          "type": "string"
        }
      ],
      "stateMutability": "view",
      "type": "function"
    },
    {
      "inputs": [
        {
          "internalType": "uint256",
          "name": "index",
          "type": "uint256"
        }
      ],
      "name": "tokenByIndex",
      "outputs": [
        {
          "internalType": "uint256",
          "name": "",
          "type": "uint256"
        }
      ],
      "stateMutability": "view",
      "type": "function"
    },
    {
      "inputs": [
        {
          "internalType": "address",
          "name": "owner",
          "type": "address"
        },
        {
          "internalType": "uint256",
          "name": "index",
          "type": "uint256"
        }
      ],
      "name": "tokenOfOwnerByIndex",
      "outputs": [
        {
          "internalType": "uint256",
          "name": "",
          "type": "uint256"
        }
      ],
      "stateMutability": "view",
      "type": "function"
    },
    {
      "inputs": [
        {
          "internalType": "uint256",
          "name": "tokenId",
          "type": "uint256"
        }
      ],
      "name": "tokenURI",
      "outputs": [
        {
          "internalType": "string",
          "name": "",
          "type": "string"
        }
      ],
      "stateMutability": "view",
      "type": "function"
    },
    {
      "inputs": [],
      "name": "totalSupply",
      "outputs": [
        {
          "internalType": "uint256",
          "name": "",
          "type": "uint256"
        }
      ],
      "stateMutability": "view",
      "type": "function"
    },
    {
      "inputs": [
        {
          "internalType": "address",
          "name": "from",
          "type": "address"
        },
        {
          "internalType": "address",
          "name": "to",
          "type": "address"
        },
        {
          "internalType": "uint256",
          "name": "tokenId",
          "type": "uint256"
        }
      ],
      "name": "transferFrom",
      "outputs": [],
      "stateMutability": "nonpayable",
      "type": "function"
    },
    {
      "inputs": [
        {
          "internalType": "address",
          "name": "newOwner",
          "type": "address"
        }
      ],
      "name": "transferOwnership",
      "outputs": [],
      "stateMutability": "nonpayable",
      "type": "function"
    }
  ],
  "bytecode": "0x60806040523480156200001157600080fd5b50604051620048e5380380620048e5833981810160405281019062000037919062000285565b818181600090805190602001906200005192919062000163565b5080600190805190602001906200006a92919062000163565b5050506200008d620000816200009560201b60201c565b6200009d60201b60201c565b505062000468565b600033905090565b6000600b60009054906101000a900473ffffffffffffffffffffffffffffffffffffffff16905081600b60006101000a81548173ffffffffffffffffffffffffffffffffffffffff021916908373ffffffffffffffffffffffffffffffffffffffff1602179055508173ffffffffffffffffffffffffffffffffffffffff168173ffffffffffffffffffffffffffffffffffffffff167f8be0079c531659141344cd1fd0a4f28419497f9722a3daafe3b4186f6b6457e060405160405180910390a35050565b82805462000171906200038d565b90600052602060002090601f016020900481019282620001955760008555620001e1565b82601f10620001b057805160ff1916838001178555620001e1565b82800160010185558215620001e1579182015b82811115620001e0578251825591602001919060010190620001c3565b5b509050620001f09190620001f4565b5090565b5b808211156200020f576000816000905550600101620001f5565b5090565b60006200022a620002248462000321565b620002f8565b9050828152602081018484840111156200024357600080fd5b6200025084828562000357565b509392505050565b600082601f8301126200026a57600080fd5b81516200027c84826020860162000213565b91505092915050565b600080604083850312156200029957600080fd5b600083015167ffffffffffffffff811115620002b457600080fd5b620002c28582860162000258565b925050602083015167ffffffffffffffff811115620002e057600080fd5b620002ee8582860162000258565b9150509250929050565b60006200030462000317565b9050620003128282620003c3565b919050565b6000604051905090565b600067ffffffffffffffff8211156200033f576200033e62000428565b5b6200034a8262000457565b9050602081019050919050565b60005b83811015620003775780820151818401526020810190506200035a565b8381111562000387576000848401525b50505050565b60006002820490506001821680620003a657607f821691505b60208210811415620003bd57620003bc620003f9565b5b50919050565b620003ce8262000457565b810181811067ffffffffffffffff82111715620003f057620003ef62000428565b5b80604052505050565b7f4e487b7100000000000000000000000000000000000000000000000000000000600052602260045260246000fd5b7f4e487b7100000000000000000000000000000000000000000000000000000000600052604160045260246000fd5b6000601f19601f8301169050919050565b61446d80620004786000396000f3fe608060405234801561001057600080fd5b50600436106101425760003560e01c806370a08231116100b8578063b88d4fde1161007c578063b88d4fde14610375578063c87b56dd14610391578063dc3b23d4146103c1578063e985e9c5146103dd578063f2fde38b1461040d578063f3e56d5e1461042957610142565b806370a08231146102e3578063715018a6146103135780638da5cb5b1461031d57806395d89b411461033b578063a22cb4651461035957610142565b806320d95dd91161010a57806320d95dd9146101ff57806323b872dd1461021b5780632f745c591461023757806342842e0e146102675780634f6ccce7146102835780636352211e146102b357610142565b806301ffc9a71461014757806306fdde0314610177578063081812fc14610195578063095ea7b3146101c557806318160ddd146101e1575b600080fd5b610161600480360381019061015c9190612fe1565b610459565b60405161016e91906134dc565b60405180910390f35b61017f61046b565b60405161018c91906134f7565b60405180910390f35b6101af60048036038101906101aa9190613033565b6104fd565b6040516101bc9190613475565b60405180910390f35b6101df60048036038101906101da9190612f0e565b610582565b005b6101e961069a565b6040516101f69190613867565b60405180910390f35b61021960048036038101906102149190612e27565b6106a7565b005b61023560048036038101906102309190612d5d565b610947565b005b610251600480360381019061024c9190612f0e565b6109a7565b60405161025e9190613867565b60405180910390f35b610281600480360381019061027c9190612d5d565b610a4c565b005b61029d60048036038101906102989190613033565b610a6c565b6040516102aa9190613867565b60405180910390f35b6102cd60048036038101906102c89190613033565b610b03565b6040516102da9190613475565b60405180910390f35b6102fd60048036038101906102f89190612cf8565b610bb5565b60405161030a9190613867565b60405180910390f35b61031b610c6d565b005b610325610cf5565b6040516103329190613475565b60405180910390f35b610343610d1f565b60405161035091906134f7565b60405180910390f35b610373600480360381019061036e9190612ed2565b610db1565b005b61038f600480360381019061038a9190612dac565b610dc7565b005b6103ab60048036038101906103a69190613033565b610e29565b6040516103b891906134f7565b60405180910390f35b6103db60048036038101906103d69190612f4a565b610e3b565b005b6103f760048036038101906103f29190612d21565b6110fa565b60405161040491906134dc565b60405180910390f35b61042760048036038101906104229190612cf8565b61118e565b005b610443600480360381019061043e9190613033565b611286565b6040516104509190613867565b60405180910390f35b6000610464826112a3565b9050919050565b60606000805461047a90613b45565b80601f01602080910402602001604051908101604052809291908181526020018280546104a690613b45565b80156104f35780601f106104c8576101008083540402835291602001916104f3565b820191906000526020600020905b8154815290600101906020018083116104d657829003601f168201915b5050505050905090565b60006105088261131d565b610547576040517f08c379a000000000000000000000000000000000000000000000000000000000815260040161053e90613767565b60405180910390fd5b6004600083815260200190815260200160002060009054906101000a900473ffffffffffffffffffffffffffffffffffffffff169050919050565b600061058d82610b03565b90508073ffffffffffffffffffffffffffffffffffffffff168373ffffffffffffffffffffffffffffffffffffffff1614156105fe576040517f08c379a00000000000000000000000000000000000000000000000000000000081526004016105f5906137e7565b60405180910390fd5b8073ffffffffffffffffffffffffffffffffffffffff1661061d611389565b73ffffffffffffffffffffffffffffffffffffffff16148061064c575061064b81610646611389565b6110fa565b5b61068b576040517f08c379a0000000000000000000000000000000000000000000000000000000008152600401610682906136a7565b60405180910390fd5b6106958383611391565b505050565b6000600880549050905090565b6106af611389565b73ffffffffffffffffffffffffffffffffffffffff166106cd610cf5565b73ffffffffffffffffffffffffffffffffffffffff1614610723576040517f08c379a000000000000000000000000000000000000000000000000000000000815260040161071a90613787565b60405180910390fd5b8051835114610767576040517f08c379a000000000000000000000000000000000000000000000000000000000815260040161075e90613687565b60405180910390fd5b81518351146107ab576040517f08c379a00000000000000000000000000000000000000000000000000000000081526004016107a2906137c7565b60405180910390fd5b6107cf6040518060600160405280603b81526020016143fd603b913985855161144a565b60005b8351811015610940576107e5600c6114e9565b6000848281518110610820577f4e487b7100000000000000000000000000000000000000000000000000000000600052603260045260246000fd5b602002602001015190506000838381518110610865577f4e487b7100000000000000000000000000000000000000000000000000000000600052603260045260246000fd5b602002602001015190508483815181106108a8577f4e487b7100000000000000000000000000000000000000000000000000000000600052603260045260246000fd5b6020026020010151600d6000848152602001908152602001600020819055506108d187836114ff565b6108db828261151d565b8673ffffffffffffffffffffffffffffffffffffffff167f3b8a974a6971dbe70c8718ec80406b2790d2aa5477b6a5bed3d94fa19e06d60d8383604051610923929190613882565b60405180910390a25050808061093890613ba8565b9150506107d2565b5050505050565b610958610952611389565b82611591565b610997576040517f08c379a000000000000000000000000000000000000000000000000000000000815260040161098e90613807565b60405180910390fd5b6109a283838361166f565b505050565b60006109b283610bb5565b82106109f3576040517f08c379a00000000000000000000000000000000000000000000000000000000081526004016109ea90613587565b60405180910390fd5b600660008473ffffffffffffffffffffffffffffffffffffffff1673ffffffffffffffffffffffffffffffffffffffff168152602001908152602001600020600083815260200190815260200160002054905092915050565b610a6783838360405180602001604052806000815250610dc7565b505050565b6000610a7661069a565b8210610ab7576040517f08c379a0000000000000000000000000000000000000000000000000000000008152600401610aae90613827565b60405180910390fd5b60088281548110610af1577f4e487b7100000000000000000000000000000000000000000000000000000000600052603260045260246000fd5b90600052602060002001549050919050565b6000806002600084815260200190815260200160002060009054906101000a900473ffffffffffffffffffffffffffffffffffffffff169050600073ffffffffffffffffffffffffffffffffffffffff168173ffffffffffffffffffffffffffffffffffffffff161415610bac576040517f08c379a0000000000000000000000000000000000000000000000000000000008152600401610ba3906136e7565b60405180910390fd5b80915050919050565b60008073ffffffffffffffffffffffffffffffffffffffff168273ffffffffffffffffffffffffffffffffffffffff161415610c26576040517f08c379a0000000000000000000000000000000000000000000000000000000008152600401610c1d906136c7565b60405180910390fd5b600360008373ffffffffffffffffffffffffffffffffffffffff1673ffffffffffffffffffffffffffffffffffffffff168152602001908152602001600020549050919050565b610c75611389565b73ffffffffffffffffffffffffffffffffffffffff16610c93610cf5565b73ffffffffffffffffffffffffffffffffffffffff1614610ce9576040517f08c379a0000000000000000000000000000000000000000000000000000000008152600401610ce090613787565b60405180910390fd5b610cf360006118d6565b565b6000600b60009054906101000a900473ffffffffffffffffffffffffffffffffffffffff16905090565b606060018054610d2e90613b45565b80601f0160208091040260200160405190810160405280929190818152602001828054610d5a90613b45565b8015610da75780601f10610d7c57610100808354040283529160200191610da7565b820191906000526020600020905b815481529060010190602001808311610d8a57829003601f168201915b5050505050905090565b610dc3610dbc611389565b838361199c565b5050565b610dd8610dd2611389565b83611591565b610e17576040517f08c379a0000000000000000000000000000000000000000000000000000000008152600401610e0e90613807565b60405180910390fd5b610e2384848484611b09565b50505050565b6060610e3482611b65565b9050919050565b610e43611389565b73ffffffffffffffffffffffffffffffffffffffff16610e61610cf5565b73ffffffffffffffffffffffffffffffffffffffff1614610eb7576040517f08c379a0000000000000000000000000000000000000000000000000000000008152600401610eae90613787565b60405180910390fd5b8051835114610efb576040517f08c379a0000000000000000000000000000000000000000000000000000000008152600401610ef290613687565b60405180910390fd5b8151835114610f3f576040517f08c379a0000000000000000000000000000000000000000000000000000000008152600401610f36906137c7565b60405180910390fd5b610f49600c611cb7565b835114610f8b576040517f08c379a0000000000000000000000000000000000000000000000000000000008152600401610f8290613847565b60405180910390fd5b610fae6040518060600160405280603081526020016143cd603091398451611cc5565b60005b83518110156110f4576000848281518110610ff5577f4e487b7100000000000000000000000000000000000000000000000000000000600052603260045260246000fd5b60200260200101519050600083838151811061103a577f4e487b7100000000000000000000000000000000000000000000000000000000600052603260045260246000fd5b6020026020010151905084838151811061107d577f4e487b7100000000000000000000000000000000000000000000000000000000600052603260045260246000fd5b6020026020010151600d6000848152602001908152602001600020819055506110a6828261151d565b7f4d94d4affb979a60a2e3d4c124aa66d9a0cbe06512c55be44ed71848bade454d82826040516110d7929190613882565b60405180910390a1505080806110ec90613ba8565b915050610fb1565b50505050565b6000600560008473ffffffffffffffffffffffffffffffffffffffff1673ffffffffffffffffffffffffffffffffffffffff16815260200190815260200160002060008373ffffffffffffffffffffffffffffffffffffffff1673ffffffffffffffffffffffffffffffffffffffff16815260200190815260200160002060009054906101000a900460ff16905092915050565b611196611389565b73ffffffffffffffffffffffffffffffffffffffff166111b4610cf5565b73ffffffffffffffffffffffffffffffffffffffff161461120a576040517f08c379a000000000000000000000000000000000000000000000000000000000815260040161120190613787565b60405180910390fd5b600073ffffffffffffffffffffffffffffffffffffffff168173ffffffffffffffffffffffffffffffffffffffff16141561127a576040517f08c379a0000000000000000000000000000000000000000000000000000000008152600401611271906135c7565b60405180910390fd5b611283816118d6565b50565b6000600d6000838152602001908152602001600020549050919050565b60007f780e9d63000000000000000000000000000000000000000000000000000000007bffffffffffffffffffffffffffffffffffffffffffffffffffffffff1916827bffffffffffffffffffffffffffffffffffffffffffffffffffffffff19161480611316575061131582611d61565b5b9050919050565b60008073ffffffffffffffffffffffffffffffffffffffff166002600084815260200190815260200160002060009054906101000a900473ffffffffffffffffffffffffffffffffffffffff1673ffffffffffffffffffffffffffffffffffffffff1614159050919050565b600033905090565b816004600083815260200190815260200160002060006101000a81548173ffffffffffffffffffffffffffffffffffffffff021916908373ffffffffffffffffffffffffffffffffffffffff160217905550808273ffffffffffffffffffffffffffffffffffffffff1661140483610b03565b73ffffffffffffffffffffffffffffffffffffffff167f8c5be1e5ebec7d5bd14f71427d1e84f3dd0314c0f7b2291e5b200ac8c7c3b92560405160405180910390a45050565b6114e483838360405160240161146293929190613519565b6040516020818303038152906040527f07c81217000000000000000000000000000000000000000000000000000000007bffffffffffffffffffffffffffffffffffffffffffffffffffffffff19166020820180517bffffffffffffffffffffffffffffffffffffffffffffffffffffffff8381831617835250505050611e43565b505050565b6001816000016000828254019250508190555050565b611519828260405180602001604052806000815250611e6c565b5050565b6115268261131d565b611565576040517f08c379a000000000000000000000000000000000000000000000000000000000815260040161155c90613707565b60405180910390fd5b80600a6000848152602001908152602001600020908051906020019061158c9291906129d6565b505050565b600061159c8261131d565b6115db576040517f08c379a00000000000000000000000000000000000000000000000000000000081526004016115d290613667565b60405180910390fd5b60006115e683610b03565b90508073ffffffffffffffffffffffffffffffffffffffff168473ffffffffffffffffffffffffffffffffffffffff16148061165557508373ffffffffffffffffffffffffffffffffffffffff1661163d846104fd565b73ffffffffffffffffffffffffffffffffffffffff16145b80611666575061166581856110fa565b5b91505092915050565b8273ffffffffffffffffffffffffffffffffffffffff1661168f82610b03565b73ffffffffffffffffffffffffffffffffffffffff16146116e5576040517f08c379a00000000000000000000000000000000000000000000000000000000081526004016116dc906135e7565b60405180910390fd5b600073ffffffffffffffffffffffffffffffffffffffff168273ffffffffffffffffffffffffffffffffffffffff161415611755576040517f08c379a000000000000000000000000000000000000000000000000000000000815260040161174c90613627565b60405180910390fd5b611760838383611ec7565b61176b600082611391565b6001600360008573ffffffffffffffffffffffffffffffffffffffff1673ffffffffffffffffffffffffffffffffffffffff16815260200190815260200160002060008282546117bb9190613a5b565b925050819055506001600360008473ffffffffffffffffffffffffffffffffffffffff1673ffffffffffffffffffffffffffffffffffffffff168152602001908152602001600020600082825461181291906139d4565b92505081905550816002600083815260200190815260200160002060006101000a81548173ffffffffffffffffffffffffffffffffffffffff021916908373ffffffffffffffffffffffffffffffffffffffff160217905550808273ffffffffffffffffffffffffffffffffffffffff168473ffffffffffffffffffffffffffffffffffffffff167fddf252ad1be2c89b69c2b068fc378daa952ba7f163c4a11628f55a4df523b3ef60405160405180910390a46118d1838383611ed7565b505050565b6000600b60009054906101000a900473ffffffffffffffffffffffffffffffffffffffff16905081600b60006101000a81548173ffffffffffffffffffffffffffffffffffffffff021916908373ffffffffffffffffffffffffffffffffffffffff1602179055508173ffffffffffffffffffffffffffffffffffffffff168173ffffffffffffffffffffffffffffffffffffffff167f8be0079c531659141344cd1fd0a4f28419497f9722a3daafe3b4186f6b6457e060405160405180910390a35050565b8173ffffffffffffffffffffffffffffffffffffffff168373ffffffffffffffffffffffffffffffffffffffff161415611a0b576040517f08c379a0000000000000000000000000000000000000000000000000000000008152600401611a0290613647565b60405180910390fd5b80600560008573ffffffffffffffffffffffffffffffffffffffff1673ffffffffffffffffffffffffffffffffffffffff16815260200190815260200160002060008473ffffffffffffffffffffffffffffffffffffffff1673ffffffffffffffffffffffffffffffffffffffff16815260200190815260200160002060006101000a81548160ff0219169083151502179055508173ffffffffffffffffffffffffffffffffffffffff168373ffffffffffffffffffffffffffffffffffffffff167f17307eab39ab6107e8899845ad3d59bd9653f200f220920489ca2b5937696c3183604051611afc91906134dc565b60405180910390a3505050565b611b1484848461166f565b611b2084848484611edc565b611b5f576040517f08c379a0000000000000000000000000000000000000000000000000000000008152600401611b56906135a7565b60405180910390fd5b50505050565b6060611b708261131d565b611baf576040517f08c379a0000000000000000000000000000000000000000000000000000000008152600401611ba690613747565b60405180910390fd5b6000600a60008481526020019081526020016000208054611bcf90613b45565b80601f0160208091040260200160405190810160405280929190818152602001828054611bfb90613b45565b8015611c485780601f10611c1d57610100808354040283529160200191611c48565b820191906000526020600020905b815481529060010190602001808311611c2b57829003601f168201915b505050505090506000611c59612073565b9050600081511415611c6f578192505050611cb2565b600082511115611ca4578082604051602001611c8c929190613451565b60405160208183030381529060405292505050611cb2565b611cad8461208a565b925050505b919050565b600081600001549050919050565b611d5d8282604051602401611cdb929190613557565b6040516020818303038152906040527f9710a9d0000000000000000000000000000000000000000000000000000000007bffffffffffffffffffffffffffffffffffffffffffffffffffffffff19166020820180517bffffffffffffffffffffffffffffffffffffffffffffffffffffffff8381831617835250505050611e43565b5050565b60007f80ac58cd000000000000000000000000000000000000000000000000000000007bffffffffffffffffffffffffffffffffffffffffffffffffffffffff1916827bffffffffffffffffffffffffffffffffffffffffffffffffffffffff19161480611e2c57507f5b5e139f000000000000000000000000000000000000000000000000000000007bffffffffffffffffffffffffffffffffffffffffffffffffffffffff1916827bffffffffffffffffffffffffffffffffffffffffffffffffffffffff1916145b80611e3c5750611e3b82612131565b5b9050919050565b60008151905060006a636f6e736f6c652e6c6f679050602083016000808483855afa5050505050565b611e76838361219b565b611e836000848484611edc565b611ec2576040517f08c379a0000000000000000000000000000000000000000000000000000000008152600401611eb9906135a7565b60405180910390fd5b505050565b611ed2838383612375565b505050565b505050565b6000611efd8473ffffffffffffffffffffffffffffffffffffffff16612489565b15612066578373ffffffffffffffffffffffffffffffffffffffff1663150b7a02611f26611389565b8786866040518563ffffffff1660e01b8152600401611f489493929190613490565b602060405180830381600087803b158015611f6257600080fd5b505af1925050508015611f9357506040513d601f19601f82011682018060405250810190611f90919061300a565b60015b612016573d8060008114611fc3576040519150601f19603f3d011682016040523d82523d6000602084013e611fc8565b606091505b5060008151141561200e576040517f08c379a0000000000000000000000000000000000000000000000000000000008152600401612005906135a7565b60405180910390fd5b805181602001fd5b63150b7a0260e01b7bffffffffffffffffffffffffffffffffffffffffffffffffffffffff1916817bffffffffffffffffffffffffffffffffffffffffffffffffffffffff19161491505061206b565b600190505b949350505050565b606060405180602001604052806000815250905090565b60606120958261131d565b6120d4576040517f08c379a00000000000000000000000000000000000000000000000000000000081526004016120cb906137a7565b60405180910390fd5b60006120de612073565b905060008151116120fe5760405180602001604052806000815250612129565b80612108846124ac565b604051602001612119929190613451565b6040516020818303038152906040525b915050919050565b60007f01ffc9a7000000000000000000000000000000000000000000000000000000007bffffffffffffffffffffffffffffffffffffffffffffffffffffffff1916827bffffffffffffffffffffffffffffffffffffffffffffffffffffffff1916149050919050565b600073ffffffffffffffffffffffffffffffffffffffff168273ffffffffffffffffffffffffffffffffffffffff16141561220b576040517f08c379a000000000000000000000000000000000000000000000000000000000815260040161220290613727565b60405180910390fd5b6122148161131d565b15612254576040517f08c379a000000000000000000000000000000000000000000000000000000000815260040161224b90613607565b60405180910390fd5b61226060008383611ec7565b6001600360008473ffffffffffffffffffffffffffffffffffffffff1673ffffffffffffffffffffffffffffffffffffffff16815260200190815260200160002060008282546122b091906139d4565b92505081905550816002600083815260200190815260200160002060006101000a81548173ffffffffffffffffffffffffffffffffffffffff021916908373ffffffffffffffffffffffffffffffffffffffff160217905550808273ffffffffffffffffffffffffffffffffffffffff16600073ffffffffffffffffffffffffffffffffffffffff167fddf252ad1be2c89b69c2b068fc378daa952ba7f163c4a11628f55a4df523b3ef60405160405180910390a461237160008383611ed7565b5050565b612380838383612659565b600073ffffffffffffffffffffffffffffffffffffffff168373ffffffffffffffffffffffffffffffffffffffff1614156123c3576123be8161265e565b612402565b8173ffffffffffffffffffffffffffffffffffffffff168373ffffffffffffffffffffffffffffffffffffffff16146124015761240083826126a7565b5b5b600073ffffffffffffffffffffffffffffffffffffffff168273ffffffffffffffffffffffffffffffffffffffff1614156124455761244081612814565b612484565b8273ffffffffffffffffffffffffffffffffffffffff168273ffffffffffffffffffffffffffffffffffffffff1614612483576124828282612957565b5b5b505050565b6000808273ffffffffffffffffffffffffffffffffffffffff163b119050919050565b606060008214156124f4576040518060400160405280600181526020017f30000000000000000000000000000000000000000000000000000000000000008152509050612654565b600082905060005b6000821461252657808061250f90613ba8565b915050600a8261251f9190613a2a565b91506124fc565b60008167ffffffffffffffff811115612568577f4e487b7100000000000000000000000000000000000000000000000000000000600052604160045260246000fd5b6040519080825280601f01601f19166020018201604052801561259a5781602001600182028036833780820191505090505b5090505b6000851461264d576001826125b39190613a5b565b9150600a856125c29190613bf1565b60306125ce91906139d4565b60f81b81838151811061260a577f4e487b7100000000000000000000000000000000000000000000000000000000600052603260045260246000fd5b60200101907effffffffffffffffffffffffffffffffffffffffffffffffffffffffffffff1916908160001a905350600a856126469190613a2a565b945061259e565b8093505050505b919050565b505050565b6008805490506009600083815260200190815260200160002081905550600881908060018154018082558091505060019003906000526020600020016000909190919091505550565b600060016126b484610bb5565b6126be9190613a5b565b90506000600760008481526020019081526020016000205490508181146127a3576000600660008673ffffffffffffffffffffffffffffffffffffffff1673ffffffffffffffffffffffffffffffffffffffff168152602001908152602001600020600084815260200190815260200160002054905080600660008773ffffffffffffffffffffffffffffffffffffffff1673ffffffffffffffffffffffffffffffffffffffff168152602001908152602001600020600084815260200190815260200160002081905550816007600083815260200190815260200160002081905550505b6007600084815260200190815260200160002060009055600660008573ffffffffffffffffffffffffffffffffffffffff1673ffffffffffffffffffffffffffffffffffffffff16815260200190815260200160002060008381526020019081526020016000206000905550505050565b600060016008805490506128289190613a5b565b905060006009600084815260200190815260200160002054905060006008838154811061287e577f4e487b7100000000000000000000000000000000000000000000000000000000600052603260045260246000fd5b9060005260206000200154905080600883815481106128c6577f4e487b7100000000000000000000000000000000000000000000000000000000600052603260045260246000fd5b90600052602060002001819055508160096000838152602001908152602001600020819055506009600085815260200190815260200160002060009055600880548061293b577f4e487b7100000000000000000000000000000000000000000000000000000000600052603160045260246000fd5b6001900381819060005260206000200160009055905550505050565b600061296283610bb5565b905081600660008573ffffffffffffffffffffffffffffffffffffffff1673ffffffffffffffffffffffffffffffffffffffff168152602001908152602001600020600083815260200190815260200160002081905550806007600084815260200190815260200160002081905550505050565b8280546129e290613b45565b90600052602060002090601f016020900481019282612a045760008555612a4b565b82601f10612a1d57805160ff1916838001178555612a4b565b82800160010185558215612a4b579182015b82811115612a4a578251825591602001919060010190612a2f565b5b509050612a589190612a5c565b5090565b5b80821115612a75576000816000905550600101612a5d565b5090565b6000612a8c612a87846138d7565b6138b2565b90508083825260208201905082856020860282011115612aab57600080fd5b60005b85811015612af557813567ffffffffffffffff811115612acd57600080fd5b808601612ada8982612cb9565b85526020850194506020840193505050600181019050612aae565b5050509392505050565b6000612b12612b0d84613903565b6138b2565b90508083825260208201905082856020860282011115612b3157600080fd5b60005b85811015612b615781612b478882612ce3565b845260208401935060208301925050600181019050612b34565b5050509392505050565b6000612b7e612b798461392f565b6138b2565b905082815260208101848484011115612b9657600080fd5b612ba1848285613b03565b509392505050565b6000612bbc612bb784613960565b6138b2565b905082815260208101848484011115612bd457600080fd5b612bdf848285613b03565b509392505050565b600081359050612bf681614370565b92915050565b600082601f830112612c0d57600080fd5b8135612c1d848260208601612a79565b91505092915050565b600082601f830112612c3757600080fd5b8135612c47848260208601612aff565b91505092915050565b600081359050612c5f81614387565b92915050565b600081359050612c748161439e565b92915050565b600081519050612c898161439e565b92915050565b600082601f830112612ca057600080fd5b8135612cb0848260208601612b6b565b91505092915050565b600082601f830112612cca57600080fd5b8135612cda848260208601612ba9565b91505092915050565b600081359050612cf2816143b5565b92915050565b600060208284031215612d0a57600080fd5b6000612d1884828501612be7565b91505092915050565b60008060408385031215612d3457600080fd5b6000612d4285828601612be7565b9250506020612d5385828601612be7565b9150509250929050565b600080600060608486031215612d7257600080fd5b6000612d8086828701612be7565b9350506020612d9186828701612be7565b9250506040612da286828701612ce3565b9150509250925092565b60008060008060808587031215612dc257600080fd5b6000612dd087828801612be7565b9450506020612de187828801612be7565b9350506040612df287828801612ce3565b925050606085013567ffffffffffffffff811115612e0f57600080fd5b612e1b87828801612c8f565b91505092959194509250565b60008060008060808587031215612e3d57600080fd5b6000612e4b87828801612be7565b945050602085013567ffffffffffffffff811115612e6857600080fd5b612e7487828801612c26565b935050604085013567ffffffffffffffff811115612e9157600080fd5b612e9d87828801612c26565b925050606085013567ffffffffffffffff811115612eba57600080fd5b612ec687828801612bfc565b91505092959194509250565b60008060408385031215612ee557600080fd5b6000612ef385828601612be7565b9250506020612f0485828601612c50565b9150509250929050565b60008060408385031215612f2157600080fd5b6000612f2f85828601612be7565b9250506020612f4085828601612ce3565b9150509250929050565b600080600060608486031215612f5f57600080fd5b600084013567ffffffffffffffff811115612f7957600080fd5b612f8586828701612c26565b935050602084013567ffffffffffffffff811115612fa257600080fd5b612fae86828701612c26565b925050604084013567ffffffffffffffff811115612fcb57600080fd5b612fd786828701612bfc565b9150509250925092565b600060208284031215612ff357600080fd5b600061300184828501612c65565b91505092915050565b60006020828403121561301c57600080fd5b600061302a84828501612c7a565b91505092915050565b60006020828403121561304557600080fd5b600061305384828501612ce3565b91505092915050565b61306581613a8f565b82525050565b61307481613aa1565b82525050565b600061308582613991565b61308f81856139a7565b935061309f818560208601613b12565b6130a881613cde565b840191505092915050565b60006130be8261399c565b6130c881856139b8565b93506130d8818560208601613b12565b6130e181613cde565b840191505092915050565b60006130f78261399c565b61310181856139c9565b9350613111818560208601613b12565b80840191505092915050565b600061312a602b836139b8565b915061313582613cef565b604082019050919050565b600061314d6032836139b8565b915061315882613d3e565b604082019050919050565b60006131706026836139b8565b915061317b82613d8d565b604082019050919050565b60006131936025836139b8565b915061319e82613ddc565b604082019050919050565b60006131b6601c836139b8565b91506131c182613e2b565b602082019050919050565b60006131d96024836139b8565b91506131e482613e54565b604082019050919050565b60006131fc6019836139b8565b915061320782613ea3565b602082019050919050565b600061321f602c836139b8565b915061322a82613ecc565b604082019050919050565b60006132426037836139b8565b915061324d82613f1b565b604082019050919050565b60006132656038836139b8565b915061327082613f6a565b604082019050919050565b6000613288602a836139b8565b915061329382613fb9565b604082019050919050565b60006132ab6029836139b8565b91506132b682614008565b604082019050919050565b60006132ce602e836139b8565b91506132d982614057565b604082019050919050565b60006132f16020836139b8565b91506132fc826140a6565b602082019050919050565b60006133146031836139b8565b915061331f826140cf565b604082019050919050565b6000613337602c836139b8565b91506133428261411e565b604082019050919050565b600061335a6020836139b8565b91506133658261416d565b602082019050919050565b600061337d602f836139b8565b915061338882614196565b604082019050919050565b60006133a0603f836139b8565b91506133ab826141e5565b604082019050919050565b60006133c36021836139b8565b91506133ce82614234565b604082019050919050565b60006133e66031836139b8565b91506133f182614283565b604082019050919050565b6000613409602c836139b8565b9150613414826142d2565b604082019050919050565b600061342c603e836139b8565b915061343782614321565b604082019050919050565b61344b81613af9565b82525050565b600061345d82856130ec565b915061346982846130ec565b91508190509392505050565b600060208201905061348a600083018461305c565b92915050565b60006080820190506134a5600083018761305c565b6134b2602083018661305c565b6134bf6040830185613442565b81810360608301526134d1818461307a565b905095945050505050565b60006020820190506134f1600083018461306b565b92915050565b6000602082019050818103600083015261351181846130b3565b905092915050565b6000606082019050818103600083015261353381866130b3565b9050613542602083018561305c565b61354f6040830184613442565b949350505050565b6000604082019050818103600083015261357181856130b3565b90506135806020830184613442565b9392505050565b600060208201905081810360008301526135a08161311d565b9050919050565b600060208201905081810360008301526135c081613140565b9050919050565b600060208201905081810360008301526135e081613163565b9050919050565b6000602082019050818103600083015261360081613186565b9050919050565b60006020820190508181036000830152613620816131a9565b9050919050565b60006020820190508181036000830152613640816131cc565b9050919050565b60006020820190508181036000830152613660816131ef565b9050919050565b6000602082019050818103600083015261368081613212565b9050919050565b600060208201905081810360008301526136a081613235565b9050919050565b600060208201905081810360008301526136c081613258565b9050919050565b600060208201905081810360008301526136e08161327b565b9050919050565b600060208201905081810360008301526137008161329e565b9050919050565b60006020820190508181036000830152613720816132c1565b9050919050565b60006020820190508181036000830152613740816132e4565b9050919050565b6000602082019050818103600083015261376081613307565b9050919050565b600060208201905081810360008301526137808161332a565b9050919050565b600060208201905081810360008301526137a08161334d565b9050919050565b600060208201905081810360008301526137c081613370565b9050919050565b600060208201905081810360008301526137e081613393565b9050919050565b60006020820190508181036000830152613800816133b6565b9050919050565b60006020820190508181036000830152613820816133d9565b9050919050565b60006020820190508181036000830152613840816133fc565b9050919050565b600060208201905081810360008301526138608161341f565b9050919050565b600060208201905061387c6000830184613442565b92915050565b60006040820190506138976000830185613442565b81810360208301526138a981846130b3565b90509392505050565b60006138bc6138cd565b90506138c88282613b77565b919050565b6000604051905090565b600067ffffffffffffffff8211156138f2576138f1613caf565b5b602082029050602081019050919050565b600067ffffffffffffffff82111561391e5761391d613caf565b5b602082029050602081019050919050565b600067ffffffffffffffff82111561394a57613949613caf565b5b61395382613cde565b9050602081019050919050565b600067ffffffffffffffff82111561397b5761397a613caf565b5b61398482613cde565b9050602081019050919050565b600081519050919050565b600081519050919050565b600082825260208201905092915050565b600082825260208201905092915050565b600081905092915050565b60006139df82613af9565b91506139ea83613af9565b9250827fffffffffffffffffffffffffffffffffffffffffffffffffffffffffffffffff03821115613a1f57613a1e613c22565b5b828201905092915050565b6000613a3582613af9565b9150613a4083613af9565b925082613a5057613a4f613c51565b5b828204905092915050565b6000613a6682613af9565b9150613a7183613af9565b925082821015613a8457613a83613c22565b5b828203905092915050565b6000613a9a82613ad9565b9050919050565b60008115159050919050565b60007fffffffff0000000000000000000000000000000000000000000000000000000082169050919050565b600073ffffffffffffffffffffffffffffffffffffffff82169050919050565b6000819050919050565b82818337600083830152505050565b60005b83811015613b30578082015181840152602081019050613b15565b83811115613b3f576000848401525b50505050565b60006002820490506001821680613b5d57607f821691505b60208210811415613b7157613b70613c80565b5b50919050565b613b8082613cde565b810181811067ffffffffffffffff82111715613b9f57613b9e613caf565b5b80604052505050565b6000613bb382613af9565b91507fffffffffffffffffffffffffffffffffffffffffffffffffffffffffffffffff821415613be657613be5613c22565b5b600182019050919050565b6000613bfc82613af9565b9150613c0783613af9565b925082613c1757613c16613c51565b5b828206905092915050565b7f4e487b7100000000000000000000000000000000000000000000000000000000600052601160045260246000fd5b7f4e487b7100000000000000000000000000000000000000000000000000000000600052601260045260246000fd5b7f4e487b7100000000000000000000000000000000000000000000000000000000600052602260045260246000fd5b7f4e487b7100000000000000000000000000000000000000000000000000000000600052604160045260246000fd5b6000601f19601f8301169050919050565b7f455243373231456e756d657261626c653a206f776e657220696e646578206f7560008201527f74206f6620626f756e6473000000000000000000000000000000000000000000602082015250565b7f4552433732313a207472616e7366657220746f206e6f6e20455243373231526560008201527f63656976657220696d706c656d656e7465720000000000000000000000000000602082015250565b7f4f776e61626c653a206e6577206f776e657220697320746865207a65726f206160008201527f6464726573730000000000000000000000000000000000000000000000000000602082015250565b7f4552433732313a207472616e736665722066726f6d20696e636f72726563742060008201527f6f776e6572000000000000000000000000000000000000000000000000000000602082015250565b7f4552433732313a20746f6b656e20616c7265616479206d696e74656400000000600082015250565b7f4552433732313a207472616e7366657220746f20746865207a65726f2061646460008201527f7265737300000000000000000000000000000000000000000000000000000000602082015250565b7f4552433732313a20617070726f766520746f2063616c6c657200000000000000600082015250565b7f4552433732313a206f70657261746f7220717565727920666f72206e6f6e657860008201527f697374656e7420746f6b656e0000000000000000000000000000000000000000602082015250565b7f4e756d626572206f66206964732073686f756c6420626520657175616c20746f60008201527f206e756d626572206f66206d6574616461746155524973000000000000000000602082015250565b7f4552433732313a20617070726f76652063616c6c6572206973206e6f74206f7760008201527f6e6572206e6f7220617070726f76656420666f7220616c6c0000000000000000602082015250565b7f4552433732313a2062616c616e636520717565727920666f7220746865207a6560008201527f726f206164647265737300000000000000000000000000000000000000000000602082015250565b7f4552433732313a206f776e657220717565727920666f72206e6f6e657869737460008201527f656e7420746f6b656e0000000000000000000000000000000000000000000000602082015250565b7f45524337323155524953746f726167653a2055524920736574206f66206e6f6e60008201527f6578697374656e7420746f6b656e000000000000000000000000000000000000602082015250565b7f4552433732313a206d696e7420746f20746865207a65726f2061646472657373600082015250565b7f45524337323155524953746f726167653a2055524920717565727920666f722060008201527f6e6f6e6578697374656e7420746f6b656e000000000000000000000000000000602082015250565b7f4552433732313a20617070726f76656420717565727920666f72206e6f6e657860008201527f697374656e7420746f6b656e0000000000000000000000000000000000000000602082015250565b7f4f776e61626c653a2063616c6c6572206973206e6f7420746865206f776e6572600082015250565b7f4552433732314d657461646174613a2055524920717565727920666f72206e6f60008201527f6e6578697374656e7420746f6b656e0000000000000000000000000000000000602082015250565b7f4e756d626572206f66206964732073686f756c6420626520657175616c20746f60008201527f206e756d626572206f66206174747269627574654d756c7469706c6965727300602082015250565b7f4552433732313a20617070726f76616c20746f2063757272656e74206f776e6560008201527f7200000000000000000000000000000000000000000000000000000000000000602082015250565b7f4552433732313a207472616e736665722063616c6c6572206973206e6f74206f60008201527f776e6572206e6f7220617070726f766564000000000000000000000000000000602082015250565b7f455243373231456e756d657261626c653a20676c6f62616c20696e646578206f60008201527f7574206f6620626f756e64730000000000000000000000000000000000000000602082015250565b7f4e756d626572206f66206964732073686f756c6420626520657175616c20746f60008201527f20746f74616c206e756d626572206f66206d696e74656420746f6b656e730000602082015250565b61437981613a8f565b811461438457600080fd5b50565b61439081613aa1565b811461439b57600080fd5b50565b6143a781613aad565b81146143b257600080fd5b50565b6143be81613af9565b81146143c957600080fd5b5056fe43616c6c696e67206368616e67654d657461646174612077697468206e756d626572206f6620746f6b656e733a20256943616c6c696e67206d696e74546f6b656e207769746820616464726573733a20257320616e64206e756d626572206f6620746f6b656e733a202569a2646970667358221220577bd3cc81312fff4364d9a0cb269706a6fb1c85b9c4bb42323174c6bfc2609964736f6c63430008040033",
  "linkReferences": {},
  "deployedLinkReferences": {}
}